{
	"Contracts/Day 9/Day9_Act3.sol": {
		"thirdContract": {
			"abi": [
				{
					"inputs": [],
					"name": "allFunction",
					"outputs": [
						{
							"internalType": "string",
							"name": "",
							"type": "string"
						},
						{
							"internalType": "string",
							"name": "",
							"type": "string"
						},
						{
							"internalType": "string",
							"name": "",
							"type": "string"
						}
					],
					"stateMutability": "pure",
					"type": "function"
				},
				{
					"inputs": [],
					"name": "firstFunction",
					"outputs": [
						{
							"internalType": "string",
							"name": "",
							"type": "string"
						}
					],
					"stateMutability": "pure",
					"type": "function"
				},
				{
					"inputs": [],
					"name": "secondFunction",
					"outputs": [
						{
							"internalType": "string",
							"name": "",
							"type": "string"
						}
					],
					"stateMutability": "pure",
					"type": "function"
				},
				{
					"inputs": [],
					"name": "thirdFunction",
					"outputs": [
						{
							"internalType": "string",
							"name": "",
							"type": "string"
						}
					],
					"stateMutability": "pure",
					"type": "function"
				}
			],
			"devdoc": {
				"kind": "dev",
				"methods": {},
				"version": 1
			},
			"evm": {
				"assembly": "    /* \"Contracts/Day 9/Day9_Act3.sol\":465:679  contract thirdContract is secContract{... */\n  mstore(0x40, 0x80)\n  callvalue\n  dup1\n  iszero\n  tag_1\n  jumpi\n  revert(0x00, 0x00)\ntag_1:\n  pop\n  dataSize(sub_0)\n  dup1\n  dataOffset(sub_0)\n  0x00\n  codecopy\n  0x00\n  return\nstop\n\nsub_0: assembly {\n        /* \"Contracts/Day 9/Day9_Act3.sol\":465:679  contract thirdContract is secContract{... */\n      mstore(0x40, 0x80)\n      callvalue\n      dup1\n      iszero\n      tag_1\n      jumpi\n      revert(0x00, 0x00)\n    tag_1:\n      pop\n      jumpi(tag_2, lt(calldatasize, 0x04))\n      shr(0xe0, calldataload(0x00))\n      dup1\n      0x3c8b6aa7\n      eq\n      tag_3\n      jumpi\n      dup1\n      0x6823a87c\n      eq\n      tag_4\n      jumpi\n      dup1\n      0x6b3c10d3\n      eq\n      tag_5\n      jumpi\n      dup1\n      0xcd71dadb\n      eq\n      tag_6\n      jumpi\n    tag_2:\n      revert(0x00, 0x00)\n        /* \"Contracts/Day 9/Day9_Act3.sol\":201:306  function secondFunction() public pure returns (string memory) {... */\n    tag_3:\n      tag_7\n      tag_8\n      jump\t// in\n    tag_7:\n      mload(0x40)\n      tag_9\n      swap2\n      swap1\n      tag_10\n      jump\t// in\n    tag_9:\n      mload(0x40)\n      dup1\n      swap2\n      sub\n      swap1\n      return\n        /* \"Contracts/Day 9/Day9_Act3.sol\":509:676  function allFunction() public pure returns (string memory, string memory, string memory) {... */\n    tag_4:\n      tag_11\n      tag_12\n      jump\t// in\n    tag_11:\n      mload(0x40)\n      tag_13\n      swap4\n      swap3\n      swap2\n      swap1\n      tag_14\n      jump\t// in\n    tag_13:\n      mload(0x40)\n      dup1\n      swap2\n      sub\n      swap1\n      return\n        /* \"Contracts/Day 9/Day9_Act3.sol\":355:458  function thirdFunction() public pure returns (string memory) {... */\n    tag_5:\n      tag_15\n      tag_16\n      jump\t// in\n    tag_15:\n      mload(0x40)\n      tag_17\n      swap2\n      swap1\n      tag_10\n      jump\t// in\n    tag_17:\n      mload(0x40)\n      dup1\n      swap2\n      sub\n      swap1\n      return\n        /* \"Contracts/Day 9/Day9_Act3.sol\":92:195  function firstFunction() public pure returns (string memory) {... */\n    tag_6:\n      tag_18\n      tag_19\n      jump\t// in\n    tag_18:\n      mload(0x40)\n      tag_20\n      swap2\n      swap1\n      tag_10\n      jump\t// in\n    tag_20:\n      mload(0x40)\n      dup1\n      swap2\n      sub\n      swap1\n      return\n        /* \"Contracts/Day 9/Day9_Act3.sol\":201:306  function secondFunction() public pure returns (string memory) {... */\n    tag_8:\n        /* \"Contracts/Day 9/Day9_Act3.sol\":248:261  string memory */\n      0x60\n        /* \"Contracts/Day 9/Day9_Act3.sol\":274:298  return \"Second Function\" */\n      mload(0x40)\n      dup1\n      0x40\n      add\n      0x40\n      mstore\n      dup1\n      0x0f\n      dup2\n      mstore\n      0x20\n      add\n      0x5365636f6e642046756e6374696f6e0000000000000000000000000000000000\n      dup2\n      mstore\n      pop\n      swap1\n      pop\n        /* \"Contracts/Day 9/Day9_Act3.sol\":201:306  function secondFunction() public pure returns (string memory) {... */\n      swap1\n      jump\t// out\n        /* \"Contracts/Day 9/Day9_Act3.sol\":509:676  function allFunction() public pure returns (string memory, string memory, string memory) {... */\n    tag_12:\n        /* \"Contracts/Day 9/Day9_Act3.sol\":553:566  string memory */\n      0x60\n        /* \"Contracts/Day 9/Day9_Act3.sol\":568:581  string memory */\n      dup1\n        /* \"Contracts/Day 9/Day9_Act3.sol\":583:596  string memory */\n      0x60\n        /* \"Contracts/Day 9/Day9_Act3.sol\":617:632  firstFunction() */\n      tag_23\n        /* \"Contracts/Day 9/Day9_Act3.sol\":617:630  firstFunction */\n      tag_19\n        /* \"Contracts/Day 9/Day9_Act3.sol\":617:632  firstFunction() */\n      jump\t// in\n    tag_23:\n        /* \"Contracts/Day 9/Day9_Act3.sol\":634:650  secondFunction() */\n      tag_24\n        /* \"Contracts/Day 9/Day9_Act3.sol\":634:648  secondFunction */\n      tag_8\n        /* \"Contracts/Day 9/Day9_Act3.sol\":634:650  secondFunction() */\n      jump\t// in\n    tag_24:\n        /* \"Contracts/Day 9/Day9_Act3.sol\":652:667  thirdFunction() */\n      tag_25\n        /* \"Contracts/Day 9/Day9_Act3.sol\":652:665  thirdFunction */\n      tag_16\n        /* \"Contracts/Day 9/Day9_Act3.sol\":652:667  thirdFunction() */\n      jump\t// in\n    tag_25:\n        /* \"Contracts/Day 9/Day9_Act3.sol\":609:668  return (firstFunction(), secondFunction(), thirdFunction()) */\n      swap3\n      pop\n      swap3\n      pop\n      swap3\n      pop\n        /* \"Contracts/Day 9/Day9_Act3.sol\":509:676  function allFunction() public pure returns (string memory, string memory, string memory) {... */\n      swap1\n      swap2\n      swap3\n      jump\t// out\n        /* \"Contracts/Day 9/Day9_Act3.sol\":355:458  function thirdFunction() public pure returns (string memory) {... */\n    tag_16:\n        /* \"Contracts/Day 9/Day9_Act3.sol\":401:414  string memory */\n      0x60\n        /* \"Contracts/Day 9/Day9_Act3.sol\":427:450  return \"Third Function\" */\n      mload(0x40)\n      dup1\n      0x40\n      add\n      0x40\n      mstore\n      dup1\n      0x0e\n      dup2\n      mstore\n      0x20\n      add\n      0x54686972642046756e6374696f6e000000000000000000000000000000000000\n      dup2\n      mstore\n      pop\n      swap1\n      pop\n        /* \"Contracts/Day 9/Day9_Act3.sol\":355:458  function thirdFunction() public pure returns (string memory) {... */\n      swap1\n      jump\t// out\n        /* \"Contracts/Day 9/Day9_Act3.sol\":92:195  function firstFunction() public pure returns (string memory) {... */\n    tag_19:\n        /* \"Contracts/Day 9/Day9_Act3.sol\":138:151  string memory */\n      0x60\n        /* \"Contracts/Day 9/Day9_Act3.sol\":164:187  return \"First Function\" */\n      mload(0x40)\n      dup1\n      0x40\n      add\n      0x40\n      mstore\n      dup1\n      0x0e\n      dup2\n      mstore\n      0x20\n      add\n      0x46697273742046756e6374696f6e000000000000000000000000000000000000\n      dup2\n      mstore\n      pop\n      swap1\n      pop\n        /* \"Contracts/Day 9/Day9_Act3.sol\":92:195  function firstFunction() public pure returns (string memory) {... */\n      swap1\n      jump\t// out\n        /* \"#utility.yul\":7:106   */\n    tag_28:\n        /* \"#utility.yul\":59:65   */\n      0x00\n        /* \"#utility.yul\":93:98   */\n      dup2\n        /* \"#utility.yul\":87:99   */\n      mload\n        /* \"#utility.yul\":77:99   */\n      swap1\n      pop\n        /* \"#utility.yul\":7:106   */\n      swap2\n      swap1\n      pop\n      jump\t// out\n        /* \"#utility.yul\":112:281   */\n    tag_29:\n        /* \"#utility.yul\":196:207   */\n      0x00\n        /* \"#utility.yul\":230:236   */\n      dup3\n        /* \"#utility.yul\":225:228   */\n      dup3\n        /* \"#utility.yul\":218:237   */\n      mstore\n        /* \"#utility.yul\":270:274   */\n      0x20\n        /* \"#utility.yul\":265:268   */\n      dup3\n        /* \"#utility.yul\":261:275   */\n      add\n        /* \"#utility.yul\":246:275   */\n      swap1\n      pop\n        /* \"#utility.yul\":112:281   */\n      swap3\n      swap2\n      pop\n      pop\n      jump\t// out\n        /* \"#utility.yul\":287:426   */\n    tag_30:\n        /* \"#utility.yul\":376:382   */\n      dup3\n        /* \"#utility.yul\":371:374   */\n      dup2\n        /* \"#utility.yul\":366:369   */\n      dup4\n        /* \"#utility.yul\":360:383   */\n      mcopy\n        /* \"#utility.yul\":417:418   */\n      0x00\n        /* \"#utility.yul\":408:414   */\n      dup4\n        /* \"#utility.yul\":403:406   */\n      dup4\n        /* \"#utility.yul\":399:415   */\n      add\n        /* \"#utility.yul\":392:419   */\n      mstore\n        /* \"#utility.yul\":287:426   */\n      pop\n      pop\n      pop\n      jump\t// out\n        /* \"#utility.yul\":432:534   */\n    tag_31:\n        /* \"#utility.yul\":473:479   */\n      0x00\n        /* \"#utility.yul\":524:526   */\n      0x1f\n        /* \"#utility.yul\":520:527   */\n      not\n        /* \"#utility.yul\":515:517   */\n      0x1f\n        /* \"#utility.yul\":508:513   */\n      dup4\n        /* \"#utility.yul\":504:518   */\n      add\n        /* \"#utility.yul\":500:528   */\n      and\n        /* \"#utility.yul\":490:528   */\n      swap1\n      pop\n        /* \"#utility.yul\":432:534   */\n      swap2\n      swap1\n      pop\n      jump\t// out\n        /* \"#utility.yul\":540:917   */\n    tag_32:\n        /* \"#utility.yul\":628:631   */\n      0x00\n        /* \"#utility.yul\":656:695   */\n      tag_39\n        /* \"#utility.yul\":689:694   */\n      dup3\n        /* \"#utility.yul\":656:695   */\n      tag_28\n      jump\t// in\n    tag_39:\n        /* \"#utility.yul\":711:782   */\n      tag_40\n        /* \"#utility.yul\":775:781   */\n      dup2\n        /* \"#utility.yul\":770:773   */\n      dup6\n        /* \"#utility.yul\":711:782   */\n      tag_29\n      jump\t// in\n    tag_40:\n        /* \"#utility.yul\":704:782   */\n      swap4\n      pop\n        /* \"#utility.yul\":791:856   */\n      tag_41\n        /* \"#utility.yul\":849:855   */\n      dup2\n        /* \"#utility.yul\":844:847   */\n      dup6\n        /* \"#utility.yul\":837:841   */\n      0x20\n        /* \"#utility.yul\":830:835   */\n      dup7\n        /* \"#utility.yul\":826:842   */\n      add\n        /* \"#utility.yul\":791:856   */\n      tag_30\n      jump\t// in\n    tag_41:\n        /* \"#utility.yul\":881:910   */\n      tag_42\n        /* \"#utility.yul\":903:909   */\n      dup2\n        /* \"#utility.yul\":881:910   */\n      tag_31\n      jump\t// in\n    tag_42:\n        /* \"#utility.yul\":876:879   */\n      dup5\n        /* \"#utility.yul\":872:911   */\n      add\n        /* \"#utility.yul\":865:911   */\n      swap2\n      pop\n        /* \"#utility.yul\":632:917   */\n      pop\n        /* \"#utility.yul\":540:917   */\n      swap3\n      swap2\n      pop\n      pop\n      jump\t// out\n        /* \"#utility.yul\":923:1236   */\n    tag_10:\n        /* \"#utility.yul\":1036:1040   */\n      0x00\n        /* \"#utility.yul\":1074:1076   */\n      0x20\n        /* \"#utility.yul\":1063:1072   */\n      dup3\n        /* \"#utility.yul\":1059:1077   */\n      add\n        /* \"#utility.yul\":1051:1077   */\n      swap1\n      pop\n        /* \"#utility.yul\":1123:1132   */\n      dup2\n        /* \"#utility.yul\":1117:1121   */\n      dup2\n        /* \"#utility.yul\":1113:1133   */\n      sub\n        /* \"#utility.yul\":1109:1110   */\n      0x00\n        /* \"#utility.yul\":1098:1107   */\n      dup4\n        /* \"#utility.yul\":1094:1111   */\n      add\n        /* \"#utility.yul\":1087:1134   */\n      mstore\n        /* \"#utility.yul\":1151:1229   */\n      tag_44\n        /* \"#utility.yul\":1224:1228   */\n      dup2\n        /* \"#utility.yul\":1215:1221   */\n      dup5\n        /* \"#utility.yul\":1151:1229   */\n      tag_32\n      jump\t// in\n    tag_44:\n        /* \"#utility.yul\":1143:1229   */\n      swap1\n      pop\n        /* \"#utility.yul\":923:1236   */\n      swap3\n      swap2\n      pop\n      pop\n      jump\t// out\n        /* \"#utility.yul\":1242:1957   */\n    tag_14:\n        /* \"#utility.yul\":1451:1455   */\n      0x00\n        /* \"#utility.yul\":1489:1491   */\n      0x60\n        /* \"#utility.yul\":1478:1487   */\n      dup3\n        /* \"#utility.yul\":1474:1492   */\n      add\n        /* \"#utility.yul\":1466:1492   */\n      swap1\n      pop\n        /* \"#utility.yul\":1538:1547   */\n      dup2\n        /* \"#utility.yul\":1532:1536   */\n      dup2\n        /* \"#utility.yul\":1528:1548   */\n      sub\n        /* \"#utility.yul\":1524:1525   */\n      0x00\n        /* \"#utility.yul\":1513:1522   */\n      dup4\n        /* \"#utility.yul\":1509:1526   */\n      add\n        /* \"#utility.yul\":1502:1549   */\n      mstore\n        /* \"#utility.yul\":1566:1644   */\n      tag_46\n        /* \"#utility.yul\":1639:1643   */\n      dup2\n        /* \"#utility.yul\":1630:1636   */\n      dup7\n        /* \"#utility.yul\":1566:1644   */\n      tag_32\n      jump\t// in\n    tag_46:\n        /* \"#utility.yul\":1558:1644   */\n      swap1\n      pop\n        /* \"#utility.yul\":1691:1700   */\n      dup2\n        /* \"#utility.yul\":1685:1689   */\n      dup2\n        /* \"#utility.yul\":1681:1701   */\n      sub\n        /* \"#utility.yul\":1676:1678   */\n      0x20\n        /* \"#utility.yul\":1665:1674   */\n      dup4\n        /* \"#utility.yul\":1661:1679   */\n      add\n        /* \"#utility.yul\":1654:1702   */\n      mstore\n        /* \"#utility.yul\":1719:1797   */\n      tag_47\n        /* \"#utility.yul\":1792:1796   */\n      dup2\n        /* \"#utility.yul\":1783:1789   */\n      dup6\n        /* \"#utility.yul\":1719:1797   */\n      tag_32\n      jump\t// in\n    tag_47:\n        /* \"#utility.yul\":1711:1797   */\n      swap1\n      pop\n        /* \"#utility.yul\":1844:1853   */\n      dup2\n        /* \"#utility.yul\":1838:1842   */\n      dup2\n        /* \"#utility.yul\":1834:1854   */\n      sub\n        /* \"#utility.yul\":1829:1831   */\n      0x40\n        /* \"#utility.yul\":1818:1827   */\n      dup4\n        /* \"#utility.yul\":1814:1832   */\n      add\n        /* \"#utility.yul\":1807:1855   */\n      mstore\n        /* \"#utility.yul\":1872:1950   */\n      tag_48\n        /* \"#utility.yul\":1945:1949   */\n      dup2\n        /* \"#utility.yul\":1936:1942   */\n      dup5\n        /* \"#utility.yul\":1872:1950   */\n      tag_32\n      jump\t// in\n    tag_48:\n        /* \"#utility.yul\":1864:1950   */\n      swap1\n      pop\n        /* \"#utility.yul\":1242:1957   */\n      swap5\n      swap4\n      pop\n      pop\n      pop\n      pop\n      jump\t// out\n\n    auxdata: 0xa2646970667358221220006b65aa6e2b66ed3f8fba674033b89297d189c047e6bc4c70d5302123979d3264736f6c634300081e0033\n}\n",
				"bytecode": {
					"linkReferences": {},
					"object": "6080604052348015600e575f5ffd5b506102b78061001c5f395ff3fe608060405234801561000f575f5ffd5b506004361061004a575f3560e01c80633c8b6aa71461004e5780636823a87c1461006c5780636b3c10d31461008c578063cd71dadb146100aa575b5f5ffd5b6100566100c8565b6040516100639190610217565b60405180910390f35b610074610105565b60405161008393929190610237565b60405180910390f35b61009461012d565b6040516100a19190610217565b60405180910390f35b6100b261016a565b6040516100bf9190610217565b60405180910390f35b60606040518060400160405280600f81526020017f5365636f6e642046756e6374696f6e0000000000000000000000000000000000815250905090565b606080606061011261016a565b61011a6100c8565b61012261012d565b925092509250909192565b60606040518060400160405280600e81526020017f54686972642046756e6374696f6e000000000000000000000000000000000000815250905090565b60606040518060400160405280600e81526020017f46697273742046756e6374696f6e000000000000000000000000000000000000815250905090565b5f81519050919050565b5f82825260208201905092915050565b8281835e5f83830152505050565b5f601f19601f8301169050919050565b5f6101e9826101a7565b6101f381856101b1565b93506102038185602086016101c1565b61020c816101cf565b840191505092915050565b5f6020820190508181035f83015261022f81846101df565b905092915050565b5f6060820190508181035f83015261024f81866101df565b9050818103602083015261026381856101df565b9050818103604083015261027781846101df565b905094935050505056fea2646970667358221220006b65aa6e2b66ed3f8fba674033b89297d189c047e6bc4c70d5302123979d3264736f6c634300081e0033",
					"opcodes": "PUSH1 0x80 PUSH1 0x40 MSTORE CALLVALUE DUP1 ISZERO PUSH1 0xE JUMPI PUSH0 PUSH0 REVERT JUMPDEST POP PUSH2 0x2B7 DUP1 PUSH2 0x1C PUSH0 CODECOPY PUSH0 RETURN INVALID PUSH1 0x80 PUSH1 0x40 MSTORE CALLVALUE DUP1 ISZERO PUSH2 0xF JUMPI PUSH0 PUSH0 REVERT JUMPDEST POP PUSH1 0x4 CALLDATASIZE LT PUSH2 0x4A JUMPI PUSH0 CALLDATALOAD PUSH1 0xE0 SHR DUP1 PUSH4 0x3C8B6AA7 EQ PUSH2 0x4E JUMPI DUP1 PUSH4 0x6823A87C EQ PUSH2 0x6C JUMPI DUP1 PUSH4 0x6B3C10D3 EQ PUSH2 0x8C JUMPI DUP1 PUSH4 0xCD71DADB EQ PUSH2 0xAA JUMPI JUMPDEST PUSH0 PUSH0 REVERT JUMPDEST PUSH2 0x56 PUSH2 0xC8 JUMP JUMPDEST PUSH1 0x40 MLOAD PUSH2 0x63 SWAP2 SWAP1 PUSH2 0x217 JUMP JUMPDEST PUSH1 0x40 MLOAD DUP1 SWAP2 SUB SWAP1 RETURN JUMPDEST PUSH2 0x74 PUSH2 0x105 JUMP JUMPDEST PUSH1 0x40 MLOAD PUSH2 0x83 SWAP4 SWAP3 SWAP2 SWAP1 PUSH2 0x237 JUMP JUMPDEST PUSH1 0x40 MLOAD DUP1 SWAP2 SUB SWAP1 RETURN JUMPDEST PUSH2 0x94 PUSH2 0x12D JUMP JUMPDEST PUSH1 0x40 MLOAD PUSH2 0xA1 SWAP2 SWAP1 PUSH2 0x217 JUMP JUMPDEST PUSH1 0x40 MLOAD DUP1 SWAP2 SUB SWAP1 RETURN JUMPDEST PUSH2 0xB2 PUSH2 0x16A JUMP JUMPDEST PUSH1 0x40 MLOAD PUSH2 0xBF SWAP2 SWAP1 PUSH2 0x217 JUMP JUMPDEST PUSH1 0x40 MLOAD DUP1 SWAP2 SUB SWAP1 RETURN JUMPDEST PUSH1 0x60 PUSH1 0x40 MLOAD DUP1 PUSH1 0x40 ADD PUSH1 0x40 MSTORE DUP1 PUSH1 0xF DUP2 MSTORE PUSH1 0x20 ADD PUSH32 0x5365636F6E642046756E6374696F6E0000000000000000000000000000000000 DUP2 MSTORE POP SWAP1 POP SWAP1 JUMP JUMPDEST PUSH1 0x60 DUP1 PUSH1 0x60 PUSH2 0x112 PUSH2 0x16A JUMP JUMPDEST PUSH2 0x11A PUSH2 0xC8 JUMP JUMPDEST PUSH2 0x122 PUSH2 0x12D JUMP JUMPDEST SWAP3 POP SWAP3 POP SWAP3 POP SWAP1 SWAP2 SWAP3 JUMP JUMPDEST PUSH1 0x60 PUSH1 0x40 MLOAD DUP1 PUSH1 0x40 ADD PUSH1 0x40 MSTORE DUP1 PUSH1 0xE DUP2 MSTORE PUSH1 0x20 ADD PUSH32 0x54686972642046756E6374696F6E000000000000000000000000000000000000 DUP2 MSTORE POP SWAP1 POP SWAP1 JUMP JUMPDEST PUSH1 0x60 PUSH1 0x40 MLOAD DUP1 PUSH1 0x40 ADD PUSH1 0x40 MSTORE DUP1 PUSH1 0xE DUP2 MSTORE PUSH1 0x20 ADD PUSH32 0x46697273742046756E6374696F6E000000000000000000000000000000000000 DUP2 MSTORE POP SWAP1 POP SWAP1 JUMP JUMPDEST PUSH0 DUP2 MLOAD SWAP1 POP SWAP2 SWAP1 POP JUMP JUMPDEST PUSH0 DUP3 DUP3 MSTORE PUSH1 0x20 DUP3 ADD SWAP1 POP SWAP3 SWAP2 POP POP JUMP JUMPDEST DUP3 DUP2 DUP4 MCOPY PUSH0 DUP4 DUP4 ADD MSTORE POP POP POP JUMP JUMPDEST PUSH0 PUSH1 0x1F NOT PUSH1 0x1F DUP4 ADD AND SWAP1 POP SWAP2 SWAP1 POP JUMP JUMPDEST PUSH0 PUSH2 0x1E9 DUP3 PUSH2 0x1A7 JUMP JUMPDEST PUSH2 0x1F3 DUP2 DUP6 PUSH2 0x1B1 JUMP JUMPDEST SWAP4 POP PUSH2 0x203 DUP2 DUP6 PUSH1 0x20 DUP7 ADD PUSH2 0x1C1 JUMP JUMPDEST PUSH2 0x20C DUP2 PUSH2 0x1CF JUMP JUMPDEST DUP5 ADD SWAP2 POP POP SWAP3 SWAP2 POP POP JUMP JUMPDEST PUSH0 PUSH1 0x20 DUP3 ADD SWAP1 POP DUP2 DUP2 SUB PUSH0 DUP4 ADD MSTORE PUSH2 0x22F DUP2 DUP5 PUSH2 0x1DF JUMP JUMPDEST SWAP1 POP SWAP3 SWAP2 POP POP JUMP JUMPDEST PUSH0 PUSH1 0x60 DUP3 ADD SWAP1 POP DUP2 DUP2 SUB PUSH0 DUP4 ADD MSTORE PUSH2 0x24F DUP2 DUP7 PUSH2 0x1DF JUMP JUMPDEST SWAP1 POP DUP2 DUP2 SUB PUSH1 0x20 DUP4 ADD MSTORE PUSH2 0x263 DUP2 DUP6 PUSH2 0x1DF JUMP JUMPDEST SWAP1 POP DUP2 DUP2 SUB PUSH1 0x40 DUP4 ADD MSTORE PUSH2 0x277 DUP2 DUP5 PUSH2 0x1DF JUMP JUMPDEST SWAP1 POP SWAP5 SWAP4 POP POP POP POP JUMP INVALID LOG2 PUSH5 0x6970667358 0x22 SLT KECCAK256 STOP PUSH12 0x65AA6E2B66ED3F8FBA674033 0xB8 SWAP3 SWAP8 DATALOADN 0x89C0 SELFBALANCE DUPN 0xBC 0x4C PUSH17 0xD5302123979D3264736F6C634300081E00 CALLER "
				},
				"gasEstimates": {
					"creation": {
						"codeDepositCost": "139000",
						"executionCost": "181",
						"totalCost": "139181"
					},
					"external": {
						"allFunction()": "infinite",
						"firstFunction()": "infinite",
						"secondFunction()": "infinite",
						"thirdFunction()": "infinite"
					}
				},
				"methodIdentifiers": {
					"allFunction()": "6823a87c",
					"firstFunction()": "cd71dadb",
					"secondFunction()": "3c8b6aa7",
					"thirdFunction()": "6b3c10d3"
				}
			},
			"storageLayout": {
				"storage": [],
				"types": null
			},
			"userdoc": {
				"kind": "user",
				"methods": {},
				"version": 1
			}
		}
	}
}