{
	"Contracts/Day 9/Act1.sol": {
		"Caller": {
			"abi": [
				{
					"inputs": [
						{
							"internalType": "address",
							"name": "receiverAddress",
							"type": "address"
						},
						{
							"internalType": "uint256",
							"name": "_num1",
							"type": "uint256"
						},
						{
							"internalType": "uint256",
							"name": "_num2",
							"type": "uint256"
						}
					],
					"name": "callDifference",
					"outputs": [
						{
							"internalType": "uint256",
							"name": "",
							"type": "uint256"
						}
					],
					"stateMutability": "nonpayable",
					"type": "function"
				},
				{
					"inputs": [
						{
							"internalType": "address",
							"name": "receiverAddress",
							"type": "address"
						},
						{
							"internalType": "uint256",
							"name": "_num1",
							"type": "uint256"
						},
						{
							"internalType": "uint256",
							"name": "_num2",
							"type": "uint256"
						}
					],
					"name": "callProduct",
					"outputs": [
						{
							"internalType": "uint256",
							"name": "",
							"type": "uint256"
						}
					],
					"stateMutability": "nonpayable",
					"type": "function"
				},
				{
					"inputs": [
						{
							"internalType": "address",
							"name": "receiverAddress",
							"type": "address"
						},
						{
							"internalType": "uint256",
							"name": "_num1",
							"type": "uint256"
						},
						{
							"internalType": "uint256",
							"name": "_num2",
							"type": "uint256"
						}
					],
					"name": "callQuotient",
					"outputs": [
						{
							"internalType": "uint256",
							"name": "",
							"type": "uint256"
						}
					],
					"stateMutability": "nonpayable",
					"type": "function"
				},
				{
					"inputs": [
						{
							"internalType": "address",
							"name": "receiverAddress",
							"type": "address"
						},
						{
							"internalType": "uint256",
							"name": "_num1",
							"type": "uint256"
						},
						{
							"internalType": "uint256",
							"name": "_num2",
							"type": "uint256"
						}
					],
					"name": "callSum",
					"outputs": [
						{
							"internalType": "uint256",
							"name": "",
							"type": "uint256"
						}
					],
					"stateMutability": "nonpayable",
					"type": "function"
				}
			],
			"devdoc": {
				"kind": "dev",
				"methods": {},
				"version": 1
			},
			"evm": {
				"assembly": "    /* \"Contracts/Day 9/Act1.sol\":1239:1942  contract Caller {... */\n  mstore(0x40, 0x80)\n  callvalue\n  dup1\n  iszero\n  tag_1\n  jumpi\n  revert(0x00, 0x00)\ntag_1:\n  pop\n  dataSize(sub_0)\n  dup1\n  dataOffset(sub_0)\n  0x00\n  codecopy\n  0x00\n  return\nstop\n\nsub_0: assembly {\n        /* \"Contracts/Day 9/Act1.sol\":1239:1942  contract Caller {... */\n      mstore(0x40, 0x80)\n      callvalue\n      dup1\n      iszero\n      tag_1\n      jumpi\n      revert(0x00, 0x00)\n    tag_1:\n      pop\n      jumpi(tag_2, lt(calldatasize, 0x04))\n      shr(0xe0, calldataload(0x00))\n      dup1\n      0x067f4b0e\n      eq\n      tag_3\n      jumpi\n      dup1\n      0x0925a5b6\n      eq\n      tag_4\n      jumpi\n      dup1\n      0x1938fde6\n      eq\n      tag_5\n      jumpi\n      dup1\n      0xa2a3c586\n      eq\n      tag_6\n      jumpi\n    tag_2:\n      revert(0x00, 0x00)\n        /* \"Contracts/Day 9/Act1.sol\":1429:1595  function callDifference(address receiverAddress, uint _num1, uint _num2) external returns(uint) {... */\n    tag_3:\n      tag_7\n      0x04\n      dup1\n      calldatasize\n      sub\n      dup2\n      add\n      swap1\n      tag_8\n      swap2\n      swap1\n      tag_9\n      jump\t// in\n    tag_8:\n      tag_10\n      jump\t// in\n    tag_7:\n      mload(0x40)\n      tag_11\n      swap2\n      swap1\n      tag_12\n      jump\t// in\n    tag_11:\n      mload(0x40)\n      dup1\n      swap2\n      sub\n      swap1\n      return\n        /* \"Contracts/Day 9/Act1.sol\":1603:1767  function callProduct(address receiverAddress, uint _num1, uint _num2) external returns(uint) {... */\n    tag_4:\n      tag_13\n      0x04\n      dup1\n      calldatasize\n      sub\n      dup2\n      add\n      swap1\n      tag_14\n      swap2\n      swap1\n      tag_9\n      jump\t// in\n    tag_14:\n      tag_15\n      jump\t// in\n    tag_13:\n      mload(0x40)\n      tag_16\n      swap2\n      swap1\n      tag_12\n      jump\t// in\n    tag_16:\n      mload(0x40)\n      dup1\n      swap2\n      sub\n      swap1\n      return\n        /* \"Contracts/Day 9/Act1.sol\":1262:1421  function callSum(address receiverAddress, uint _num1, uint _num2) external returns(uint) {... */\n    tag_5:\n      tag_17\n      0x04\n      dup1\n      calldatasize\n      sub\n      dup2\n      add\n      swap1\n      tag_18\n      swap2\n      swap1\n      tag_9\n      jump\t// in\n    tag_18:\n      tag_19\n      jump\t// in\n    tag_17:\n      mload(0x40)\n      tag_20\n      swap2\n      swap1\n      tag_12\n      jump\t// in\n    tag_20:\n      mload(0x40)\n      dup1\n      swap2\n      sub\n      swap1\n      return\n        /* \"Contracts/Day 9/Act1.sol\":1775:1939  function callQuotient(address receiverAddress, uint _num1, uint _num2) external returns(uint) {... */\n    tag_6:\n      tag_21\n      0x04\n      dup1\n      calldatasize\n      sub\n      dup2\n      add\n      swap1\n      tag_22\n      swap2\n      swap1\n      tag_9\n      jump\t// in\n    tag_22:\n      tag_23\n      jump\t// in\n    tag_21:\n      mload(0x40)\n      tag_24\n      swap2\n      swap1\n      tag_12\n      jump\t// in\n    tag_24:\n      mload(0x40)\n      dup1\n      swap2\n      sub\n      swap1\n      return\n        /* \"Contracts/Day 9/Act1.sol\":1429:1595  function callDifference(address receiverAddress, uint _num1, uint _num2) external returns(uint) {... */\n    tag_10:\n        /* \"Contracts/Day 9/Act1.sol\":1519:1523  uint */\n      0x00\n        /* \"Contracts/Day 9/Act1.sol\":1553:1568  receiverAddress */\n      dup4\n        /* \"Contracts/Day 9/Act1.sol\":1543:1573  IReceiver(receiverAddress).Dif */\n      0xffffffffffffffffffffffffffffffffffffffff\n      and\n      0x371158ed\n        /* \"Contracts/Day 9/Act1.sol\":1574:1579  _num1 */\n      dup5\n        /* \"Contracts/Day 9/Act1.sol\":1581:1586  _num2 */\n      dup5\n        /* \"Contracts/Day 9/Act1.sol\":1543:1587  IReceiver(receiverAddress).Dif(_num1, _num2) */\n      mload(0x40)\n      dup4\n      0xffffffff\n      and\n      0xe0\n      shl\n      dup2\n      mstore\n      0x04\n      add\n      tag_26\n      swap3\n      swap2\n      swap1\n      tag_27\n      jump\t// in\n    tag_26:\n      0x20\n      mload(0x40)\n      dup1\n      dup4\n      sub\n      dup2\n      0x00\n      dup8\n      gas\n      call\n      iszero\n      dup1\n      iszero\n      tag_29\n      jumpi\n      returndatacopy(0x00, 0x00, returndatasize)\n      revert(0x00, returndatasize)\n    tag_29:\n      pop\n      pop\n      pop\n      pop\n      mload(0x40)\n      returndatasize\n      not(0x1f)\n      0x1f\n      dup3\n      add\n      and\n      dup3\n      add\n      dup1\n      0x40\n      mstore\n      pop\n      dup2\n      add\n      swap1\n      tag_30\n      swap2\n      swap1\n      tag_31\n      jump\t// in\n    tag_30:\n        /* \"Contracts/Day 9/Act1.sol\":1536:1587  return IReceiver(receiverAddress).Dif(_num1, _num2) */\n      swap1\n      pop\n        /* \"Contracts/Day 9/Act1.sol\":1429:1595  function callDifference(address receiverAddress, uint _num1, uint _num2) external returns(uint) {... */\n      swap4\n      swap3\n      pop\n      pop\n      pop\n      jump\t// out\n        /* \"Contracts/Day 9/Act1.sol\":1603:1767  function callProduct(address receiverAddress, uint _num1, uint _num2) external returns(uint) {... */\n    tag_15:\n        /* \"Contracts/Day 9/Act1.sol\":1690:1694  uint */\n      0x00\n        /* \"Contracts/Day 9/Act1.sol\":1724:1739  receiverAddress */\n      dup4\n        /* \"Contracts/Day 9/Act1.sol\":1714:1745  IReceiver(receiverAddress).Prod */\n      0xffffffffffffffffffffffffffffffffffffffff\n      and\n      0x6cb7d69d\n        /* \"Contracts/Day 9/Act1.sol\":1746:1751  _num1 */\n      dup5\n        /* \"Contracts/Day 9/Act1.sol\":1753:1758  _num2 */\n      dup5\n        /* \"Contracts/Day 9/Act1.sol\":1714:1759  IReceiver(receiverAddress).Prod(_num1, _num2) */\n      mload(0x40)\n      dup4\n      0xffffffff\n      and\n      0xe0\n      shl\n      dup2\n      mstore\n      0x04\n      add\n      tag_33\n      swap3\n      swap2\n      swap1\n      tag_27\n      jump\t// in\n    tag_33:\n      0x20\n      mload(0x40)\n      dup1\n      dup4\n      sub\n      dup2\n      0x00\n      dup8\n      gas\n      call\n      iszero\n      dup1\n      iszero\n      tag_35\n      jumpi\n      returndatacopy(0x00, 0x00, returndatasize)\n      revert(0x00, returndatasize)\n    tag_35:\n      pop\n      pop\n      pop\n      pop\n      mload(0x40)\n      returndatasize\n      not(0x1f)\n      0x1f\n      dup3\n      add\n      and\n      dup3\n      add\n      dup1\n      0x40\n      mstore\n      pop\n      dup2\n      add\n      swap1\n      tag_36\n      swap2\n      swap1\n      tag_31\n      jump\t// in\n    tag_36:\n        /* \"Contracts/Day 9/Act1.sol\":1707:1759  return IReceiver(receiverAddress).Prod(_num1, _num2) */\n      swap1\n      pop\n        /* \"Contracts/Day 9/Act1.sol\":1603:1767  function callProduct(address receiverAddress, uint _num1, uint _num2) external returns(uint) {... */\n      swap4\n      swap3\n      pop\n      pop\n      pop\n      jump\t// out\n        /* \"Contracts/Day 9/Act1.sol\":1262:1421  function callSum(address receiverAddress, uint _num1, uint _num2) external returns(uint) {... */\n    tag_19:\n        /* \"Contracts/Day 9/Act1.sol\":1345:1349  uint */\n      0x00\n        /* \"Contracts/Day 9/Act1.sol\":1379:1394  receiverAddress */\n      dup4\n        /* \"Contracts/Day 9/Act1.sol\":1369:1399  IReceiver(receiverAddress).Sum */\n      0xffffffffffffffffffffffffffffffffffffffff\n      and\n      0x17ef4e4b\n        /* \"Contracts/Day 9/Act1.sol\":1400:1405  _num1 */\n      dup5\n        /* \"Contracts/Day 9/Act1.sol\":1407:1412  _num2 */\n      dup5\n        /* \"Contracts/Day 9/Act1.sol\":1369:1413  IReceiver(receiverAddress).Sum(_num1, _num2) */\n      mload(0x40)\n      dup4\n      0xffffffff\n      and\n      0xe0\n      shl\n      dup2\n      mstore\n      0x04\n      add\n      tag_38\n      swap3\n      swap2\n      swap1\n      tag_27\n      jump\t// in\n    tag_38:\n      0x20\n      mload(0x40)\n      dup1\n      dup4\n      sub\n      dup2\n      0x00\n      dup8\n      gas\n      call\n      iszero\n      dup1\n      iszero\n      tag_40\n      jumpi\n      returndatacopy(0x00, 0x00, returndatasize)\n      revert(0x00, returndatasize)\n    tag_40:\n      pop\n      pop\n      pop\n      pop\n      mload(0x40)\n      returndatasize\n      not(0x1f)\n      0x1f\n      dup3\n      add\n      and\n      dup3\n      add\n      dup1\n      0x40\n      mstore\n      pop\n      dup2\n      add\n      swap1\n      tag_41\n      swap2\n      swap1\n      tag_31\n      jump\t// in\n    tag_41:\n        /* \"Contracts/Day 9/Act1.sol\":1362:1413  return IReceiver(receiverAddress).Sum(_num1, _num2) */\n      swap1\n      pop\n        /* \"Contracts/Day 9/Act1.sol\":1262:1421  function callSum(address receiverAddress, uint _num1, uint _num2) external returns(uint) {... */\n      swap4\n      swap3\n      pop\n      pop\n      pop\n      jump\t// out\n        /* \"Contracts/Day 9/Act1.sol\":1775:1939  function callQuotient(address receiverAddress, uint _num1, uint _num2) external returns(uint) {... */\n    tag_23:\n        /* \"Contracts/Day 9/Act1.sol\":1863:1867  uint */\n      0x00\n        /* \"Contracts/Day 9/Act1.sol\":1897:1912  receiverAddress */\n      dup4\n        /* \"Contracts/Day 9/Act1.sol\":1887:1917  IReceiver(receiverAddress).Quo */\n      0xffffffffffffffffffffffffffffffffffffffff\n      and\n      0xea52c848\n        /* \"Contracts/Day 9/Act1.sol\":1918:1923  _num1 */\n      dup5\n        /* \"Contracts/Day 9/Act1.sol\":1925:1930  _num2 */\n      dup5\n        /* \"Contracts/Day 9/Act1.sol\":1887:1931  IReceiver(receiverAddress).Quo(_num1, _num2) */\n      mload(0x40)\n      dup4\n      0xffffffff\n      and\n      0xe0\n      shl\n      dup2\n      mstore\n      0x04\n      add\n      tag_43\n      swap3\n      swap2\n      swap1\n      tag_27\n      jump\t// in\n    tag_43:\n      0x20\n      mload(0x40)\n      dup1\n      dup4\n      sub\n      dup2\n      0x00\n      dup8\n      gas\n      call\n      iszero\n      dup1\n      iszero\n      tag_45\n      jumpi\n      returndatacopy(0x00, 0x00, returndatasize)\n      revert(0x00, returndatasize)\n    tag_45:\n      pop\n      pop\n      pop\n      pop\n      mload(0x40)\n      returndatasize\n      not(0x1f)\n      0x1f\n      dup3\n      add\n      and\n      dup3\n      add\n      dup1\n      0x40\n      mstore\n      pop\n      dup2\n      add\n      swap1\n      tag_46\n      swap2\n      swap1\n      tag_31\n      jump\t// in\n    tag_46:\n        /* \"Contracts/Day 9/Act1.sol\":1880:1931  return IReceiver(receiverAddress).Quo(_num1, _num2) */\n      swap1\n      pop\n        /* \"Contracts/Day 9/Act1.sol\":1775:1939  function callQuotient(address receiverAddress, uint _num1, uint _num2) external returns(uint) {... */\n      swap4\n      swap3\n      pop\n      pop\n      pop\n      jump\t// out\n        /* \"#utility.yul\":88:205   */\n    tag_48:\n        /* \"#utility.yul\":197:198   */\n      0x00\n        /* \"#utility.yul\":194:195   */\n      0x00\n        /* \"#utility.yul\":187:199   */\n      revert\n        /* \"#utility.yul\":334:460   */\n    tag_50:\n        /* \"#utility.yul\":371:378   */\n      0x00\n        /* \"#utility.yul\":411:453   */\n      0xffffffffffffffffffffffffffffffffffffffff\n        /* \"#utility.yul\":404:409   */\n      dup3\n        /* \"#utility.yul\":400:454   */\n      and\n        /* \"#utility.yul\":389:454   */\n      swap1\n      pop\n        /* \"#utility.yul\":334:460   */\n      swap2\n      swap1\n      pop\n      jump\t// out\n        /* \"#utility.yul\":466:562   */\n    tag_51:\n        /* \"#utility.yul\":503:510   */\n      0x00\n        /* \"#utility.yul\":532:556   */\n      tag_65\n        /* \"#utility.yul\":550:555   */\n      dup3\n        /* \"#utility.yul\":532:556   */\n      tag_50\n      jump\t// in\n    tag_65:\n        /* \"#utility.yul\":521:556   */\n      swap1\n      pop\n        /* \"#utility.yul\":466:562   */\n      swap2\n      swap1\n      pop\n      jump\t// out\n        /* \"#utility.yul\":568:690   */\n    tag_52:\n        /* \"#utility.yul\":641:665   */\n      tag_67\n        /* \"#utility.yul\":659:664   */\n      dup2\n        /* \"#utility.yul\":641:665   */\n      tag_51\n      jump\t// in\n    tag_67:\n        /* \"#utility.yul\":634:639   */\n      dup2\n        /* \"#utility.yul\":631:666   */\n      eq\n        /* \"#utility.yul\":621:684   */\n      tag_68\n      jumpi\n        /* \"#utility.yul\":680:681   */\n      0x00\n        /* \"#utility.yul\":677:678   */\n      0x00\n        /* \"#utility.yul\":670:682   */\n      revert\n        /* \"#utility.yul\":621:684   */\n    tag_68:\n        /* \"#utility.yul\":568:690   */\n      pop\n      jump\t// out\n        /* \"#utility.yul\":696:835   */\n    tag_53:\n        /* \"#utility.yul\":742:747   */\n      0x00\n        /* \"#utility.yul\":780:786   */\n      dup2\n        /* \"#utility.yul\":767:787   */\n      calldataload\n        /* \"#utility.yul\":758:787   */\n      swap1\n      pop\n        /* \"#utility.yul\":796:829   */\n      tag_70\n        /* \"#utility.yul\":823:828   */\n      dup2\n        /* \"#utility.yul\":796:829   */\n      tag_52\n      jump\t// in\n    tag_70:\n        /* \"#utility.yul\":696:835   */\n      swap3\n      swap2\n      pop\n      pop\n      jump\t// out\n        /* \"#utility.yul\":841:918   */\n    tag_54:\n        /* \"#utility.yul\":878:885   */\n      0x00\n        /* \"#utility.yul\":907:912   */\n      dup2\n        /* \"#utility.yul\":896:912   */\n      swap1\n      pop\n        /* \"#utility.yul\":841:918   */\n      swap2\n      swap1\n      pop\n      jump\t// out\n        /* \"#utility.yul\":924:1046   */\n    tag_55:\n        /* \"#utility.yul\":997:1021   */\n      tag_73\n        /* \"#utility.yul\":1015:1020   */\n      dup2\n        /* \"#utility.yul\":997:1021   */\n      tag_54\n      jump\t// in\n    tag_73:\n        /* \"#utility.yul\":990:995   */\n      dup2\n        /* \"#utility.yul\":987:1022   */\n      eq\n        /* \"#utility.yul\":977:1040   */\n      tag_74\n      jumpi\n        /* \"#utility.yul\":1036:1037   */\n      0x00\n        /* \"#utility.yul\":1033:1034   */\n      0x00\n        /* \"#utility.yul\":1026:1038   */\n      revert\n        /* \"#utility.yul\":977:1040   */\n    tag_74:\n        /* \"#utility.yul\":924:1046   */\n      pop\n      jump\t// out\n        /* \"#utility.yul\":1052:1191   */\n    tag_56:\n        /* \"#utility.yul\":1098:1103   */\n      0x00\n        /* \"#utility.yul\":1136:1142   */\n      dup2\n        /* \"#utility.yul\":1123:1143   */\n      calldataload\n        /* \"#utility.yul\":1114:1143   */\n      swap1\n      pop\n        /* \"#utility.yul\":1152:1185   */\n      tag_76\n        /* \"#utility.yul\":1179:1184   */\n      dup2\n        /* \"#utility.yul\":1152:1185   */\n      tag_55\n      jump\t// in\n    tag_76:\n        /* \"#utility.yul\":1052:1191   */\n      swap3\n      swap2\n      pop\n      pop\n      jump\t// out\n        /* \"#utility.yul\":1197:1816   */\n    tag_9:\n        /* \"#utility.yul\":1274:1280   */\n      0x00\n        /* \"#utility.yul\":1282:1288   */\n      0x00\n        /* \"#utility.yul\":1290:1296   */\n      0x00\n        /* \"#utility.yul\":1339:1341   */\n      0x60\n        /* \"#utility.yul\":1327:1336   */\n      dup5\n        /* \"#utility.yul\":1318:1325   */\n      dup7\n        /* \"#utility.yul\":1314:1337   */\n      sub\n        /* \"#utility.yul\":1310:1342   */\n      slt\n        /* \"#utility.yul\":1307:1426   */\n      iszero\n      tag_78\n      jumpi\n        /* \"#utility.yul\":1345:1424   */\n      tag_79\n      tag_48\n      jump\t// in\n    tag_79:\n        /* \"#utility.yul\":1307:1426   */\n    tag_78:\n        /* \"#utility.yul\":1465:1466   */\n      0x00\n        /* \"#utility.yul\":1490:1543   */\n      tag_80\n        /* \"#utility.yul\":1535:1542   */\n      dup7\n        /* \"#utility.yul\":1526:1532   */\n      dup3\n        /* \"#utility.yul\":1515:1524   */\n      dup8\n        /* \"#utility.yul\":1511:1533   */\n      add\n        /* \"#utility.yul\":1490:1543   */\n      tag_53\n      jump\t// in\n    tag_80:\n        /* \"#utility.yul\":1480:1543   */\n      swap4\n      pop\n        /* \"#utility.yul\":1436:1553   */\n      pop\n        /* \"#utility.yul\":1592:1594   */\n      0x20\n        /* \"#utility.yul\":1618:1671   */\n      tag_81\n        /* \"#utility.yul\":1663:1670   */\n      dup7\n        /* \"#utility.yul\":1654:1660   */\n      dup3\n        /* \"#utility.yul\":1643:1652   */\n      dup8\n        /* \"#utility.yul\":1639:1661   */\n      add\n        /* \"#utility.yul\":1618:1671   */\n      tag_56\n      jump\t// in\n    tag_81:\n        /* \"#utility.yul\":1608:1671   */\n      swap3\n      pop\n        /* \"#utility.yul\":1563:1681   */\n      pop\n        /* \"#utility.yul\":1720:1722   */\n      0x40\n        /* \"#utility.yul\":1746:1799   */\n      tag_82\n        /* \"#utility.yul\":1791:1798   */\n      dup7\n        /* \"#utility.yul\":1782:1788   */\n      dup3\n        /* \"#utility.yul\":1771:1780   */\n      dup8\n        /* \"#utility.yul\":1767:1789   */\n      add\n        /* \"#utility.yul\":1746:1799   */\n      tag_56\n      jump\t// in\n    tag_82:\n        /* \"#utility.yul\":1736:1799   */\n      swap2\n      pop\n        /* \"#utility.yul\":1691:1809   */\n      pop\n        /* \"#utility.yul\":1197:1816   */\n      swap3\n      pop\n      swap3\n      pop\n      swap3\n      jump\t// out\n        /* \"#utility.yul\":1822:1940   */\n    tag_57:\n        /* \"#utility.yul\":1909:1933   */\n      tag_84\n        /* \"#utility.yul\":1927:1932   */\n      dup2\n        /* \"#utility.yul\":1909:1933   */\n      tag_54\n      jump\t// in\n    tag_84:\n        /* \"#utility.yul\":1904:1907   */\n      dup3\n        /* \"#utility.yul\":1897:1934   */\n      mstore\n        /* \"#utility.yul\":1822:1940   */\n      pop\n      pop\n      jump\t// out\n        /* \"#utility.yul\":1946:2168   */\n    tag_12:\n        /* \"#utility.yul\":2039:2043   */\n      0x00\n        /* \"#utility.yul\":2077:2079   */\n      0x20\n        /* \"#utility.yul\":2066:2075   */\n      dup3\n        /* \"#utility.yul\":2062:2080   */\n      add\n        /* \"#utility.yul\":2054:2080   */\n      swap1\n      pop\n        /* \"#utility.yul\":2090:2161   */\n      tag_86\n        /* \"#utility.yul\":2158:2159   */\n      0x00\n        /* \"#utility.yul\":2147:2156   */\n      dup4\n        /* \"#utility.yul\":2143:2160   */\n      add\n        /* \"#utility.yul\":2134:2140   */\n      dup5\n        /* \"#utility.yul\":2090:2161   */\n      tag_57\n      jump\t// in\n    tag_86:\n        /* \"#utility.yul\":1946:2168   */\n      swap3\n      swap2\n      pop\n      pop\n      jump\t// out\n        /* \"#utility.yul\":2174:2506   */\n    tag_27:\n        /* \"#utility.yul\":2295:2299   */\n      0x00\n        /* \"#utility.yul\":2333:2335   */\n      0x40\n        /* \"#utility.yul\":2322:2331   */\n      dup3\n        /* \"#utility.yul\":2318:2336   */\n      add\n        /* \"#utility.yul\":2310:2336   */\n      swap1\n      pop\n        /* \"#utility.yul\":2346:2417   */\n      tag_88\n        /* \"#utility.yul\":2414:2415   */\n      0x00\n        /* \"#utility.yul\":2403:2412   */\n      dup4\n        /* \"#utility.yul\":2399:2416   */\n      add\n        /* \"#utility.yul\":2390:2396   */\n      dup6\n        /* \"#utility.yul\":2346:2417   */\n      tag_57\n      jump\t// in\n    tag_88:\n        /* \"#utility.yul\":2427:2499   */\n      tag_89\n        /* \"#utility.yul\":2495:2497   */\n      0x20\n        /* \"#utility.yul\":2484:2493   */\n      dup4\n        /* \"#utility.yul\":2480:2498   */\n      add\n        /* \"#utility.yul\":2471:2477   */\n      dup5\n        /* \"#utility.yul\":2427:2499   */\n      tag_57\n      jump\t// in\n    tag_89:\n        /* \"#utility.yul\":2174:2506   */\n      swap4\n      swap3\n      pop\n      pop\n      pop\n      jump\t// out\n        /* \"#utility.yul\":2512:2655   */\n    tag_58:\n        /* \"#utility.yul\":2569:2574   */\n      0x00\n        /* \"#utility.yul\":2600:2606   */\n      dup2\n        /* \"#utility.yul\":2594:2607   */\n      mload\n        /* \"#utility.yul\":2585:2607   */\n      swap1\n      pop\n        /* \"#utility.yul\":2616:2649   */\n      tag_91\n        /* \"#utility.yul\":2643:2648   */\n      dup2\n        /* \"#utility.yul\":2616:2649   */\n      tag_55\n      jump\t// in\n    tag_91:\n        /* \"#utility.yul\":2512:2655   */\n      swap3\n      swap2\n      pop\n      pop\n      jump\t// out\n        /* \"#utility.yul\":2661:3012   */\n    tag_31:\n        /* \"#utility.yul\":2731:2737   */\n      0x00\n        /* \"#utility.yul\":2780:2782   */\n      0x20\n        /* \"#utility.yul\":2768:2777   */\n      dup3\n        /* \"#utility.yul\":2759:2766   */\n      dup5\n        /* \"#utility.yul\":2755:2778   */\n      sub\n        /* \"#utility.yul\":2751:2783   */\n      slt\n        /* \"#utility.yul\":2748:2867   */\n      iszero\n      tag_93\n      jumpi\n        /* \"#utility.yul\":2786:2865   */\n      tag_94\n      tag_48\n      jump\t// in\n    tag_94:\n        /* \"#utility.yul\":2748:2867   */\n    tag_93:\n        /* \"#utility.yul\":2906:2907   */\n      0x00\n        /* \"#utility.yul\":2931:2995   */\n      tag_95\n        /* \"#utility.yul\":2987:2994   */\n      dup5\n        /* \"#utility.yul\":2978:2984   */\n      dup3\n        /* \"#utility.yul\":2967:2976   */\n      dup6\n        /* \"#utility.yul\":2963:2985   */\n      add\n        /* \"#utility.yul\":2931:2995   */\n      tag_58\n      jump\t// in\n    tag_95:\n        /* \"#utility.yul\":2921:2995   */\n      swap2\n      pop\n        /* \"#utility.yul\":2877:3005   */\n      pop\n        /* \"#utility.yul\":2661:3012   */\n      swap3\n      swap2\n      pop\n      pop\n      jump\t// out\n\n    auxdata: 0xa2646970667358221220d694814a69f47e3ac6d18c27db98fca96de0222ea9cfc963d251c9854ec32c8564736f6c634300081e0033\n}\n",
				"bytecode": {
					"linkReferences": {},
					"object": "6080604052348015600e575f5ffd5b506104c78061001c5f395ff3fe608060405234801561000f575f5ffd5b506004361061004a575f3560e01c8063067f4b0e1461004e5780630925a5b61461007e5780631938fde6146100ae578063a2a3c586146100de575b5f5ffd5b610068600480360381019061006391906103b3565b61010e565b6040516100759190610412565b60405180910390f35b610098600480360381019061009391906103b3565b610193565b6040516100a59190610412565b60405180910390f35b6100c860048036038101906100c391906103b3565b610218565b6040516100d59190610412565b60405180910390f35b6100f860048036038101906100f391906103b3565b61029d565b6040516101059190610412565b60405180910390f35b5f8373ffffffffffffffffffffffffffffffffffffffff1663371158ed84846040518363ffffffff1660e01b815260040161014a92919061042b565b6020604051808303815f875af1158015610166573d5f5f3e3d5ffd5b505050506040513d601f19601f8201168201806040525081019061018a9190610466565b90509392505050565b5f8373ffffffffffffffffffffffffffffffffffffffff16636cb7d69d84846040518363ffffffff1660e01b81526004016101cf92919061042b565b6020604051808303815f875af11580156101eb573d5f5f3e3d5ffd5b505050506040513d601f19601f8201168201806040525081019061020f9190610466565b90509392505050565b5f8373ffffffffffffffffffffffffffffffffffffffff166317ef4e4b84846040518363ffffffff1660e01b815260040161025492919061042b565b6020604051808303815f875af1158015610270573d5f5f3e3d5ffd5b505050506040513d601f19601f820116820180604052508101906102949190610466565b90509392505050565b5f8373ffffffffffffffffffffffffffffffffffffffff1663ea52c84884846040518363ffffffff1660e01b81526004016102d992919061042b565b6020604051808303815f875af11580156102f5573d5f5f3e3d5ffd5b505050506040513d601f19601f820116820180604052508101906103199190610466565b90509392505050565b5f5ffd5b5f73ffffffffffffffffffffffffffffffffffffffff82169050919050565b5f61034f82610326565b9050919050565b61035f81610345565b8114610369575f5ffd5b50565b5f8135905061037a81610356565b92915050565b5f819050919050565b61039281610380565b811461039c575f5ffd5b50565b5f813590506103ad81610389565b92915050565b5f5f5f606084860312156103ca576103c9610322565b5b5f6103d78682870161036c565b93505060206103e88682870161039f565b92505060406103f98682870161039f565b9150509250925092565b61040c81610380565b82525050565b5f6020820190506104255f830184610403565b92915050565b5f60408201905061043e5f830185610403565b61044b6020830184610403565b9392505050565b5f8151905061046081610389565b92915050565b5f6020828403121561047b5761047a610322565b5b5f61048884828501610452565b9150509291505056fea2646970667358221220d694814a69f47e3ac6d18c27db98fca96de0222ea9cfc963d251c9854ec32c8564736f6c634300081e0033",
					"opcodes": "PUSH1 0x80 PUSH1 0x40 MSTORE CALLVALUE DUP1 ISZERO PUSH1 0xE JUMPI PUSH0 PUSH0 REVERT JUMPDEST POP PUSH2 0x4C7 DUP1 PUSH2 0x1C PUSH0 CODECOPY PUSH0 RETURN INVALID PUSH1 0x80 PUSH1 0x40 MSTORE CALLVALUE DUP1 ISZERO PUSH2 0xF JUMPI PUSH0 PUSH0 REVERT JUMPDEST POP PUSH1 0x4 CALLDATASIZE LT PUSH2 0x4A JUMPI PUSH0 CALLDATALOAD PUSH1 0xE0 SHR DUP1 PUSH4 0x67F4B0E EQ PUSH2 0x4E JUMPI DUP1 PUSH4 0x925A5B6 EQ PUSH2 0x7E JUMPI DUP1 PUSH4 0x1938FDE6 EQ PUSH2 0xAE JUMPI DUP1 PUSH4 0xA2A3C586 EQ PUSH2 0xDE JUMPI JUMPDEST PUSH0 PUSH0 REVERT JUMPDEST PUSH2 0x68 PUSH1 0x4 DUP1 CALLDATASIZE SUB DUP2 ADD SWAP1 PUSH2 0x63 SWAP2 SWAP1 PUSH2 0x3B3 JUMP JUMPDEST PUSH2 0x10E JUMP JUMPDEST PUSH1 0x40 MLOAD PUSH2 0x75 SWAP2 SWAP1 PUSH2 0x412 JUMP JUMPDEST PUSH1 0x40 MLOAD DUP1 SWAP2 SUB SWAP1 RETURN JUMPDEST PUSH2 0x98 PUSH1 0x4 DUP1 CALLDATASIZE SUB DUP2 ADD SWAP1 PUSH2 0x93 SWAP2 SWAP1 PUSH2 0x3B3 JUMP JUMPDEST PUSH2 0x193 JUMP JUMPDEST PUSH1 0x40 MLOAD PUSH2 0xA5 SWAP2 SWAP1 PUSH2 0x412 JUMP JUMPDEST PUSH1 0x40 MLOAD DUP1 SWAP2 SUB SWAP1 RETURN JUMPDEST PUSH2 0xC8 PUSH1 0x4 DUP1 CALLDATASIZE SUB DUP2 ADD SWAP1 PUSH2 0xC3 SWAP2 SWAP1 PUSH2 0x3B3 JUMP JUMPDEST PUSH2 0x218 JUMP JUMPDEST PUSH1 0x40 MLOAD PUSH2 0xD5 SWAP2 SWAP1 PUSH2 0x412 JUMP JUMPDEST PUSH1 0x40 MLOAD DUP1 SWAP2 SUB SWAP1 RETURN JUMPDEST PUSH2 0xF8 PUSH1 0x4 DUP1 CALLDATASIZE SUB DUP2 ADD SWAP1 PUSH2 0xF3 SWAP2 SWAP1 PUSH2 0x3B3 JUMP JUMPDEST PUSH2 0x29D JUMP JUMPDEST PUSH1 0x40 MLOAD PUSH2 0x105 SWAP2 SWAP1 PUSH2 0x412 JUMP JUMPDEST PUSH1 0x40 MLOAD DUP1 SWAP2 SUB SWAP1 RETURN JUMPDEST PUSH0 DUP4 PUSH20 0xFFFFFFFFFFFFFFFFFFFFFFFFFFFFFFFFFFFFFFFF AND PUSH4 0x371158ED DUP5 DUP5 PUSH1 0x40 MLOAD DUP4 PUSH4 0xFFFFFFFF AND PUSH1 0xE0 SHL DUP2 MSTORE PUSH1 0x4 ADD PUSH2 0x14A SWAP3 SWAP2 SWAP1 PUSH2 0x42B JUMP JUMPDEST PUSH1 0x20 PUSH1 0x40 MLOAD DUP1 DUP4 SUB DUP2 PUSH0 DUP8 GAS CALL ISZERO DUP1 ISZERO PUSH2 0x166 JUMPI RETURNDATASIZE PUSH0 PUSH0 RETURNDATACOPY RETURNDATASIZE PUSH0 REVERT JUMPDEST POP POP POP POP PUSH1 0x40 MLOAD RETURNDATASIZE PUSH1 0x1F NOT PUSH1 0x1F DUP3 ADD AND DUP3 ADD DUP1 PUSH1 0x40 MSTORE POP DUP2 ADD SWAP1 PUSH2 0x18A SWAP2 SWAP1 PUSH2 0x466 JUMP JUMPDEST SWAP1 POP SWAP4 SWAP3 POP POP POP JUMP JUMPDEST PUSH0 DUP4 PUSH20 0xFFFFFFFFFFFFFFFFFFFFFFFFFFFFFFFFFFFFFFFF AND PUSH4 0x6CB7D69D DUP5 DUP5 PUSH1 0x40 MLOAD DUP4 PUSH4 0xFFFFFFFF AND PUSH1 0xE0 SHL DUP2 MSTORE PUSH1 0x4 ADD PUSH2 0x1CF SWAP3 SWAP2 SWAP1 PUSH2 0x42B JUMP JUMPDEST PUSH1 0x20 PUSH1 0x40 MLOAD DUP1 DUP4 SUB DUP2 PUSH0 DUP8 GAS CALL ISZERO DUP1 ISZERO PUSH2 0x1EB JUMPI RETURNDATASIZE PUSH0 PUSH0 RETURNDATACOPY RETURNDATASIZE PUSH0 REVERT JUMPDEST POP POP POP POP PUSH1 0x40 MLOAD RETURNDATASIZE PUSH1 0x1F NOT PUSH1 0x1F DUP3 ADD AND DUP3 ADD DUP1 PUSH1 0x40 MSTORE POP DUP2 ADD SWAP1 PUSH2 0x20F SWAP2 SWAP1 PUSH2 0x466 JUMP JUMPDEST SWAP1 POP SWAP4 SWAP3 POP POP POP JUMP JUMPDEST PUSH0 DUP4 PUSH20 0xFFFFFFFFFFFFFFFFFFFFFFFFFFFFFFFFFFFFFFFF AND PUSH4 0x17EF4E4B DUP5 DUP5 PUSH1 0x40 MLOAD DUP4 PUSH4 0xFFFFFFFF AND PUSH1 0xE0 SHL DUP2 MSTORE PUSH1 0x4 ADD PUSH2 0x254 SWAP3 SWAP2 SWAP1 PUSH2 0x42B JUMP JUMPDEST PUSH1 0x20 PUSH1 0x40 MLOAD DUP1 DUP4 SUB DUP2 PUSH0 DUP8 GAS CALL ISZERO DUP1 ISZERO PUSH2 0x270 JUMPI RETURNDATASIZE PUSH0 PUSH0 RETURNDATACOPY RETURNDATASIZE PUSH0 REVERT JUMPDEST POP POP POP POP PUSH1 0x40 MLOAD RETURNDATASIZE PUSH1 0x1F NOT PUSH1 0x1F DUP3 ADD AND DUP3 ADD DUP1 PUSH1 0x40 MSTORE POP DUP2 ADD SWAP1 PUSH2 0x294 SWAP2 SWAP1 PUSH2 0x466 JUMP JUMPDEST SWAP1 POP SWAP4 SWAP3 POP POP POP JUMP JUMPDEST PUSH0 DUP4 PUSH20 0xFFFFFFFFFFFFFFFFFFFFFFFFFFFFFFFFFFFFFFFF AND PUSH4 0xEA52C848 DUP5 DUP5 PUSH1 0x40 MLOAD DUP4 PUSH4 0xFFFFFFFF AND PUSH1 0xE0 SHL DUP2 MSTORE PUSH1 0x4 ADD PUSH2 0x2D9 SWAP3 SWAP2 SWAP1 PUSH2 0x42B JUMP JUMPDEST PUSH1 0x20 PUSH1 0x40 MLOAD DUP1 DUP4 SUB DUP2 PUSH0 DUP8 GAS CALL ISZERO DUP1 ISZERO PUSH2 0x2F5 JUMPI RETURNDATASIZE PUSH0 PUSH0 RETURNDATACOPY RETURNDATASIZE PUSH0 REVERT JUMPDEST POP POP POP POP PUSH1 0x40 MLOAD RETURNDATASIZE PUSH1 0x1F NOT PUSH1 0x1F DUP3 ADD AND DUP3 ADD DUP1 PUSH1 0x40 MSTORE POP DUP2 ADD SWAP1 PUSH2 0x319 SWAP2 SWAP1 PUSH2 0x466 JUMP JUMPDEST SWAP1 POP SWAP4 SWAP3 POP POP POP JUMP JUMPDEST PUSH0 PUSH0 REVERT JUMPDEST PUSH0 PUSH20 0xFFFFFFFFFFFFFFFFFFFFFFFFFFFFFFFFFFFFFFFF DUP3 AND SWAP1 POP SWAP2 SWAP1 POP JUMP JUMPDEST PUSH0 PUSH2 0x34F DUP3 PUSH2 0x326 JUMP JUMPDEST SWAP1 POP SWAP2 SWAP1 POP JUMP JUMPDEST PUSH2 0x35F DUP2 PUSH2 0x345 JUMP JUMPDEST DUP2 EQ PUSH2 0x369 JUMPI PUSH0 PUSH0 REVERT JUMPDEST POP JUMP JUMPDEST PUSH0 DUP2 CALLDATALOAD SWAP1 POP PUSH2 0x37A DUP2 PUSH2 0x356 JUMP JUMPDEST SWAP3 SWAP2 POP POP JUMP JUMPDEST PUSH0 DUP2 SWAP1 POP SWAP2 SWAP1 POP JUMP JUMPDEST PUSH2 0x392 DUP2 PUSH2 0x380 JUMP JUMPDEST DUP2 EQ PUSH2 0x39C JUMPI PUSH0 PUSH0 REVERT JUMPDEST POP JUMP JUMPDEST PUSH0 DUP2 CALLDATALOAD SWAP1 POP PUSH2 0x3AD DUP2 PUSH2 0x389 JUMP JUMPDEST SWAP3 SWAP2 POP POP JUMP JUMPDEST PUSH0 PUSH0 PUSH0 PUSH1 0x60 DUP5 DUP7 SUB SLT ISZERO PUSH2 0x3CA JUMPI PUSH2 0x3C9 PUSH2 0x322 JUMP JUMPDEST JUMPDEST PUSH0 PUSH2 0x3D7 DUP7 DUP3 DUP8 ADD PUSH2 0x36C JUMP JUMPDEST SWAP4 POP POP PUSH1 0x20 PUSH2 0x3E8 DUP7 DUP3 DUP8 ADD PUSH2 0x39F JUMP JUMPDEST SWAP3 POP POP PUSH1 0x40 PUSH2 0x3F9 DUP7 DUP3 DUP8 ADD PUSH2 0x39F JUMP JUMPDEST SWAP2 POP POP SWAP3 POP SWAP3 POP SWAP3 JUMP JUMPDEST PUSH2 0x40C DUP2 PUSH2 0x380 JUMP JUMPDEST DUP3 MSTORE POP POP JUMP JUMPDEST PUSH0 PUSH1 0x20 DUP3 ADD SWAP1 POP PUSH2 0x425 PUSH0 DUP4 ADD DUP5 PUSH2 0x403 JUMP JUMPDEST SWAP3 SWAP2 POP POP JUMP JUMPDEST PUSH0 PUSH1 0x40 DUP3 ADD SWAP1 POP PUSH2 0x43E PUSH0 DUP4 ADD DUP6 PUSH2 0x403 JUMP JUMPDEST PUSH2 0x44B PUSH1 0x20 DUP4 ADD DUP5 PUSH2 0x403 JUMP JUMPDEST SWAP4 SWAP3 POP POP POP JUMP JUMPDEST PUSH0 DUP2 MLOAD SWAP1 POP PUSH2 0x460 DUP2 PUSH2 0x389 JUMP JUMPDEST SWAP3 SWAP2 POP POP JUMP JUMPDEST PUSH0 PUSH1 0x20 DUP3 DUP5 SUB SLT ISZERO PUSH2 0x47B JUMPI PUSH2 0x47A PUSH2 0x322 JUMP JUMPDEST JUMPDEST PUSH0 PUSH2 0x488 DUP5 DUP3 DUP6 ADD PUSH2 0x452 JUMP JUMPDEST SWAP2 POP POP SWAP3 SWAP2 POP POP JUMP INVALID LOG2 PUSH5 0x6970667358 0x22 SLT KECCAK256 0xD6 SWAP5 DUP2 BLOBBASEFEE PUSH10 0xF47E3AC6D18C27DB98FC 0xA9 PUSH14 0xE0222EA9CFC963D251C9854EC32C DUP6 PUSH5 0x736F6C6343 STOP ADDMOD 0x1E STOP CALLER "
				},
				"gasEstimates": {
					"creation": {
						"codeDepositCost": "244600",
						"executionCost": "285",
						"totalCost": "244885"
					},
					"external": {
						"callDifference(address,uint256,uint256)": "infinite",
						"callProduct(address,uint256,uint256)": "infinite",
						"callQuotient(address,uint256,uint256)": "infinite",
						"callSum(address,uint256,uint256)": "infinite"
					}
				},
				"methodIdentifiers": {
					"callDifference(address,uint256,uint256)": "067f4b0e",
					"callProduct(address,uint256,uint256)": "0925a5b6",
					"callQuotient(address,uint256,uint256)": "a2a3c586",
					"callSum(address,uint256,uint256)": "1938fde6"
				}
			},
			"storageLayout": {
				"storage": [],
				"types": null
			},
			"userdoc": {
				"kind": "user",
				"methods": {},
				"version": 1
			}
		}
	}
}