{
	"Contracts/Day 9/Act1.sol": {
		"Receiver": {
			"abi": [
				{
					"inputs": [
						{
							"internalType": "uint256",
							"name": "_num1",
							"type": "uint256"
						},
						{
							"internalType": "uint256",
							"name": "_num2",
							"type": "uint256"
						}
					],
					"name": "Dif",
					"outputs": [
						{
							"internalType": "uint256",
							"name": "",
							"type": "uint256"
						}
					],
					"stateMutability": "nonpayable",
					"type": "function"
				},
				{
					"inputs": [
						{
							"internalType": "uint256",
							"name": "_num1",
							"type": "uint256"
						},
						{
							"internalType": "uint256",
							"name": "_num2",
							"type": "uint256"
						}
					],
					"name": "Prod",
					"outputs": [
						{
							"internalType": "uint256",
							"name": "",
							"type": "uint256"
						}
					],
					"stateMutability": "nonpayable",
					"type": "function"
				},
				{
					"inputs": [
						{
							"internalType": "uint256",
							"name": "_num1",
							"type": "uint256"
						},
						{
							"internalType": "uint256",
							"name": "_num2",
							"type": "uint256"
						}
					],
					"name": "Quo",
					"outputs": [
						{
							"internalType": "uint256",
							"name": "",
							"type": "uint256"
						}
					],
					"stateMutability": "nonpayable",
					"type": "function"
				},
				{
					"inputs": [
						{
							"internalType": "uint256",
							"name": "_num1",
							"type": "uint256"
						},
						{
							"internalType": "uint256",
							"name": "_num2",
							"type": "uint256"
						}
					],
					"name": "Sum",
					"outputs": [
						{
							"internalType": "uint256",
							"name": "",
							"type": "uint256"
						}
					],
					"stateMutability": "nonpayable",
					"type": "function"
				},
				{
					"inputs": [],
					"name": "num1",
					"outputs": [
						{
							"internalType": "uint256",
							"name": "",
							"type": "uint256"
						}
					],
					"stateMutability": "view",
					"type": "function"
				},
				{
					"inputs": [],
					"name": "num2",
					"outputs": [
						{
							"internalType": "uint256",
							"name": "",
							"type": "uint256"
						}
					],
					"stateMutability": "view",
					"type": "function"
				}
			],
			"devdoc": {
				"kind": "dev",
				"methods": {},
				"version": 1
			},
			"evm": {
				"assembly": "    /* \"Contracts/Day 9/Act1.sol\":396:1192  contract Receiver {... */\n  mstore(0x40, 0x80)\n  callvalue\n  dup1\n  iszero\n  tag_1\n  jumpi\n  revert(0x00, 0x00)\ntag_1:\n  pop\n  dataSize(sub_0)\n  dup1\n  dataOffset(sub_0)\n  0x00\n  codecopy\n  0x00\n  return\nstop\n\nsub_0: assembly {\n        /* \"Contracts/Day 9/Act1.sol\":396:1192  contract Receiver {... */\n      mstore(0x40, 0x80)\n      callvalue\n      dup1\n      iszero\n      tag_1\n      jumpi\n      revert(0x00, 0x00)\n    tag_1:\n      pop\n      jumpi(tag_2, lt(calldatasize, 0x04))\n      shr(0xe0, calldataload(0x00))\n      dup1\n      0x15d4266c\n      eq\n      tag_3\n      jumpi\n      dup1\n      0x17ef4e4b\n      eq\n      tag_4\n      jumpi\n      dup1\n      0x371158ed\n      eq\n      tag_5\n      jumpi\n      dup1\n      0x3b9eac4b\n      eq\n      tag_6\n      jumpi\n      dup1\n      0x6cb7d69d\n      eq\n      tag_7\n      jumpi\n      dup1\n      0xea52c848\n      eq\n      tag_8\n      jumpi\n    tag_2:\n      revert(0x00, 0x00)\n        /* \"Contracts/Day 9/Act1.sol\":444:460  uint public num2 */\n    tag_3:\n      tag_9\n      tag_10\n      jump\t// in\n    tag_9:\n      mload(0x40)\n      tag_11\n      swap2\n      swap1\n      tag_12\n      jump\t// in\n    tag_11:\n      mload(0x40)\n      dup1\n      swap2\n      sub\n      swap1\n      return\n        /* \"Contracts/Day 9/Act1.sol\":473:612  function Sum(uint _num1, uint _num2) external returns(uint){... */\n    tag_4:\n      tag_13\n      0x04\n      dup1\n      calldatasize\n      sub\n      dup2\n      add\n      swap1\n      tag_14\n      swap2\n      swap1\n      tag_15\n      jump\t// in\n    tag_14:\n      tag_16\n      jump\t// in\n    tag_13:\n      mload(0x40)\n      tag_17\n      swap2\n      swap1\n      tag_12\n      jump\t// in\n    tag_17:\n      mload(0x40)\n      dup1\n      swap2\n      sub\n      swap1\n      return\n        /* \"Contracts/Day 9/Act1.sol\":618:830  function Dif(uint _num1, uint _num2) external returns(uint){... */\n    tag_5:\n      tag_18\n      0x04\n      dup1\n      calldatasize\n      sub\n      dup2\n      add\n      swap1\n      tag_19\n      swap2\n      swap1\n      tag_15\n      jump\t// in\n    tag_19:\n      tag_20\n      jump\t// in\n    tag_18:\n      mload(0x40)\n      tag_21\n      swap2\n      swap1\n      tag_12\n      jump\t// in\n    tag_21:\n      mload(0x40)\n      dup1\n      swap2\n      sub\n      swap1\n      return\n        /* \"Contracts/Day 9/Act1.sol\":421:437  uint public num1 */\n    tag_6:\n      tag_22\n      tag_23\n      jump\t// in\n    tag_22:\n      mload(0x40)\n      tag_24\n      swap2\n      swap1\n      tag_12\n      jump\t// in\n    tag_24:\n      mload(0x40)\n      dup1\n      swap2\n      sub\n      swap1\n      return\n        /* \"Contracts/Day 9/Act1.sol\":837:978  function Prod(uint _num1, uint _num2) external returns(uint){... */\n    tag_7:\n      tag_25\n      0x04\n      dup1\n      calldatasize\n      sub\n      dup2\n      add\n      swap1\n      tag_26\n      swap2\n      swap1\n      tag_15\n      jump\t// in\n    tag_26:\n      tag_27\n      jump\t// in\n    tag_25:\n      mload(0x40)\n      tag_28\n      swap2\n      swap1\n      tag_12\n      jump\t// in\n    tag_28:\n      mload(0x40)\n      dup1\n      swap2\n      sub\n      swap1\n      return\n        /* \"Contracts/Day 9/Act1.sol\":985:1189  function Quo(uint _num1, uint _num2) external returns(uint){... */\n    tag_8:\n      tag_29\n      0x04\n      dup1\n      calldatasize\n      sub\n      dup2\n      add\n      swap1\n      tag_30\n      swap2\n      swap1\n      tag_15\n      jump\t// in\n    tag_30:\n      tag_31\n      jump\t// in\n    tag_29:\n      mload(0x40)\n      tag_32\n      swap2\n      swap1\n      tag_12\n      jump\t// in\n    tag_32:\n      mload(0x40)\n      dup1\n      swap2\n      sub\n      swap1\n      return\n        /* \"Contracts/Day 9/Act1.sol\":444:460  uint public num2 */\n    tag_10:\n      sload(0x01)\n      dup2\n      jump\t// out\n        /* \"Contracts/Day 9/Act1.sol\":473:612  function Sum(uint _num1, uint _num2) external returns(uint){... */\n    tag_16:\n        /* \"Contracts/Day 9/Act1.sol\":527:531  uint */\n      0x00\n        /* \"Contracts/Day 9/Act1.sol\":550:555  _num1 */\n      dup3\n        /* \"Contracts/Day 9/Act1.sol\":543:547  num1 */\n      0x00\n        /* \"Contracts/Day 9/Act1.sol\":543:555  num1 = _num1 */\n      dup2\n      swap1\n      sstore\n      pop\n        /* \"Contracts/Day 9/Act1.sol\":572:577  _num2 */\n      dup2\n        /* \"Contracts/Day 9/Act1.sol\":566:570  num2 */\n      0x01\n        /* \"Contracts/Day 9/Act1.sol\":566:577  num2= _num2 */\n      dup2\n      swap1\n      sstore\n      pop\n        /* \"Contracts/Day 9/Act1.sol\":600:604  num2 */\n      sload(0x01)\n        /* \"Contracts/Day 9/Act1.sol\":595:599  num1 */\n      sload(0x00)\n        /* \"Contracts/Day 9/Act1.sol\":595:604  num1+num2 */\n      tag_34\n      swap2\n      swap1\n      tag_35\n      jump\t// in\n    tag_34:\n        /* \"Contracts/Day 9/Act1.sol\":588:604  return num1+num2 */\n      swap1\n      pop\n        /* \"Contracts/Day 9/Act1.sol\":473:612  function Sum(uint _num1, uint _num2) external returns(uint){... */\n      swap3\n      swap2\n      pop\n      pop\n      jump\t// out\n        /* \"Contracts/Day 9/Act1.sol\":618:830  function Dif(uint _num1, uint _num2) external returns(uint){... */\n    tag_20:\n        /* \"Contracts/Day 9/Act1.sol\":672:676  uint */\n      0x00\n        /* \"Contracts/Day 9/Act1.sol\":695:700  _num1 */\n      dup3\n        /* \"Contracts/Day 9/Act1.sol\":688:692  num1 */\n      0x00\n        /* \"Contracts/Day 9/Act1.sol\":688:700  num1 = _num1 */\n      dup2\n      swap1\n      sstore\n      pop\n        /* \"Contracts/Day 9/Act1.sol\":716:721  _num2 */\n      dup2\n        /* \"Contracts/Day 9/Act1.sol\":711:715  num2 */\n      0x01\n        /* \"Contracts/Day 9/Act1.sol\":711:721  num2=_num2 */\n      dup2\n      swap1\n      sstore\n      pop\n        /* \"Contracts/Day 9/Act1.sol\":747:751  num1 */\n      sload(0x00)\n        /* \"Contracts/Day 9/Act1.sol\":740:744  num2 */\n      sload(0x01)\n        /* \"Contracts/Day 9/Act1.sol\":740:751  num2 > num1 */\n      gt\n        /* \"Contracts/Day 9/Act1.sol\":736:796  if (num2 > num1) {... */\n      iszero\n      tag_37\n      jumpi\n        /* \"Contracts/Day 9/Act1.sol\":779:780  0 */\n      0x00\n        /* \"Contracts/Day 9/Act1.sol\":772:780  return 0 */\n      swap1\n      pop\n      jump(tag_36)\n        /* \"Contracts/Day 9/Act1.sol\":736:796  if (num2 > num1) {... */\n    tag_37:\n        /* \"Contracts/Day 9/Act1.sol\":818:822  num2 */\n      sload(0x01)\n        /* \"Contracts/Day 9/Act1.sol\":813:817  num1 */\n      sload(0x00)\n        /* \"Contracts/Day 9/Act1.sol\":813:822  num1-num2 */\n      tag_38\n      swap2\n      swap1\n      tag_39\n      jump\t// in\n    tag_38:\n        /* \"Contracts/Day 9/Act1.sol\":806:822  return num1-num2 */\n      swap1\n      pop\n        /* \"Contracts/Day 9/Act1.sol\":618:830  function Dif(uint _num1, uint _num2) external returns(uint){... */\n    tag_36:\n      swap3\n      swap2\n      pop\n      pop\n      jump\t// out\n        /* \"Contracts/Day 9/Act1.sol\":421:437  uint public num1 */\n    tag_23:\n      sload(0x00)\n      dup2\n      jump\t// out\n        /* \"Contracts/Day 9/Act1.sol\":837:978  function Prod(uint _num1, uint _num2) external returns(uint){... */\n    tag_27:\n        /* \"Contracts/Day 9/Act1.sol\":892:896  uint */\n      0x00\n        /* \"Contracts/Day 9/Act1.sol\":915:920  _num1 */\n      dup3\n        /* \"Contracts/Day 9/Act1.sol\":908:912  num1 */\n      0x00\n        /* \"Contracts/Day 9/Act1.sol\":908:920  num1 = _num1 */\n      dup2\n      swap1\n      sstore\n      pop\n        /* \"Contracts/Day 9/Act1.sol\":936:941  _num2 */\n      dup2\n        /* \"Contracts/Day 9/Act1.sol\":931:935  num2 */\n      0x01\n        /* \"Contracts/Day 9/Act1.sol\":931:941  num2=_num2 */\n      dup2\n      swap1\n      sstore\n      pop\n        /* \"Contracts/Day 9/Act1.sol\":965:970  _num2 */\n      dup2\n        /* \"Contracts/Day 9/Act1.sol\":959:964  _num1 */\n      dup4\n        /* \"Contracts/Day 9/Act1.sol\":959:970  _num1*_num2 */\n      tag_41\n      swap2\n      swap1\n      tag_42\n      jump\t// in\n    tag_41:\n        /* \"Contracts/Day 9/Act1.sol\":952:970  return _num1*_num2 */\n      swap1\n      pop\n        /* \"Contracts/Day 9/Act1.sol\":837:978  function Prod(uint _num1, uint _num2) external returns(uint){... */\n      swap3\n      swap2\n      pop\n      pop\n      jump\t// out\n        /* \"Contracts/Day 9/Act1.sol\":985:1189  function Quo(uint _num1, uint _num2) external returns(uint){... */\n    tag_31:\n        /* \"Contracts/Day 9/Act1.sol\":1039:1043  uint */\n      0x00\n        /* \"Contracts/Day 9/Act1.sol\":1062:1067  _num1 */\n      dup3\n        /* \"Contracts/Day 9/Act1.sol\":1055:1059  num1 */\n      0x00\n        /* \"Contracts/Day 9/Act1.sol\":1055:1067  num1 = _num1 */\n      dup2\n      swap1\n      sstore\n      pop\n        /* \"Contracts/Day 9/Act1.sol\":1083:1088  _num2 */\n      dup2\n        /* \"Contracts/Day 9/Act1.sol\":1078:1082  num2 */\n      0x01\n        /* \"Contracts/Day 9/Act1.sol\":1078:1088  num2=_num2 */\n      dup2\n      swap1\n      sstore\n      pop\n        /* \"Contracts/Day 9/Act1.sol\":1115:1116  0 */\n      0x00\n        /* \"Contracts/Day 9/Act1.sol\":1107:1111  num2 */\n      sload(0x01)\n        /* \"Contracts/Day 9/Act1.sol\":1107:1116  num2 != 0 */\n      sub\n        /* \"Contracts/Day 9/Act1.sol\":1099:1152  require(num2 != 0, \"Division by zero is not allowed\") */\n      tag_44\n      jumpi\n      mload(0x40)\n      0x08c379a000000000000000000000000000000000000000000000000000000000\n      dup2\n      mstore\n      0x04\n      add\n      tag_45\n      swap1\n      tag_46\n      jump\t// in\n    tag_45:\n      mload(0x40)\n      dup1\n      swap2\n      sub\n      swap1\n      revert\n    tag_44:\n        /* \"Contracts/Day 9/Act1.sol\":1176:1181  _num2 */\n      dup2\n        /* \"Contracts/Day 9/Act1.sol\":1170:1175  _num1 */\n      dup4\n        /* \"Contracts/Day 9/Act1.sol\":1170:1181  _num1/_num2 */\n      tag_47\n      swap2\n      swap1\n      tag_48\n      jump\t// in\n    tag_47:\n        /* \"Contracts/Day 9/Act1.sol\":1163:1181  return _num1/_num2 */\n      swap1\n      pop\n        /* \"Contracts/Day 9/Act1.sol\":985:1189  function Quo(uint _num1, uint _num2) external returns(uint){... */\n      swap3\n      swap2\n      pop\n      pop\n      jump\t// out\n        /* \"#utility.yul\":7:84   */\n    tag_49:\n        /* \"#utility.yul\":44:51   */\n      0x00\n        /* \"#utility.yul\":73:78   */\n      dup2\n        /* \"#utility.yul\":62:78   */\n      swap1\n      pop\n        /* \"#utility.yul\":7:84   */\n      swap2\n      swap1\n      pop\n      jump\t// out\n        /* \"#utility.yul\":90:208   */\n    tag_50:\n        /* \"#utility.yul\":177:201   */\n      tag_64\n        /* \"#utility.yul\":195:200   */\n      dup2\n        /* \"#utility.yul\":177:201   */\n      tag_49\n      jump\t// in\n    tag_64:\n        /* \"#utility.yul\":172:175   */\n      dup3\n        /* \"#utility.yul\":165:202   */\n      mstore\n        /* \"#utility.yul\":90:208   */\n      pop\n      pop\n      jump\t// out\n        /* \"#utility.yul\":214:436   */\n    tag_12:\n        /* \"#utility.yul\":307:311   */\n      0x00\n        /* \"#utility.yul\":345:347   */\n      0x20\n        /* \"#utility.yul\":334:343   */\n      dup3\n        /* \"#utility.yul\":330:348   */\n      add\n        /* \"#utility.yul\":322:348   */\n      swap1\n      pop\n        /* \"#utility.yul\":358:429   */\n      tag_66\n        /* \"#utility.yul\":426:427   */\n      0x00\n        /* \"#utility.yul\":415:424   */\n      dup4\n        /* \"#utility.yul\":411:428   */\n      add\n        /* \"#utility.yul\":402:408   */\n      dup5\n        /* \"#utility.yul\":358:429   */\n      tag_50\n      jump\t// in\n    tag_66:\n        /* \"#utility.yul\":214:436   */\n      swap3\n      swap2\n      pop\n      pop\n      jump\t// out\n        /* \"#utility.yul\":523:640   */\n    tag_52:\n        /* \"#utility.yul\":632:633   */\n      0x00\n        /* \"#utility.yul\":629:630   */\n      0x00\n        /* \"#utility.yul\":622:634   */\n      revert\n        /* \"#utility.yul\":769:891   */\n    tag_54:\n        /* \"#utility.yul\":842:866   */\n      tag_71\n        /* \"#utility.yul\":860:865   */\n      dup2\n        /* \"#utility.yul\":842:866   */\n      tag_49\n      jump\t// in\n    tag_71:\n        /* \"#utility.yul\":835:840   */\n      dup2\n        /* \"#utility.yul\":832:867   */\n      eq\n        /* \"#utility.yul\":822:885   */\n      tag_72\n      jumpi\n        /* \"#utility.yul\":881:882   */\n      0x00\n        /* \"#utility.yul\":878:879   */\n      0x00\n        /* \"#utility.yul\":871:883   */\n      revert\n        /* \"#utility.yul\":822:885   */\n    tag_72:\n        /* \"#utility.yul\":769:891   */\n      pop\n      jump\t// out\n        /* \"#utility.yul\":897:1036   */\n    tag_55:\n        /* \"#utility.yul\":943:948   */\n      0x00\n        /* \"#utility.yul\":981:987   */\n      dup2\n        /* \"#utility.yul\":968:988   */\n      calldataload\n        /* \"#utility.yul\":959:988   */\n      swap1\n      pop\n        /* \"#utility.yul\":997:1030   */\n      tag_74\n        /* \"#utility.yul\":1024:1029   */\n      dup2\n        /* \"#utility.yul\":997:1030   */\n      tag_54\n      jump\t// in\n    tag_74:\n        /* \"#utility.yul\":897:1036   */\n      swap3\n      swap2\n      pop\n      pop\n      jump\t// out\n        /* \"#utility.yul\":1042:1516   */\n    tag_15:\n        /* \"#utility.yul\":1110:1116   */\n      0x00\n        /* \"#utility.yul\":1118:1124   */\n      0x00\n        /* \"#utility.yul\":1167:1169   */\n      0x40\n        /* \"#utility.yul\":1155:1164   */\n      dup4\n        /* \"#utility.yul\":1146:1153   */\n      dup6\n        /* \"#utility.yul\":1142:1165   */\n      sub\n        /* \"#utility.yul\":1138:1170   */\n      slt\n        /* \"#utility.yul\":1135:1254   */\n      iszero\n      tag_76\n      jumpi\n        /* \"#utility.yul\":1173:1252   */\n      tag_77\n      tag_52\n      jump\t// in\n    tag_77:\n        /* \"#utility.yul\":1135:1254   */\n    tag_76:\n        /* \"#utility.yul\":1293:1294   */\n      0x00\n        /* \"#utility.yul\":1318:1371   */\n      tag_78\n        /* \"#utility.yul\":1363:1370   */\n      dup6\n        /* \"#utility.yul\":1354:1360   */\n      dup3\n        /* \"#utility.yul\":1343:1352   */\n      dup7\n        /* \"#utility.yul\":1339:1361   */\n      add\n        /* \"#utility.yul\":1318:1371   */\n      tag_55\n      jump\t// in\n    tag_78:\n        /* \"#utility.yul\":1308:1371   */\n      swap3\n      pop\n        /* \"#utility.yul\":1264:1381   */\n      pop\n        /* \"#utility.yul\":1420:1422   */\n      0x20\n        /* \"#utility.yul\":1446:1499   */\n      tag_79\n        /* \"#utility.yul\":1491:1498   */\n      dup6\n        /* \"#utility.yul\":1482:1488   */\n      dup3\n        /* \"#utility.yul\":1471:1480   */\n      dup7\n        /* \"#utility.yul\":1467:1489   */\n      add\n        /* \"#utility.yul\":1446:1499   */\n      tag_55\n      jump\t// in\n    tag_79:\n        /* \"#utility.yul\":1436:1499   */\n      swap2\n      pop\n        /* \"#utility.yul\":1391:1509   */\n      pop\n        /* \"#utility.yul\":1042:1516   */\n      swap3\n      pop\n      swap3\n      swap1\n      pop\n      jump\t// out\n        /* \"#utility.yul\":1522:1702   */\n    tag_56:\n        /* \"#utility.yul\":1570:1647   */\n      0x4e487b7100000000000000000000000000000000000000000000000000000000\n        /* \"#utility.yul\":1567:1568   */\n      0x00\n        /* \"#utility.yul\":1560:1648   */\n      mstore\n        /* \"#utility.yul\":1667:1671   */\n      0x11\n        /* \"#utility.yul\":1664:1665   */\n      0x04\n        /* \"#utility.yul\":1657:1672   */\n      mstore\n        /* \"#utility.yul\":1691:1695   */\n      0x24\n        /* \"#utility.yul\":1688:1689   */\n      0x00\n        /* \"#utility.yul\":1681:1696   */\n      revert\n        /* \"#utility.yul\":1708:1899   */\n    tag_35:\n        /* \"#utility.yul\":1748:1751   */\n      0x00\n        /* \"#utility.yul\":1767:1787   */\n      tag_82\n        /* \"#utility.yul\":1785:1786   */\n      dup3\n        /* \"#utility.yul\":1767:1787   */\n      tag_49\n      jump\t// in\n    tag_82:\n        /* \"#utility.yul\":1762:1787   */\n      swap2\n      pop\n        /* \"#utility.yul\":1801:1821   */\n      tag_83\n        /* \"#utility.yul\":1819:1820   */\n      dup4\n        /* \"#utility.yul\":1801:1821   */\n      tag_49\n      jump\t// in\n    tag_83:\n        /* \"#utility.yul\":1796:1821   */\n      swap3\n      pop\n        /* \"#utility.yul\":1844:1845   */\n      dup3\n        /* \"#utility.yul\":1841:1842   */\n      dup3\n        /* \"#utility.yul\":1837:1846   */\n      add\n        /* \"#utility.yul\":1830:1846   */\n      swap1\n      pop\n        /* \"#utility.yul\":1865:1868   */\n      dup1\n        /* \"#utility.yul\":1862:1863   */\n      dup3\n        /* \"#utility.yul\":1859:1869   */\n      gt\n        /* \"#utility.yul\":1856:1892   */\n      iszero\n      tag_84\n      jumpi\n        /* \"#utility.yul\":1872:1890   */\n      tag_85\n      tag_56\n      jump\t// in\n    tag_85:\n        /* \"#utility.yul\":1856:1892   */\n    tag_84:\n        /* \"#utility.yul\":1708:1899   */\n      swap3\n      swap2\n      pop\n      pop\n      jump\t// out\n        /* \"#utility.yul\":1905:2099   */\n    tag_39:\n        /* \"#utility.yul\":1945:1949   */\n      0x00\n        /* \"#utility.yul\":1965:1985   */\n      tag_87\n        /* \"#utility.yul\":1983:1984   */\n      dup3\n        /* \"#utility.yul\":1965:1985   */\n      tag_49\n      jump\t// in\n    tag_87:\n        /* \"#utility.yul\":1960:1985   */\n      swap2\n      pop\n        /* \"#utility.yul\":1999:2019   */\n      tag_88\n        /* \"#utility.yul\":2017:2018   */\n      dup4\n        /* \"#utility.yul\":1999:2019   */\n      tag_49\n      jump\t// in\n    tag_88:\n        /* \"#utility.yul\":1994:2019   */\n      swap3\n      pop\n        /* \"#utility.yul\":2043:2044   */\n      dup3\n        /* \"#utility.yul\":2040:2041   */\n      dup3\n        /* \"#utility.yul\":2036:2045   */\n      sub\n        /* \"#utility.yul\":2028:2045   */\n      swap1\n      pop\n        /* \"#utility.yul\":2067:2068   */\n      dup2\n        /* \"#utility.yul\":2061:2065   */\n      dup2\n        /* \"#utility.yul\":2058:2069   */\n      gt\n        /* \"#utility.yul\":2055:2092   */\n      iszero\n      tag_89\n      jumpi\n        /* \"#utility.yul\":2072:2090   */\n      tag_90\n      tag_56\n      jump\t// in\n    tag_90:\n        /* \"#utility.yul\":2055:2092   */\n    tag_89:\n        /* \"#utility.yul\":1905:2099   */\n      swap3\n      swap2\n      pop\n      pop\n      jump\t// out\n        /* \"#utility.yul\":2105:2515   */\n    tag_42:\n        /* \"#utility.yul\":2145:2152   */\n      0x00\n        /* \"#utility.yul\":2168:2188   */\n      tag_92\n        /* \"#utility.yul\":2186:2187   */\n      dup3\n        /* \"#utility.yul\":2168:2188   */\n      tag_49\n      jump\t// in\n    tag_92:\n        /* \"#utility.yul\":2163:2188   */\n      swap2\n      pop\n        /* \"#utility.yul\":2202:2222   */\n      tag_93\n        /* \"#utility.yul\":2220:2221   */\n      dup4\n        /* \"#utility.yul\":2202:2222   */\n      tag_49\n      jump\t// in\n    tag_93:\n        /* \"#utility.yul\":2197:2222   */\n      swap3\n      pop\n        /* \"#utility.yul\":2257:2258   */\n      dup3\n        /* \"#utility.yul\":2254:2255   */\n      dup3\n        /* \"#utility.yul\":2250:2259   */\n      mul\n        /* \"#utility.yul\":2279:2309   */\n      tag_94\n        /* \"#utility.yul\":2297:2308   */\n      dup2\n        /* \"#utility.yul\":2279:2309   */\n      tag_49\n      jump\t// in\n    tag_94:\n        /* \"#utility.yul\":2268:2309   */\n      swap2\n      pop\n        /* \"#utility.yul\":2458:2459   */\n      dup3\n        /* \"#utility.yul\":2449:2456   */\n      dup3\n        /* \"#utility.yul\":2445:2460   */\n      div\n        /* \"#utility.yul\":2442:2443   */\n      dup5\n        /* \"#utility.yul\":2439:2461   */\n      eq\n        /* \"#utility.yul\":2419:2420   */\n      dup4\n        /* \"#utility.yul\":2412:2421   */\n      iszero\n        /* \"#utility.yul\":2392:2475   */\n      or\n        /* \"#utility.yul\":2369:2508   */\n      tag_95\n      jumpi\n        /* \"#utility.yul\":2488:2506   */\n      tag_96\n      tag_56\n      jump\t// in\n    tag_96:\n        /* \"#utility.yul\":2369:2508   */\n    tag_95:\n        /* \"#utility.yul\":2153:2515   */\n      pop\n        /* \"#utility.yul\":2105:2515   */\n      swap3\n      swap2\n      pop\n      pop\n      jump\t// out\n        /* \"#utility.yul\":2521:2690   */\n    tag_57:\n        /* \"#utility.yul\":2605:2616   */\n      0x00\n        /* \"#utility.yul\":2639:2645   */\n      dup3\n        /* \"#utility.yul\":2634:2637   */\n      dup3\n        /* \"#utility.yul\":2627:2646   */\n      mstore\n        /* \"#utility.yul\":2679:2683   */\n      0x20\n        /* \"#utility.yul\":2674:2677   */\n      dup3\n        /* \"#utility.yul\":2670:2684   */\n      add\n        /* \"#utility.yul\":2655:2684   */\n      swap1\n      pop\n        /* \"#utility.yul\":2521:2690   */\n      swap3\n      swap2\n      pop\n      pop\n      jump\t// out\n        /* \"#utility.yul\":2696:2877   */\n    tag_58:\n        /* \"#utility.yul\":2836:2869   */\n      0x4469766973696f6e206279207a65726f206973206e6f7420616c6c6f77656400\n        /* \"#utility.yul\":2832:2833   */\n      0x00\n        /* \"#utility.yul\":2824:2830   */\n      dup3\n        /* \"#utility.yul\":2820:2834   */\n      add\n        /* \"#utility.yul\":2813:2870   */\n      mstore\n        /* \"#utility.yul\":2696:2877   */\n      pop\n      jump\t// out\n        /* \"#utility.yul\":2883:3249   */\n    tag_59:\n        /* \"#utility.yul\":3025:3028   */\n      0x00\n        /* \"#utility.yul\":3046:3113   */\n      tag_100\n        /* \"#utility.yul\":3110:3112   */\n      0x1f\n        /* \"#utility.yul\":3105:3108   */\n      dup4\n        /* \"#utility.yul\":3046:3113   */\n      tag_57\n      jump\t// in\n    tag_100:\n        /* \"#utility.yul\":3039:3113   */\n      swap2\n      pop\n        /* \"#utility.yul\":3122:3215   */\n      tag_101\n        /* \"#utility.yul\":3211:3214   */\n      dup3\n        /* \"#utility.yul\":3122:3215   */\n      tag_58\n      jump\t// in\n    tag_101:\n        /* \"#utility.yul\":3240:3242   */\n      0x20\n        /* \"#utility.yul\":3235:3238   */\n      dup3\n        /* \"#utility.yul\":3231:3243   */\n      add\n        /* \"#utility.yul\":3224:3243   */\n      swap1\n      pop\n        /* \"#utility.yul\":2883:3249   */\n      swap2\n      swap1\n      pop\n      jump\t// out\n        /* \"#utility.yul\":3255:3674   */\n    tag_46:\n        /* \"#utility.yul\":3421:3425   */\n      0x00\n        /* \"#utility.yul\":3459:3461   */\n      0x20\n        /* \"#utility.yul\":3448:3457   */\n      dup3\n        /* \"#utility.yul\":3444:3462   */\n      add\n        /* \"#utility.yul\":3436:3462   */\n      swap1\n      pop\n        /* \"#utility.yul\":3508:3517   */\n      dup2\n        /* \"#utility.yul\":3502:3506   */\n      dup2\n        /* \"#utility.yul\":3498:3518   */\n      sub\n        /* \"#utility.yul\":3494:3495   */\n      0x00\n        /* \"#utility.yul\":3483:3492   */\n      dup4\n        /* \"#utility.yul\":3479:3496   */\n      add\n        /* \"#utility.yul\":3472:3519   */\n      mstore\n        /* \"#utility.yul\":3536:3667   */\n      tag_103\n        /* \"#utility.yul\":3662:3666   */\n      dup2\n        /* \"#utility.yul\":3536:3667   */\n      tag_59\n      jump\t// in\n    tag_103:\n        /* \"#utility.yul\":3528:3667   */\n      swap1\n      pop\n        /* \"#utility.yul\":3255:3674   */\n      swap2\n      swap1\n      pop\n      jump\t// out\n        /* \"#utility.yul\":3680:3860   */\n    tag_60:\n        /* \"#utility.yul\":3728:3805   */\n      0x4e487b7100000000000000000000000000000000000000000000000000000000\n        /* \"#utility.yul\":3725:3726   */\n      0x00\n        /* \"#utility.yul\":3718:3806   */\n      mstore\n        /* \"#utility.yul\":3825:3829   */\n      0x12\n        /* \"#utility.yul\":3822:3823   */\n      0x04\n        /* \"#utility.yul\":3815:3830   */\n      mstore\n        /* \"#utility.yul\":3849:3853   */\n      0x24\n        /* \"#utility.yul\":3846:3847   */\n      0x00\n        /* \"#utility.yul\":3839:3854   */\n      revert\n        /* \"#utility.yul\":3866:4051   */\n    tag_48:\n        /* \"#utility.yul\":3906:3907   */\n      0x00\n        /* \"#utility.yul\":3923:3943   */\n      tag_106\n        /* \"#utility.yul\":3941:3942   */\n      dup3\n        /* \"#utility.yul\":3923:3943   */\n      tag_49\n      jump\t// in\n    tag_106:\n        /* \"#utility.yul\":3918:3943   */\n      swap2\n      pop\n        /* \"#utility.yul\":3957:3977   */\n      tag_107\n        /* \"#utility.yul\":3975:3976   */\n      dup4\n        /* \"#utility.yul\":3957:3977   */\n      tag_49\n      jump\t// in\n    tag_107:\n        /* \"#utility.yul\":3952:3977   */\n      swap3\n      pop\n        /* \"#utility.yul\":3996:3997   */\n      dup3\n        /* \"#utility.yul\":3986:4021   */\n      tag_108\n      jumpi\n        /* \"#utility.yul\":4001:4019   */\n      tag_109\n      tag_60\n      jump\t// in\n    tag_109:\n        /* \"#utility.yul\":3986:4021   */\n    tag_108:\n        /* \"#utility.yul\":4043:4044   */\n      dup3\n        /* \"#utility.yul\":4040:4041   */\n      dup3\n        /* \"#utility.yul\":4036:4045   */\n      div\n        /* \"#utility.yul\":4031:4045   */\n      swap1\n      pop\n        /* \"#utility.yul\":3866:4051   */\n      swap3\n      swap2\n      pop\n      pop\n      jump\t// out\n\n    auxdata: 0xa26469706673582212208d71a66dea49e6c0f234714cb353cc74dc2daea4e61354ea4d12214b3db4cf3c64736f6c634300081e0033\n}\n",
				"bytecode": {
					"linkReferences": {},
					"object": "6080604052348015600e575f5ffd5b506104cd8061001c5f395ff3fe608060405234801561000f575f5ffd5b5060043610610060575f3560e01c806315d4266c1461006457806317ef4e4b14610082578063371158ed146100b25780633b9eac4b146100e25780636cb7d69d14610100578063ea52c84814610130575b5f5ffd5b61006c610160565b6040516100799190610269565b60405180910390f35b61009c600480360381019061009791906102b0565b610166565b6040516100a99190610269565b60405180910390f35b6100cc60048036038101906100c791906102b0565b61018b565b6040516100d99190610269565b60405180910390f35b6100ea6101c4565b6040516100f79190610269565b60405180910390f35b61011a600480360381019061011591906102b0565b6101c9565b6040516101279190610269565b60405180910390f35b61014a600480360381019061014591906102b0565b6101eb565b6040516101579190610269565b60405180910390f35b60015481565b5f825f81905550816001819055506001545f54610183919061031b565b905092915050565b5f825f81905550816001819055505f5460015411156101ac575f90506101be565b6001545f546101bb919061034e565b90505b92915050565b5f5481565b5f825f819055508160018190555081836101e39190610381565b905092915050565b5f825f81905550816001819055505f6001540361023d576040517f08c379a00000000000000000000000000000000000000000000000000000000081526004016102349061041c565b60405180910390fd5b81836102499190610467565b905092915050565b5f819050919050565b61026381610251565b82525050565b5f60208201905061027c5f83018461025a565b92915050565b5f5ffd5b61028f81610251565b8114610299575f5ffd5b50565b5f813590506102aa81610286565b92915050565b5f5f604083850312156102c6576102c5610282565b5b5f6102d38582860161029c565b92505060206102e48582860161029c565b9150509250929050565b7f4e487b71000000000000000000000000000000000000000000000000000000005f52601160045260245ffd5b5f61032582610251565b915061033083610251565b9250828201905080821115610348576103476102ee565b5b92915050565b5f61035882610251565b915061036383610251565b925082820390508181111561037b5761037a6102ee565b5b92915050565b5f61038b82610251565b915061039683610251565b92508282026103a481610251565b915082820484148315176103bb576103ba6102ee565b5b5092915050565b5f82825260208201905092915050565b7f4469766973696f6e206279207a65726f206973206e6f7420616c6c6f776564005f82015250565b5f610406601f836103c2565b9150610411826103d2565b602082019050919050565b5f6020820190508181035f830152610433816103fa565b9050919050565b7f4e487b71000000000000000000000000000000000000000000000000000000005f52601260045260245ffd5b5f61047182610251565b915061047c83610251565b92508261048c5761048b61043a565b5b82820490509291505056fea26469706673582212208d71a66dea49e6c0f234714cb353cc74dc2daea4e61354ea4d12214b3db4cf3c64736f6c634300081e0033",
					"opcodes": "PUSH1 0x80 PUSH1 0x40 MSTORE CALLVALUE DUP1 ISZERO PUSH1 0xE JUMPI PUSH0 PUSH0 REVERT JUMPDEST POP PUSH2 0x4CD DUP1 PUSH2 0x1C PUSH0 CODECOPY PUSH0 RETURN INVALID PUSH1 0x80 PUSH1 0x40 MSTORE CALLVALUE DUP1 ISZERO PUSH2 0xF JUMPI PUSH0 PUSH0 REVERT JUMPDEST POP PUSH1 0x4 CALLDATASIZE LT PUSH2 0x60 JUMPI PUSH0 CALLDATALOAD PUSH1 0xE0 SHR DUP1 PUSH4 0x15D4266C EQ PUSH2 0x64 JUMPI DUP1 PUSH4 0x17EF4E4B EQ PUSH2 0x82 JUMPI DUP1 PUSH4 0x371158ED EQ PUSH2 0xB2 JUMPI DUP1 PUSH4 0x3B9EAC4B EQ PUSH2 0xE2 JUMPI DUP1 PUSH4 0x6CB7D69D EQ PUSH2 0x100 JUMPI DUP1 PUSH4 0xEA52C848 EQ PUSH2 0x130 JUMPI JUMPDEST PUSH0 PUSH0 REVERT JUMPDEST PUSH2 0x6C PUSH2 0x160 JUMP JUMPDEST PUSH1 0x40 MLOAD PUSH2 0x79 SWAP2 SWAP1 PUSH2 0x269 JUMP JUMPDEST PUSH1 0x40 MLOAD DUP1 SWAP2 SUB SWAP1 RETURN JUMPDEST PUSH2 0x9C PUSH1 0x4 DUP1 CALLDATASIZE SUB DUP2 ADD SWAP1 PUSH2 0x97 SWAP2 SWAP1 PUSH2 0x2B0 JUMP JUMPDEST PUSH2 0x166 JUMP JUMPDEST PUSH1 0x40 MLOAD PUSH2 0xA9 SWAP2 SWAP1 PUSH2 0x269 JUMP JUMPDEST PUSH1 0x40 MLOAD DUP1 SWAP2 SUB SWAP1 RETURN JUMPDEST PUSH2 0xCC PUSH1 0x4 DUP1 CALLDATASIZE SUB DUP2 ADD SWAP1 PUSH2 0xC7 SWAP2 SWAP1 PUSH2 0x2B0 JUMP JUMPDEST PUSH2 0x18B JUMP JUMPDEST PUSH1 0x40 MLOAD PUSH2 0xD9 SWAP2 SWAP1 PUSH2 0x269 JUMP JUMPDEST PUSH1 0x40 MLOAD DUP1 SWAP2 SUB SWAP1 RETURN JUMPDEST PUSH2 0xEA PUSH2 0x1C4 JUMP JUMPDEST PUSH1 0x40 MLOAD PUSH2 0xF7 SWAP2 SWAP1 PUSH2 0x269 JUMP JUMPDEST PUSH1 0x40 MLOAD DUP1 SWAP2 SUB SWAP1 RETURN JUMPDEST PUSH2 0x11A PUSH1 0x4 DUP1 CALLDATASIZE SUB DUP2 ADD SWAP1 PUSH2 0x115 SWAP2 SWAP1 PUSH2 0x2B0 JUMP JUMPDEST PUSH2 0x1C9 JUMP JUMPDEST PUSH1 0x40 MLOAD PUSH2 0x127 SWAP2 SWAP1 PUSH2 0x269 JUMP JUMPDEST PUSH1 0x40 MLOAD DUP1 SWAP2 SUB SWAP1 RETURN JUMPDEST PUSH2 0x14A PUSH1 0x4 DUP1 CALLDATASIZE SUB DUP2 ADD SWAP1 PUSH2 0x145 SWAP2 SWAP1 PUSH2 0x2B0 JUMP JUMPDEST PUSH2 0x1EB JUMP JUMPDEST PUSH1 0x40 MLOAD PUSH2 0x157 SWAP2 SWAP1 PUSH2 0x269 JUMP JUMPDEST PUSH1 0x40 MLOAD DUP1 SWAP2 SUB SWAP1 RETURN JUMPDEST PUSH1 0x1 SLOAD DUP2 JUMP JUMPDEST PUSH0 DUP3 PUSH0 DUP2 SWAP1 SSTORE POP DUP2 PUSH1 0x1 DUP2 SWAP1 SSTORE POP PUSH1 0x1 SLOAD PUSH0 SLOAD PUSH2 0x183 SWAP2 SWAP1 PUSH2 0x31B JUMP JUMPDEST SWAP1 POP SWAP3 SWAP2 POP POP JUMP JUMPDEST PUSH0 DUP3 PUSH0 DUP2 SWAP1 SSTORE POP DUP2 PUSH1 0x1 DUP2 SWAP1 SSTORE POP PUSH0 SLOAD PUSH1 0x1 SLOAD GT ISZERO PUSH2 0x1AC JUMPI PUSH0 SWAP1 POP PUSH2 0x1BE JUMP JUMPDEST PUSH1 0x1 SLOAD PUSH0 SLOAD PUSH2 0x1BB SWAP2 SWAP1 PUSH2 0x34E JUMP JUMPDEST SWAP1 POP JUMPDEST SWAP3 SWAP2 POP POP JUMP JUMPDEST PUSH0 SLOAD DUP2 JUMP JUMPDEST PUSH0 DUP3 PUSH0 DUP2 SWAP1 SSTORE POP DUP2 PUSH1 0x1 DUP2 SWAP1 SSTORE POP DUP2 DUP4 PUSH2 0x1E3 SWAP2 SWAP1 PUSH2 0x381 JUMP JUMPDEST SWAP1 POP SWAP3 SWAP2 POP POP JUMP JUMPDEST PUSH0 DUP3 PUSH0 DUP2 SWAP1 SSTORE POP DUP2 PUSH1 0x1 DUP2 SWAP1 SSTORE POP PUSH0 PUSH1 0x1 SLOAD SUB PUSH2 0x23D JUMPI PUSH1 0x40 MLOAD PUSH32 0x8C379A000000000000000000000000000000000000000000000000000000000 DUP2 MSTORE PUSH1 0x4 ADD PUSH2 0x234 SWAP1 PUSH2 0x41C JUMP JUMPDEST PUSH1 0x40 MLOAD DUP1 SWAP2 SUB SWAP1 REVERT JUMPDEST DUP2 DUP4 PUSH2 0x249 SWAP2 SWAP1 PUSH2 0x467 JUMP JUMPDEST SWAP1 POP SWAP3 SWAP2 POP POP JUMP JUMPDEST PUSH0 DUP2 SWAP1 POP SWAP2 SWAP1 POP JUMP JUMPDEST PUSH2 0x263 DUP2 PUSH2 0x251 JUMP JUMPDEST DUP3 MSTORE POP POP JUMP JUMPDEST PUSH0 PUSH1 0x20 DUP3 ADD SWAP1 POP PUSH2 0x27C PUSH0 DUP4 ADD DUP5 PUSH2 0x25A JUMP JUMPDEST SWAP3 SWAP2 POP POP JUMP JUMPDEST PUSH0 PUSH0 REVERT JUMPDEST PUSH2 0x28F DUP2 PUSH2 0x251 JUMP JUMPDEST DUP2 EQ PUSH2 0x299 JUMPI PUSH0 PUSH0 REVERT JUMPDEST POP JUMP JUMPDEST PUSH0 DUP2 CALLDATALOAD SWAP1 POP PUSH2 0x2AA DUP2 PUSH2 0x286 JUMP JUMPDEST SWAP3 SWAP2 POP POP JUMP JUMPDEST PUSH0 PUSH0 PUSH1 0x40 DUP4 DUP6 SUB SLT ISZERO PUSH2 0x2C6 JUMPI PUSH2 0x2C5 PUSH2 0x282 JUMP JUMPDEST JUMPDEST PUSH0 PUSH2 0x2D3 DUP6 DUP3 DUP7 ADD PUSH2 0x29C JUMP JUMPDEST SWAP3 POP POP PUSH1 0x20 PUSH2 0x2E4 DUP6 DUP3 DUP7 ADD PUSH2 0x29C JUMP JUMPDEST SWAP2 POP POP SWAP3 POP SWAP3 SWAP1 POP JUMP JUMPDEST PUSH32 0x4E487B7100000000000000000000000000000000000000000000000000000000 PUSH0 MSTORE PUSH1 0x11 PUSH1 0x4 MSTORE PUSH1 0x24 PUSH0 REVERT JUMPDEST PUSH0 PUSH2 0x325 DUP3 PUSH2 0x251 JUMP JUMPDEST SWAP2 POP PUSH2 0x330 DUP4 PUSH2 0x251 JUMP JUMPDEST SWAP3 POP DUP3 DUP3 ADD SWAP1 POP DUP1 DUP3 GT ISZERO PUSH2 0x348 JUMPI PUSH2 0x347 PUSH2 0x2EE JUMP JUMPDEST JUMPDEST SWAP3 SWAP2 POP POP JUMP JUMPDEST PUSH0 PUSH2 0x358 DUP3 PUSH2 0x251 JUMP JUMPDEST SWAP2 POP PUSH2 0x363 DUP4 PUSH2 0x251 JUMP JUMPDEST SWAP3 POP DUP3 DUP3 SUB SWAP1 POP DUP2 DUP2 GT ISZERO PUSH2 0x37B JUMPI PUSH2 0x37A PUSH2 0x2EE JUMP JUMPDEST JUMPDEST SWAP3 SWAP2 POP POP JUMP JUMPDEST PUSH0 PUSH2 0x38B DUP3 PUSH2 0x251 JUMP JUMPDEST SWAP2 POP PUSH2 0x396 DUP4 PUSH2 0x251 JUMP JUMPDEST SWAP3 POP DUP3 DUP3 MUL PUSH2 0x3A4 DUP2 PUSH2 0x251 JUMP JUMPDEST SWAP2 POP DUP3 DUP3 DIV DUP5 EQ DUP4 ISZERO OR PUSH2 0x3BB JUMPI PUSH2 0x3BA PUSH2 0x2EE JUMP JUMPDEST JUMPDEST POP SWAP3 SWAP2 POP POP JUMP JUMPDEST PUSH0 DUP3 DUP3 MSTORE PUSH1 0x20 DUP3 ADD SWAP1 POP SWAP3 SWAP2 POP POP JUMP JUMPDEST PUSH32 0x4469766973696F6E206279207A65726F206973206E6F7420616C6C6F77656400 PUSH0 DUP3 ADD MSTORE POP JUMP JUMPDEST PUSH0 PUSH2 0x406 PUSH1 0x1F DUP4 PUSH2 0x3C2 JUMP JUMPDEST SWAP2 POP PUSH2 0x411 DUP3 PUSH2 0x3D2 JUMP JUMPDEST PUSH1 0x20 DUP3 ADD SWAP1 POP SWAP2 SWAP1 POP JUMP JUMPDEST PUSH0 PUSH1 0x20 DUP3 ADD SWAP1 POP DUP2 DUP2 SUB PUSH0 DUP4 ADD MSTORE PUSH2 0x433 DUP2 PUSH2 0x3FA JUMP JUMPDEST SWAP1 POP SWAP2 SWAP1 POP JUMP JUMPDEST PUSH32 0x4E487B7100000000000000000000000000000000000000000000000000000000 PUSH0 MSTORE PUSH1 0x12 PUSH1 0x4 MSTORE PUSH1 0x24 PUSH0 REVERT JUMPDEST PUSH0 PUSH2 0x471 DUP3 PUSH2 0x251 JUMP JUMPDEST SWAP2 POP PUSH2 0x47C DUP4 PUSH2 0x251 JUMP JUMPDEST SWAP3 POP DUP3 PUSH2 0x48C JUMPI PUSH2 0x48B PUSH2 0x43A JUMP JUMPDEST JUMPDEST DUP3 DUP3 DIV SWAP1 POP SWAP3 SWAP2 POP POP JUMP INVALID LOG2 PUSH5 0x6970667358 0x22 SLT KECCAK256 DUP14 PUSH18 0xA66DEA49E6C0F234714CB353CC74DC2DAEA4 DUPN 0x13 SLOAD 0xEA 0x4D SLT 0x21 0x4B RETURNDATASIZE 0xB4 0xCF EXTCODECOPY PUSH5 0x736F6C6343 STOP ADDMOD 0x1E STOP CALLER "
				},
				"gasEstimates": {
					"creation": {
						"codeDepositCost": "245800",
						"executionCost": "285",
						"totalCost": "246085"
					},
					"external": {
						"Dif(uint256,uint256)": "infinite",
						"Prod(uint256,uint256)": "infinite",
						"Quo(uint256,uint256)": "infinite",
						"Sum(uint256,uint256)": "infinite",
						"num1()": "2468",
						"num2()": "2403"
					}
				},
				"methodIdentifiers": {
					"Dif(uint256,uint256)": "371158ed",
					"Prod(uint256,uint256)": "6cb7d69d",
					"Quo(uint256,uint256)": "ea52c848",
					"Sum(uint256,uint256)": "17ef4e4b",
					"num1()": "3b9eac4b",
					"num2()": "15d4266c"
				}
			},
			"storageLayout": {
				"storage": [
					{
						"astId": 40,
						"contract": "Contracts/Day 9/Act1.sol:Receiver",
						"label": "num1",
						"offset": 0,
						"slot": "0",
						"type": "t_uint256"
					},
					{
						"astId": 42,
						"contract": "Contracts/Day 9/Act1.sol:Receiver",
						"label": "num2",
						"offset": 0,
						"slot": "1",
						"type": "t_uint256"
					}
				],
				"types": {
					"t_uint256": {
						"encoding": "inplace",
						"label": "uint256",
						"numberOfBytes": "32"
					}
				}
			},
			"userdoc": {
				"kind": "user",
				"methods": {},
				"version": 1
			}
		}
	}
}