{
	"Contracts/Day 9/Act1_Caller.sol": {
		"Receiver": {
			"abi": [
				{
					"inputs": [
						{
							"internalType": "uint256",
							"name": "_num1",
							"type": "uint256"
						},
						{
							"internalType": "uint256",
							"name": "_num2",
							"type": "uint256"
						}
					],
					"name": "difference",
					"outputs": [
						{
							"internalType": "uint256",
							"name": "",
							"type": "uint256"
						}
					],
					"stateMutability": "nonpayable",
					"type": "function"
				},
				{
					"inputs": [],
					"name": "num1",
					"outputs": [
						{
							"internalType": "uint256",
							"name": "",
							"type": "uint256"
						}
					],
					"stateMutability": "view",
					"type": "function"
				},
				{
					"inputs": [],
					"name": "num2",
					"outputs": [
						{
							"internalType": "uint256",
							"name": "",
							"type": "uint256"
						}
					],
					"stateMutability": "view",
					"type": "function"
				},
				{
					"inputs": [
						{
							"internalType": "uint256",
							"name": "_num1",
							"type": "uint256"
						},
						{
							"internalType": "uint256",
							"name": "_num2",
							"type": "uint256"
						}
					],
					"name": "product",
					"outputs": [
						{
							"internalType": "uint256",
							"name": "",
							"type": "uint256"
						}
					],
					"stateMutability": "nonpayable",
					"type": "function"
				},
				{
					"inputs": [
						{
							"internalType": "uint256",
							"name": "_num1",
							"type": "uint256"
						},
						{
							"internalType": "uint256",
							"name": "_num2",
							"type": "uint256"
						}
					],
					"name": "quotient",
					"outputs": [
						{
							"internalType": "uint256",
							"name": "",
							"type": "uint256"
						}
					],
					"stateMutability": "nonpayable",
					"type": "function"
				},
				{
					"inputs": [
						{
							"internalType": "uint256",
							"name": "_num1",
							"type": "uint256"
						},
						{
							"internalType": "uint256",
							"name": "_num2",
							"type": "uint256"
						}
					],
					"name": "sum",
					"outputs": [
						{
							"internalType": "uint256",
							"name": "",
							"type": "uint256"
						}
					],
					"stateMutability": "nonpayable",
					"type": "function"
				}
			],
			"devdoc": {
				"kind": "dev",
				"methods": {},
				"version": 1
			},
			"evm": {
				"assembly": "    /* \"Contracts/Day 9/Act1_Caller.sol\":405:1156  contract Receiver {... */\n  mstore(0x40, 0x80)\n  callvalue\n  dup1\n  iszero\n  tag_1\n  jumpi\n  revert(0x00, 0x00)\ntag_1:\n  pop\n  dataSize(sub_0)\n  dup1\n  dataOffset(sub_0)\n  0x00\n  codecopy\n  0x00\n  return\nstop\n\nsub_0: assembly {\n        /* \"Contracts/Day 9/Act1_Caller.sol\":405:1156  contract Receiver {... */\n      mstore(0x40, 0x80)\n      callvalue\n      dup1\n      iszero\n      tag_1\n      jumpi\n      revert(0x00, 0x00)\n    tag_1:\n      pop\n      jumpi(tag_2, lt(calldatasize, 0x04))\n      shr(0xe0, calldataload(0x00))\n      dup1\n      0x15d4266c\n      eq\n      tag_3\n      jumpi\n      dup1\n      0x3b9eac4b\n      eq\n      tag_4\n      jumpi\n      dup1\n      0xa95cb7f7\n      eq\n      tag_5\n      jumpi\n      dup1\n      0xba88c3b7\n      eq\n      tag_6\n      jumpi\n      dup1\n      0xc44fffd3\n      eq\n      tag_7\n      jumpi\n      dup1\n      0xcad0899b\n      eq\n      tag_8\n      jumpi\n    tag_2:\n      revert(0x00, 0x00)\n        /* \"Contracts/Day 9/Act1_Caller.sol\":453:469  uint public num2 */\n    tag_3:\n      tag_9\n      tag_10\n      jump\t// in\n    tag_9:\n      mload(0x40)\n      tag_11\n      swap2\n      swap1\n      tag_12\n      jump\t// in\n    tag_11:\n      mload(0x40)\n      dup1\n      swap2\n      sub\n      swap1\n      return\n        /* \"Contracts/Day 9/Act1_Caller.sol\":430:446  uint public num1 */\n    tag_4:\n      tag_13\n      tag_14\n      jump\t// in\n    tag_13:\n      mload(0x40)\n      tag_15\n      swap2\n      swap1\n      tag_12\n      jump\t// in\n    tag_15:\n      mload(0x40)\n      dup1\n      swap2\n      sub\n      swap1\n      return\n        /* \"Contracts/Day 9/Act1_Caller.sol\":631:783  function difference(uint _num1, uint _num2) external returns(uint) {... */\n    tag_5:\n      tag_16\n      0x04\n      dup1\n      calldatasize\n      sub\n      dup2\n      add\n      swap1\n      tag_17\n      swap2\n      swap1\n      tag_18\n      jump\t// in\n    tag_17:\n      tag_19\n      jump\t// in\n    tag_16:\n      mload(0x40)\n      tag_20\n      swap2\n      swap1\n      tag_12\n      jump\t// in\n    tag_20:\n      mload(0x40)\n      dup1\n      swap2\n      sub\n      swap1\n      return\n        /* \"Contracts/Day 9/Act1_Caller.sol\":791:940  function product(uint _num1, uint _num2) external returns(uint) {... */\n    tag_6:\n      tag_21\n      0x04\n      dup1\n      calldatasize\n      sub\n      dup2\n      add\n      swap1\n      tag_22\n      swap2\n      swap1\n      tag_18\n      jump\t// in\n    tag_22:\n      tag_23\n      jump\t// in\n    tag_21:\n      mload(0x40)\n      tag_24\n      swap2\n      swap1\n      tag_12\n      jump\t// in\n    tag_24:\n      mload(0x40)\n      dup1\n      swap2\n      sub\n      swap1\n      return\n        /* \"Contracts/Day 9/Act1_Caller.sol\":948:1153  function quotient(uint _num1, uint _num2) external returns(uint) {... */\n    tag_7:\n      tag_25\n      0x04\n      dup1\n      calldatasize\n      sub\n      dup2\n      add\n      swap1\n      tag_26\n      swap2\n      swap1\n      tag_18\n      jump\t// in\n    tag_26:\n      tag_27\n      jump\t// in\n    tag_25:\n      mload(0x40)\n      tag_28\n      swap2\n      swap1\n      tag_12\n      jump\t// in\n    tag_28:\n      mload(0x40)\n      dup1\n      swap2\n      sub\n      swap1\n      return\n        /* \"Contracts/Day 9/Act1_Caller.sol\":478:623  function sum(uint _num1, uint _num2) external returns(uint) {... */\n    tag_8:\n      tag_29\n      0x04\n      dup1\n      calldatasize\n      sub\n      dup2\n      add\n      swap1\n      tag_30\n      swap2\n      swap1\n      tag_18\n      jump\t// in\n    tag_30:\n      tag_31\n      jump\t// in\n    tag_29:\n      mload(0x40)\n      tag_32\n      swap2\n      swap1\n      tag_12\n      jump\t// in\n    tag_32:\n      mload(0x40)\n      dup1\n      swap2\n      sub\n      swap1\n      return\n        /* \"Contracts/Day 9/Act1_Caller.sol\":453:469  uint public num2 */\n    tag_10:\n      sload(0x01)\n      dup2\n      jump\t// out\n        /* \"Contracts/Day 9/Act1_Caller.sol\":430:446  uint public num1 */\n    tag_14:\n      sload(0x00)\n      dup2\n      jump\t// out\n        /* \"Contracts/Day 9/Act1_Caller.sol\":631:783  function difference(uint _num1, uint _num2) external returns(uint) {... */\n    tag_19:\n        /* \"Contracts/Day 9/Act1_Caller.sol\":692:696  uint */\n      0x00\n        /* \"Contracts/Day 9/Act1_Caller.sol\":716:721  _num1 */\n      dup3\n        /* \"Contracts/Day 9/Act1_Caller.sol\":709:713  num1 */\n      0x00\n        /* \"Contracts/Day 9/Act1_Caller.sol\":709:721  num1 = _num1 */\n      dup2\n      swap1\n      sstore\n      pop\n        /* \"Contracts/Day 9/Act1_Caller.sol\":739:744  _num2 */\n      dup2\n        /* \"Contracts/Day 9/Act1_Caller.sol\":732:736  num2 */\n      0x01\n        /* \"Contracts/Day 9/Act1_Caller.sol\":732:744  num2 = _num2 */\n      dup2\n      swap1\n      sstore\n      pop\n        /* \"Contracts/Day 9/Act1_Caller.sol\":770:775  _num2 */\n      dup2\n        /* \"Contracts/Day 9/Act1_Caller.sol\":762:767  _num1 */\n      dup4\n        /* \"Contracts/Day 9/Act1_Caller.sol\":762:775  _num1 - _num2 */\n      tag_34\n      swap2\n      swap1\n      tag_35\n      jump\t// in\n    tag_34:\n        /* \"Contracts/Day 9/Act1_Caller.sol\":755:775  return _num1 - _num2 */\n      swap1\n      pop\n        /* \"Contracts/Day 9/Act1_Caller.sol\":631:783  function difference(uint _num1, uint _num2) external returns(uint) {... */\n      swap3\n      swap2\n      pop\n      pop\n      jump\t// out\n        /* \"Contracts/Day 9/Act1_Caller.sol\":791:940  function product(uint _num1, uint _num2) external returns(uint) {... */\n    tag_23:\n        /* \"Contracts/Day 9/Act1_Caller.sol\":849:853  uint */\n      0x00\n        /* \"Contracts/Day 9/Act1_Caller.sol\":873:878  _num1 */\n      dup3\n        /* \"Contracts/Day 9/Act1_Caller.sol\":866:870  num1 */\n      0x00\n        /* \"Contracts/Day 9/Act1_Caller.sol\":866:878  num1 = _num1 */\n      dup2\n      swap1\n      sstore\n      pop\n        /* \"Contracts/Day 9/Act1_Caller.sol\":896:901  _num2 */\n      dup2\n        /* \"Contracts/Day 9/Act1_Caller.sol\":889:893  num2 */\n      0x01\n        /* \"Contracts/Day 9/Act1_Caller.sol\":889:901  num2 = _num2 */\n      dup2\n      swap1\n      sstore\n      pop\n        /* \"Contracts/Day 9/Act1_Caller.sol\":927:932  _num2 */\n      dup2\n        /* \"Contracts/Day 9/Act1_Caller.sol\":919:924  _num1 */\n      dup4\n        /* \"Contracts/Day 9/Act1_Caller.sol\":919:932  _num1 * _num2 */\n      tag_37\n      swap2\n      swap1\n      tag_38\n      jump\t// in\n    tag_37:\n        /* \"Contracts/Day 9/Act1_Caller.sol\":912:932  return _num1 * _num2 */\n      swap1\n      pop\n        /* \"Contracts/Day 9/Act1_Caller.sol\":791:940  function product(uint _num1, uint _num2) external returns(uint) {... */\n      swap3\n      swap2\n      pop\n      pop\n      jump\t// out\n        /* \"Contracts/Day 9/Act1_Caller.sol\":948:1153  function quotient(uint _num1, uint _num2) external returns(uint) {... */\n    tag_27:\n        /* \"Contracts/Day 9/Act1_Caller.sol\":1007:1011  uint */\n      0x00\n        /* \"Contracts/Day 9/Act1_Caller.sol\":1041:1042  0 */\n      0x00\n        /* \"Contracts/Day 9/Act1_Caller.sol\":1032:1037  _num2 */\n      dup3\n        /* \"Contracts/Day 9/Act1_Caller.sol\":1032:1042  _num2 != 0 */\n      sub\n        /* \"Contracts/Day 9/Act1_Caller.sol\":1024:1068  require(_num2 != 0, \"Cannot divide by zero\") */\n      tag_40\n      jumpi\n      mload(0x40)\n      0x08c379a000000000000000000000000000000000000000000000000000000000\n      dup2\n      mstore\n      0x04\n      add\n      tag_41\n      swap1\n      tag_42\n      jump\t// in\n    tag_41:\n      mload(0x40)\n      dup1\n      swap2\n      sub\n      swap1\n      revert\n    tag_40:\n        /* \"Contracts/Day 9/Act1_Caller.sol\":1086:1091  _num1 */\n      dup3\n        /* \"Contracts/Day 9/Act1_Caller.sol\":1079:1083  num1 */\n      0x00\n        /* \"Contracts/Day 9/Act1_Caller.sol\":1079:1091  num1 = _num1 */\n      dup2\n      swap1\n      sstore\n      pop\n        /* \"Contracts/Day 9/Act1_Caller.sol\":1109:1114  _num2 */\n      dup2\n        /* \"Contracts/Day 9/Act1_Caller.sol\":1102:1106  num2 */\n      0x01\n        /* \"Contracts/Day 9/Act1_Caller.sol\":1102:1114  num2 = _num2 */\n      dup2\n      swap1\n      sstore\n      pop\n        /* \"Contracts/Day 9/Act1_Caller.sol\":1140:1145  _num2 */\n      dup2\n        /* \"Contracts/Day 9/Act1_Caller.sol\":1132:1137  _num1 */\n      dup4\n        /* \"Contracts/Day 9/Act1_Caller.sol\":1132:1145  _num1 / _num2 */\n      tag_43\n      swap2\n      swap1\n      tag_44\n      jump\t// in\n    tag_43:\n        /* \"Contracts/Day 9/Act1_Caller.sol\":1125:1145  return _num1 / _num2 */\n      swap1\n      pop\n        /* \"Contracts/Day 9/Act1_Caller.sol\":948:1153  function quotient(uint _num1, uint _num2) external returns(uint) {... */\n      swap3\n      swap2\n      pop\n      pop\n      jump\t// out\n        /* \"Contracts/Day 9/Act1_Caller.sol\":478:623  function sum(uint _num1, uint _num2) external returns(uint) {... */\n    tag_31:\n        /* \"Contracts/Day 9/Act1_Caller.sol\":532:536  uint */\n      0x00\n        /* \"Contracts/Day 9/Act1_Caller.sol\":556:561  _num1 */\n      dup3\n        /* \"Contracts/Day 9/Act1_Caller.sol\":549:553  num1 */\n      0x00\n        /* \"Contracts/Day 9/Act1_Caller.sol\":549:561  num1 = _num1 */\n      dup2\n      swap1\n      sstore\n      pop\n        /* \"Contracts/Day 9/Act1_Caller.sol\":579:584  _num2 */\n      dup2\n        /* \"Contracts/Day 9/Act1_Caller.sol\":572:576  num2 */\n      0x01\n        /* \"Contracts/Day 9/Act1_Caller.sol\":572:584  num2 = _num2 */\n      dup2\n      swap1\n      sstore\n      pop\n        /* \"Contracts/Day 9/Act1_Caller.sol\":610:615  _num2 */\n      dup2\n        /* \"Contracts/Day 9/Act1_Caller.sol\":602:607  _num1 */\n      dup4\n        /* \"Contracts/Day 9/Act1_Caller.sol\":602:615  _num1 + _num2 */\n      tag_46\n      swap2\n      swap1\n      tag_47\n      jump\t// in\n    tag_46:\n        /* \"Contracts/Day 9/Act1_Caller.sol\":595:615  return _num1 + _num2 */\n      swap1\n      pop\n        /* \"Contracts/Day 9/Act1_Caller.sol\":478:623  function sum(uint _num1, uint _num2) external returns(uint) {... */\n      swap3\n      swap2\n      pop\n      pop\n      jump\t// out\n        /* \"#utility.yul\":7:84   */\n    tag_48:\n        /* \"#utility.yul\":44:51   */\n      0x00\n        /* \"#utility.yul\":73:78   */\n      dup2\n        /* \"#utility.yul\":62:78   */\n      swap1\n      pop\n        /* \"#utility.yul\":7:84   */\n      swap2\n      swap1\n      pop\n      jump\t// out\n        /* \"#utility.yul\":90:208   */\n    tag_49:\n        /* \"#utility.yul\":177:201   */\n      tag_63\n        /* \"#utility.yul\":195:200   */\n      dup2\n        /* \"#utility.yul\":177:201   */\n      tag_48\n      jump\t// in\n    tag_63:\n        /* \"#utility.yul\":172:175   */\n      dup3\n        /* \"#utility.yul\":165:202   */\n      mstore\n        /* \"#utility.yul\":90:208   */\n      pop\n      pop\n      jump\t// out\n        /* \"#utility.yul\":214:436   */\n    tag_12:\n        /* \"#utility.yul\":307:311   */\n      0x00\n        /* \"#utility.yul\":345:347   */\n      0x20\n        /* \"#utility.yul\":334:343   */\n      dup3\n        /* \"#utility.yul\":330:348   */\n      add\n        /* \"#utility.yul\":322:348   */\n      swap1\n      pop\n        /* \"#utility.yul\":358:429   */\n      tag_65\n        /* \"#utility.yul\":426:427   */\n      0x00\n        /* \"#utility.yul\":415:424   */\n      dup4\n        /* \"#utility.yul\":411:428   */\n      add\n        /* \"#utility.yul\":402:408   */\n      dup5\n        /* \"#utility.yul\":358:429   */\n      tag_49\n      jump\t// in\n    tag_65:\n        /* \"#utility.yul\":214:436   */\n      swap3\n      swap2\n      pop\n      pop\n      jump\t// out\n        /* \"#utility.yul\":523:640   */\n    tag_51:\n        /* \"#utility.yul\":632:633   */\n      0x00\n        /* \"#utility.yul\":629:630   */\n      0x00\n        /* \"#utility.yul\":622:634   */\n      revert\n        /* \"#utility.yul\":769:891   */\n    tag_53:\n        /* \"#utility.yul\":842:866   */\n      tag_70\n        /* \"#utility.yul\":860:865   */\n      dup2\n        /* \"#utility.yul\":842:866   */\n      tag_48\n      jump\t// in\n    tag_70:\n        /* \"#utility.yul\":835:840   */\n      dup2\n        /* \"#utility.yul\":832:867   */\n      eq\n        /* \"#utility.yul\":822:885   */\n      tag_71\n      jumpi\n        /* \"#utility.yul\":881:882   */\n      0x00\n        /* \"#utility.yul\":878:879   */\n      0x00\n        /* \"#utility.yul\":871:883   */\n      revert\n        /* \"#utility.yul\":822:885   */\n    tag_71:\n        /* \"#utility.yul\":769:891   */\n      pop\n      jump\t// out\n        /* \"#utility.yul\":897:1036   */\n    tag_54:\n        /* \"#utility.yul\":943:948   */\n      0x00\n        /* \"#utility.yul\":981:987   */\n      dup2\n        /* \"#utility.yul\":968:988   */\n      calldataload\n        /* \"#utility.yul\":959:988   */\n      swap1\n      pop\n        /* \"#utility.yul\":997:1030   */\n      tag_73\n        /* \"#utility.yul\":1024:1029   */\n      dup2\n        /* \"#utility.yul\":997:1030   */\n      tag_53\n      jump\t// in\n    tag_73:\n        /* \"#utility.yul\":897:1036   */\n      swap3\n      swap2\n      pop\n      pop\n      jump\t// out\n        /* \"#utility.yul\":1042:1516   */\n    tag_18:\n        /* \"#utility.yul\":1110:1116   */\n      0x00\n        /* \"#utility.yul\":1118:1124   */\n      0x00\n        /* \"#utility.yul\":1167:1169   */\n      0x40\n        /* \"#utility.yul\":1155:1164   */\n      dup4\n        /* \"#utility.yul\":1146:1153   */\n      dup6\n        /* \"#utility.yul\":1142:1165   */\n      sub\n        /* \"#utility.yul\":1138:1170   */\n      slt\n        /* \"#utility.yul\":1135:1254   */\n      iszero\n      tag_75\n      jumpi\n        /* \"#utility.yul\":1173:1252   */\n      tag_76\n      tag_51\n      jump\t// in\n    tag_76:\n        /* \"#utility.yul\":1135:1254   */\n    tag_75:\n        /* \"#utility.yul\":1293:1294   */\n      0x00\n        /* \"#utility.yul\":1318:1371   */\n      tag_77\n        /* \"#utility.yul\":1363:1370   */\n      dup6\n        /* \"#utility.yul\":1354:1360   */\n      dup3\n        /* \"#utility.yul\":1343:1352   */\n      dup7\n        /* \"#utility.yul\":1339:1361   */\n      add\n        /* \"#utility.yul\":1318:1371   */\n      tag_54\n      jump\t// in\n    tag_77:\n        /* \"#utility.yul\":1308:1371   */\n      swap3\n      pop\n        /* \"#utility.yul\":1264:1381   */\n      pop\n        /* \"#utility.yul\":1420:1422   */\n      0x20\n        /* \"#utility.yul\":1446:1499   */\n      tag_78\n        /* \"#utility.yul\":1491:1498   */\n      dup6\n        /* \"#utility.yul\":1482:1488   */\n      dup3\n        /* \"#utility.yul\":1471:1480   */\n      dup7\n        /* \"#utility.yul\":1467:1489   */\n      add\n        /* \"#utility.yul\":1446:1499   */\n      tag_54\n      jump\t// in\n    tag_78:\n        /* \"#utility.yul\":1436:1499   */\n      swap2\n      pop\n        /* \"#utility.yul\":1391:1509   */\n      pop\n        /* \"#utility.yul\":1042:1516   */\n      swap3\n      pop\n      swap3\n      swap1\n      pop\n      jump\t// out\n        /* \"#utility.yul\":1522:1702   */\n    tag_55:\n        /* \"#utility.yul\":1570:1647   */\n      0x4e487b7100000000000000000000000000000000000000000000000000000000\n        /* \"#utility.yul\":1567:1568   */\n      0x00\n        /* \"#utility.yul\":1560:1648   */\n      mstore\n        /* \"#utility.yul\":1667:1671   */\n      0x11\n        /* \"#utility.yul\":1664:1665   */\n      0x04\n        /* \"#utility.yul\":1657:1672   */\n      mstore\n        /* \"#utility.yul\":1691:1695   */\n      0x24\n        /* \"#utility.yul\":1688:1689   */\n      0x00\n        /* \"#utility.yul\":1681:1696   */\n      revert\n        /* \"#utility.yul\":1708:1902   */\n    tag_35:\n        /* \"#utility.yul\":1748:1752   */\n      0x00\n        /* \"#utility.yul\":1768:1788   */\n      tag_81\n        /* \"#utility.yul\":1786:1787   */\n      dup3\n        /* \"#utility.yul\":1768:1788   */\n      tag_48\n      jump\t// in\n    tag_81:\n        /* \"#utility.yul\":1763:1788   */\n      swap2\n      pop\n        /* \"#utility.yul\":1802:1822   */\n      tag_82\n        /* \"#utility.yul\":1820:1821   */\n      dup4\n        /* \"#utility.yul\":1802:1822   */\n      tag_48\n      jump\t// in\n    tag_82:\n        /* \"#utility.yul\":1797:1822   */\n      swap3\n      pop\n        /* \"#utility.yul\":1846:1847   */\n      dup3\n        /* \"#utility.yul\":1843:1844   */\n      dup3\n        /* \"#utility.yul\":1839:1848   */\n      sub\n        /* \"#utility.yul\":1831:1848   */\n      swap1\n      pop\n        /* \"#utility.yul\":1870:1871   */\n      dup2\n        /* \"#utility.yul\":1864:1868   */\n      dup2\n        /* \"#utility.yul\":1861:1872   */\n      gt\n        /* \"#utility.yul\":1858:1895   */\n      iszero\n      tag_83\n      jumpi\n        /* \"#utility.yul\":1875:1893   */\n      tag_84\n      tag_55\n      jump\t// in\n    tag_84:\n        /* \"#utility.yul\":1858:1895   */\n    tag_83:\n        /* \"#utility.yul\":1708:1902   */\n      swap3\n      swap2\n      pop\n      pop\n      jump\t// out\n        /* \"#utility.yul\":1908:2318   */\n    tag_38:\n        /* \"#utility.yul\":1948:1955   */\n      0x00\n        /* \"#utility.yul\":1971:1991   */\n      tag_86\n        /* \"#utility.yul\":1989:1990   */\n      dup3\n        /* \"#utility.yul\":1971:1991   */\n      tag_48\n      jump\t// in\n    tag_86:\n        /* \"#utility.yul\":1966:1991   */\n      swap2\n      pop\n        /* \"#utility.yul\":2005:2025   */\n      tag_87\n        /* \"#utility.yul\":2023:2024   */\n      dup4\n        /* \"#utility.yul\":2005:2025   */\n      tag_48\n      jump\t// in\n    tag_87:\n        /* \"#utility.yul\":2000:2025   */\n      swap3\n      pop\n        /* \"#utility.yul\":2060:2061   */\n      dup3\n        /* \"#utility.yul\":2057:2058   */\n      dup3\n        /* \"#utility.yul\":2053:2062   */\n      mul\n        /* \"#utility.yul\":2082:2112   */\n      tag_88\n        /* \"#utility.yul\":2100:2111   */\n      dup2\n        /* \"#utility.yul\":2082:2112   */\n      tag_48\n      jump\t// in\n    tag_88:\n        /* \"#utility.yul\":2071:2112   */\n      swap2\n      pop\n        /* \"#utility.yul\":2261:2262   */\n      dup3\n        /* \"#utility.yul\":2252:2259   */\n      dup3\n        /* \"#utility.yul\":2248:2263   */\n      div\n        /* \"#utility.yul\":2245:2246   */\n      dup5\n        /* \"#utility.yul\":2242:2264   */\n      eq\n        /* \"#utility.yul\":2222:2223   */\n      dup4\n        /* \"#utility.yul\":2215:2224   */\n      iszero\n        /* \"#utility.yul\":2195:2278   */\n      or\n        /* \"#utility.yul\":2172:2311   */\n      tag_89\n      jumpi\n        /* \"#utility.yul\":2291:2309   */\n      tag_90\n      tag_55\n      jump\t// in\n    tag_90:\n        /* \"#utility.yul\":2172:2311   */\n    tag_89:\n        /* \"#utility.yul\":1956:2318   */\n      pop\n        /* \"#utility.yul\":1908:2318   */\n      swap3\n      swap2\n      pop\n      pop\n      jump\t// out\n        /* \"#utility.yul\":2324:2493   */\n    tag_56:\n        /* \"#utility.yul\":2408:2419   */\n      0x00\n        /* \"#utility.yul\":2442:2448   */\n      dup3\n        /* \"#utility.yul\":2437:2440   */\n      dup3\n        /* \"#utility.yul\":2430:2449   */\n      mstore\n        /* \"#utility.yul\":2482:2486   */\n      0x20\n        /* \"#utility.yul\":2477:2480   */\n      dup3\n        /* \"#utility.yul\":2473:2487   */\n      add\n        /* \"#utility.yul\":2458:2487   */\n      swap1\n      pop\n        /* \"#utility.yul\":2324:2493   */\n      swap3\n      swap2\n      pop\n      pop\n      jump\t// out\n        /* \"#utility.yul\":2499:2670   */\n    tag_57:\n        /* \"#utility.yul\":2639:2662   */\n      0x43616e6e6f7420646976696465206279207a65726f0000000000000000000000\n        /* \"#utility.yul\":2635:2636   */\n      0x00\n        /* \"#utility.yul\":2627:2633   */\n      dup3\n        /* \"#utility.yul\":2623:2637   */\n      add\n        /* \"#utility.yul\":2616:2663   */\n      mstore\n        /* \"#utility.yul\":2499:2670   */\n      pop\n      jump\t// out\n        /* \"#utility.yul\":2676:3042   */\n    tag_58:\n        /* \"#utility.yul\":2818:2821   */\n      0x00\n        /* \"#utility.yul\":2839:2906   */\n      tag_94\n        /* \"#utility.yul\":2903:2905   */\n      0x15\n        /* \"#utility.yul\":2898:2901   */\n      dup4\n        /* \"#utility.yul\":2839:2906   */\n      tag_56\n      jump\t// in\n    tag_94:\n        /* \"#utility.yul\":2832:2906   */\n      swap2\n      pop\n        /* \"#utility.yul\":2915:3008   */\n      tag_95\n        /* \"#utility.yul\":3004:3007   */\n      dup3\n        /* \"#utility.yul\":2915:3008   */\n      tag_57\n      jump\t// in\n    tag_95:\n        /* \"#utility.yul\":3033:3035   */\n      0x20\n        /* \"#utility.yul\":3028:3031   */\n      dup3\n        /* \"#utility.yul\":3024:3036   */\n      add\n        /* \"#utility.yul\":3017:3036   */\n      swap1\n      pop\n        /* \"#utility.yul\":2676:3042   */\n      swap2\n      swap1\n      pop\n      jump\t// out\n        /* \"#utility.yul\":3048:3467   */\n    tag_42:\n        /* \"#utility.yul\":3214:3218   */\n      0x00\n        /* \"#utility.yul\":3252:3254   */\n      0x20\n        /* \"#utility.yul\":3241:3250   */\n      dup3\n        /* \"#utility.yul\":3237:3255   */\n      add\n        /* \"#utility.yul\":3229:3255   */\n      swap1\n      pop\n        /* \"#utility.yul\":3301:3310   */\n      dup2\n        /* \"#utility.yul\":3295:3299   */\n      dup2\n        /* \"#utility.yul\":3291:3311   */\n      sub\n        /* \"#utility.yul\":3287:3288   */\n      0x00\n        /* \"#utility.yul\":3276:3285   */\n      dup4\n        /* \"#utility.yul\":3272:3289   */\n      add\n        /* \"#utility.yul\":3265:3312   */\n      mstore\n        /* \"#utility.yul\":3329:3460   */\n      tag_97\n        /* \"#utility.yul\":3455:3459   */\n      dup2\n        /* \"#utility.yul\":3329:3460   */\n      tag_58\n      jump\t// in\n    tag_97:\n        /* \"#utility.yul\":3321:3460   */\n      swap1\n      pop\n        /* \"#utility.yul\":3048:3467   */\n      swap2\n      swap1\n      pop\n      jump\t// out\n        /* \"#utility.yul\":3473:3653   */\n    tag_59:\n        /* \"#utility.yul\":3521:3598   */\n      0x4e487b7100000000000000000000000000000000000000000000000000000000\n        /* \"#utility.yul\":3518:3519   */\n      0x00\n        /* \"#utility.yul\":3511:3599   */\n      mstore\n        /* \"#utility.yul\":3618:3622   */\n      0x12\n        /* \"#utility.yul\":3615:3616   */\n      0x04\n        /* \"#utility.yul\":3608:3623   */\n      mstore\n        /* \"#utility.yul\":3642:3646   */\n      0x24\n        /* \"#utility.yul\":3639:3640   */\n      0x00\n        /* \"#utility.yul\":3632:3647   */\n      revert\n        /* \"#utility.yul\":3659:3844   */\n    tag_44:\n        /* \"#utility.yul\":3699:3700   */\n      0x00\n        /* \"#utility.yul\":3716:3736   */\n      tag_100\n        /* \"#utility.yul\":3734:3735   */\n      dup3\n        /* \"#utility.yul\":3716:3736   */\n      tag_48\n      jump\t// in\n    tag_100:\n        /* \"#utility.yul\":3711:3736   */\n      swap2\n      pop\n        /* \"#utility.yul\":3750:3770   */\n      tag_101\n        /* \"#utility.yul\":3768:3769   */\n      dup4\n        /* \"#utility.yul\":3750:3770   */\n      tag_48\n      jump\t// in\n    tag_101:\n        /* \"#utility.yul\":3745:3770   */\n      swap3\n      pop\n        /* \"#utility.yul\":3789:3790   */\n      dup3\n        /* \"#utility.yul\":3779:3814   */\n      tag_102\n      jumpi\n        /* \"#utility.yul\":3794:3812   */\n      tag_103\n      tag_59\n      jump\t// in\n    tag_103:\n        /* \"#utility.yul\":3779:3814   */\n    tag_102:\n        /* \"#utility.yul\":3836:3837   */\n      dup3\n        /* \"#utility.yul\":3833:3834   */\n      dup3\n        /* \"#utility.yul\":3829:3838   */\n      div\n        /* \"#utility.yul\":3824:3838   */\n      swap1\n      pop\n        /* \"#utility.yul\":3659:3844   */\n      swap3\n      swap2\n      pop\n      pop\n      jump\t// out\n        /* \"#utility.yul\":3850:4041   */\n    tag_47:\n        /* \"#utility.yul\":3890:3893   */\n      0x00\n        /* \"#utility.yul\":3909:3929   */\n      tag_105\n        /* \"#utility.yul\":3927:3928   */\n      dup3\n        /* \"#utility.yul\":3909:3929   */\n      tag_48\n      jump\t// in\n    tag_105:\n        /* \"#utility.yul\":3904:3929   */\n      swap2\n      pop\n        /* \"#utility.yul\":3943:3963   */\n      tag_106\n        /* \"#utility.yul\":3961:3962   */\n      dup4\n        /* \"#utility.yul\":3943:3963   */\n      tag_48\n      jump\t// in\n    tag_106:\n        /* \"#utility.yul\":3938:3963   */\n      swap3\n      pop\n        /* \"#utility.yul\":3986:3987   */\n      dup3\n        /* \"#utility.yul\":3983:3984   */\n      dup3\n        /* \"#utility.yul\":3979:3988   */\n      add\n        /* \"#utility.yul\":3972:3988   */\n      swap1\n      pop\n        /* \"#utility.yul\":4007:4010   */\n      dup1\n        /* \"#utility.yul\":4004:4005   */\n      dup3\n        /* \"#utility.yul\":4001:4011   */\n      gt\n        /* \"#utility.yul\":3998:4034   */\n      iszero\n      tag_107\n      jumpi\n        /* \"#utility.yul\":4014:4032   */\n      tag_108\n      tag_55\n      jump\t// in\n    tag_108:\n        /* \"#utility.yul\":3998:4034   */\n    tag_107:\n        /* \"#utility.yul\":3850:4041   */\n      swap3\n      swap2\n      pop\n      pop\n      jump\t// out\n\n    auxdata: 0xa26469706673582212203579559a286798bde69d69652eb1139fcacf7a7d17038c0d809c26cd56ced5c964736f6c634300081e0033\n}\n",
				"bytecode": {
					"linkReferences": {},
					"object": "6080604052348015600e575f5ffd5b506104b18061001c5f395ff3fe608060405234801561000f575f5ffd5b5060043610610060575f3560e01c806315d4266c146100645780633b9eac4b14610082578063a95cb7f7146100a0578063ba88c3b7146100d0578063c44fffd314610100578063cad0899b14610130575b5f5ffd5b61006c610160565b604051610079919061024d565b60405180910390f35b61008a610166565b604051610097919061024d565b60405180910390f35b6100ba60048036038101906100b59190610294565b61016b565b6040516100c7919061024d565b60405180910390f35b6100ea60048036038101906100e59190610294565b61018d565b6040516100f7919061024d565b60405180910390f35b61011a60048036038101906101159190610294565b6101af565b604051610127919061024d565b60405180910390f35b61014a60048036038101906101459190610294565b610213565b604051610157919061024d565b60405180910390f35b60015481565b5f5481565b5f825f8190555081600181905550818361018591906102ff565b905092915050565b5f825f819055508160018190555081836101a79190610332565b905092915050565b5f5f82036101f2576040517f08c379a00000000000000000000000000000000000000000000000000000000081526004016101e9906103cd565b60405180910390fd5b825f8190555081600181905550818361020b9190610418565b905092915050565b5f825f8190555081600181905550818361022d9190610448565b905092915050565b5f819050919050565b61024781610235565b82525050565b5f6020820190506102605f83018461023e565b92915050565b5f5ffd5b61027381610235565b811461027d575f5ffd5b50565b5f8135905061028e8161026a565b92915050565b5f5f604083850312156102aa576102a9610266565b5b5f6102b785828601610280565b92505060206102c885828601610280565b9150509250929050565b7f4e487b71000000000000000000000000000000000000000000000000000000005f52601160045260245ffd5b5f61030982610235565b915061031483610235565b925082820390508181111561032c5761032b6102d2565b5b92915050565b5f61033c82610235565b915061034783610235565b925082820261035581610235565b9150828204841483151761036c5761036b6102d2565b5b5092915050565b5f82825260208201905092915050565b7f43616e6e6f7420646976696465206279207a65726f00000000000000000000005f82015250565b5f6103b7601583610373565b91506103c282610383565b602082019050919050565b5f6020820190508181035f8301526103e4816103ab565b9050919050565b7f4e487b71000000000000000000000000000000000000000000000000000000005f52601260045260245ffd5b5f61042282610235565b915061042d83610235565b92508261043d5761043c6103eb565b5b828204905092915050565b5f61045282610235565b915061045d83610235565b9250828201905080821115610475576104746102d2565b5b9291505056fea26469706673582212203579559a286798bde69d69652eb1139fcacf7a7d17038c0d809c26cd56ced5c964736f6c634300081e0033",
					"opcodes": "PUSH1 0x80 PUSH1 0x40 MSTORE CALLVALUE DUP1 ISZERO PUSH1 0xE JUMPI PUSH0 PUSH0 REVERT JUMPDEST POP PUSH2 0x4B1 DUP1 PUSH2 0x1C PUSH0 CODECOPY PUSH0 RETURN INVALID PUSH1 0x80 PUSH1 0x40 MSTORE CALLVALUE DUP1 ISZERO PUSH2 0xF JUMPI PUSH0 PUSH0 REVERT JUMPDEST POP PUSH1 0x4 CALLDATASIZE LT PUSH2 0x60 JUMPI PUSH0 CALLDATALOAD PUSH1 0xE0 SHR DUP1 PUSH4 0x15D4266C EQ PUSH2 0x64 JUMPI DUP1 PUSH4 0x3B9EAC4B EQ PUSH2 0x82 JUMPI DUP1 PUSH4 0xA95CB7F7 EQ PUSH2 0xA0 JUMPI DUP1 PUSH4 0xBA88C3B7 EQ PUSH2 0xD0 JUMPI DUP1 PUSH4 0xC44FFFD3 EQ PUSH2 0x100 JUMPI DUP1 PUSH4 0xCAD0899B EQ PUSH2 0x130 JUMPI JUMPDEST PUSH0 PUSH0 REVERT JUMPDEST PUSH2 0x6C PUSH2 0x160 JUMP JUMPDEST PUSH1 0x40 MLOAD PUSH2 0x79 SWAP2 SWAP1 PUSH2 0x24D JUMP JUMPDEST PUSH1 0x40 MLOAD DUP1 SWAP2 SUB SWAP1 RETURN JUMPDEST PUSH2 0x8A PUSH2 0x166 JUMP JUMPDEST PUSH1 0x40 MLOAD PUSH2 0x97 SWAP2 SWAP1 PUSH2 0x24D JUMP JUMPDEST PUSH1 0x40 MLOAD DUP1 SWAP2 SUB SWAP1 RETURN JUMPDEST PUSH2 0xBA PUSH1 0x4 DUP1 CALLDATASIZE SUB DUP2 ADD SWAP1 PUSH2 0xB5 SWAP2 SWAP1 PUSH2 0x294 JUMP JUMPDEST PUSH2 0x16B JUMP JUMPDEST PUSH1 0x40 MLOAD PUSH2 0xC7 SWAP2 SWAP1 PUSH2 0x24D JUMP JUMPDEST PUSH1 0x40 MLOAD DUP1 SWAP2 SUB SWAP1 RETURN JUMPDEST PUSH2 0xEA PUSH1 0x4 DUP1 CALLDATASIZE SUB DUP2 ADD SWAP1 PUSH2 0xE5 SWAP2 SWAP1 PUSH2 0x294 JUMP JUMPDEST PUSH2 0x18D JUMP JUMPDEST PUSH1 0x40 MLOAD PUSH2 0xF7 SWAP2 SWAP1 PUSH2 0x24D JUMP JUMPDEST PUSH1 0x40 MLOAD DUP1 SWAP2 SUB SWAP1 RETURN JUMPDEST PUSH2 0x11A PUSH1 0x4 DUP1 CALLDATASIZE SUB DUP2 ADD SWAP1 PUSH2 0x115 SWAP2 SWAP1 PUSH2 0x294 JUMP JUMPDEST PUSH2 0x1AF JUMP JUMPDEST PUSH1 0x40 MLOAD PUSH2 0x127 SWAP2 SWAP1 PUSH2 0x24D JUMP JUMPDEST PUSH1 0x40 MLOAD DUP1 SWAP2 SUB SWAP1 RETURN JUMPDEST PUSH2 0x14A PUSH1 0x4 DUP1 CALLDATASIZE SUB DUP2 ADD SWAP1 PUSH2 0x145 SWAP2 SWAP1 PUSH2 0x294 JUMP JUMPDEST PUSH2 0x213 JUMP JUMPDEST PUSH1 0x40 MLOAD PUSH2 0x157 SWAP2 SWAP1 PUSH2 0x24D JUMP JUMPDEST PUSH1 0x40 MLOAD DUP1 SWAP2 SUB SWAP1 RETURN JUMPDEST PUSH1 0x1 SLOAD DUP2 JUMP JUMPDEST PUSH0 SLOAD DUP2 JUMP JUMPDEST PUSH0 DUP3 PUSH0 DUP2 SWAP1 SSTORE POP DUP2 PUSH1 0x1 DUP2 SWAP1 SSTORE POP DUP2 DUP4 PUSH2 0x185 SWAP2 SWAP1 PUSH2 0x2FF JUMP JUMPDEST SWAP1 POP SWAP3 SWAP2 POP POP JUMP JUMPDEST PUSH0 DUP3 PUSH0 DUP2 SWAP1 SSTORE POP DUP2 PUSH1 0x1 DUP2 SWAP1 SSTORE POP DUP2 DUP4 PUSH2 0x1A7 SWAP2 SWAP1 PUSH2 0x332 JUMP JUMPDEST SWAP1 POP SWAP3 SWAP2 POP POP JUMP JUMPDEST PUSH0 PUSH0 DUP3 SUB PUSH2 0x1F2 JUMPI PUSH1 0x40 MLOAD PUSH32 0x8C379A000000000000000000000000000000000000000000000000000000000 DUP2 MSTORE PUSH1 0x4 ADD PUSH2 0x1E9 SWAP1 PUSH2 0x3CD JUMP JUMPDEST PUSH1 0x40 MLOAD DUP1 SWAP2 SUB SWAP1 REVERT JUMPDEST DUP3 PUSH0 DUP2 SWAP1 SSTORE POP DUP2 PUSH1 0x1 DUP2 SWAP1 SSTORE POP DUP2 DUP4 PUSH2 0x20B SWAP2 SWAP1 PUSH2 0x418 JUMP JUMPDEST SWAP1 POP SWAP3 SWAP2 POP POP JUMP JUMPDEST PUSH0 DUP3 PUSH0 DUP2 SWAP1 SSTORE POP DUP2 PUSH1 0x1 DUP2 SWAP1 SSTORE POP DUP2 DUP4 PUSH2 0x22D SWAP2 SWAP1 PUSH2 0x448 JUMP JUMPDEST SWAP1 POP SWAP3 SWAP2 POP POP JUMP JUMPDEST PUSH0 DUP2 SWAP1 POP SWAP2 SWAP1 POP JUMP JUMPDEST PUSH2 0x247 DUP2 PUSH2 0x235 JUMP JUMPDEST DUP3 MSTORE POP POP JUMP JUMPDEST PUSH0 PUSH1 0x20 DUP3 ADD SWAP1 POP PUSH2 0x260 PUSH0 DUP4 ADD DUP5 PUSH2 0x23E JUMP JUMPDEST SWAP3 SWAP2 POP POP JUMP JUMPDEST PUSH0 PUSH0 REVERT JUMPDEST PUSH2 0x273 DUP2 PUSH2 0x235 JUMP JUMPDEST DUP2 EQ PUSH2 0x27D JUMPI PUSH0 PUSH0 REVERT JUMPDEST POP JUMP JUMPDEST PUSH0 DUP2 CALLDATALOAD SWAP1 POP PUSH2 0x28E DUP2 PUSH2 0x26A JUMP JUMPDEST SWAP3 SWAP2 POP POP JUMP JUMPDEST PUSH0 PUSH0 PUSH1 0x40 DUP4 DUP6 SUB SLT ISZERO PUSH2 0x2AA JUMPI PUSH2 0x2A9 PUSH2 0x266 JUMP JUMPDEST JUMPDEST PUSH0 PUSH2 0x2B7 DUP6 DUP3 DUP7 ADD PUSH2 0x280 JUMP JUMPDEST SWAP3 POP POP PUSH1 0x20 PUSH2 0x2C8 DUP6 DUP3 DUP7 ADD PUSH2 0x280 JUMP JUMPDEST SWAP2 POP POP SWAP3 POP SWAP3 SWAP1 POP JUMP JUMPDEST PUSH32 0x4E487B7100000000000000000000000000000000000000000000000000000000 PUSH0 MSTORE PUSH1 0x11 PUSH1 0x4 MSTORE PUSH1 0x24 PUSH0 REVERT JUMPDEST PUSH0 PUSH2 0x309 DUP3 PUSH2 0x235 JUMP JUMPDEST SWAP2 POP PUSH2 0x314 DUP4 PUSH2 0x235 JUMP JUMPDEST SWAP3 POP DUP3 DUP3 SUB SWAP1 POP DUP2 DUP2 GT ISZERO PUSH2 0x32C JUMPI PUSH2 0x32B PUSH2 0x2D2 JUMP JUMPDEST JUMPDEST SWAP3 SWAP2 POP POP JUMP JUMPDEST PUSH0 PUSH2 0x33C DUP3 PUSH2 0x235 JUMP JUMPDEST SWAP2 POP PUSH2 0x347 DUP4 PUSH2 0x235 JUMP JUMPDEST SWAP3 POP DUP3 DUP3 MUL PUSH2 0x355 DUP2 PUSH2 0x235 JUMP JUMPDEST SWAP2 POP DUP3 DUP3 DIV DUP5 EQ DUP4 ISZERO OR PUSH2 0x36C JUMPI PUSH2 0x36B PUSH2 0x2D2 JUMP JUMPDEST JUMPDEST POP SWAP3 SWAP2 POP POP JUMP JUMPDEST PUSH0 DUP3 DUP3 MSTORE PUSH1 0x20 DUP3 ADD SWAP1 POP SWAP3 SWAP2 POP POP JUMP JUMPDEST PUSH32 0x43616E6E6F7420646976696465206279207A65726F0000000000000000000000 PUSH0 DUP3 ADD MSTORE POP JUMP JUMPDEST PUSH0 PUSH2 0x3B7 PUSH1 0x15 DUP4 PUSH2 0x373 JUMP JUMPDEST SWAP2 POP PUSH2 0x3C2 DUP3 PUSH2 0x383 JUMP JUMPDEST PUSH1 0x20 DUP3 ADD SWAP1 POP SWAP2 SWAP1 POP JUMP JUMPDEST PUSH0 PUSH1 0x20 DUP3 ADD SWAP1 POP DUP2 DUP2 SUB PUSH0 DUP4 ADD MSTORE PUSH2 0x3E4 DUP2 PUSH2 0x3AB JUMP JUMPDEST SWAP1 POP SWAP2 SWAP1 POP JUMP JUMPDEST PUSH32 0x4E487B7100000000000000000000000000000000000000000000000000000000 PUSH0 MSTORE PUSH1 0x12 PUSH1 0x4 MSTORE PUSH1 0x24 PUSH0 REVERT JUMPDEST PUSH0 PUSH2 0x422 DUP3 PUSH2 0x235 JUMP JUMPDEST SWAP2 POP PUSH2 0x42D DUP4 PUSH2 0x235 JUMP JUMPDEST SWAP3 POP DUP3 PUSH2 0x43D JUMPI PUSH2 0x43C PUSH2 0x3EB JUMP JUMPDEST JUMPDEST DUP3 DUP3 DIV SWAP1 POP SWAP3 SWAP2 POP POP JUMP JUMPDEST PUSH0 PUSH2 0x452 DUP3 PUSH2 0x235 JUMP JUMPDEST SWAP2 POP PUSH2 0x45D DUP4 PUSH2 0x235 JUMP JUMPDEST SWAP3 POP DUP3 DUP3 ADD SWAP1 POP DUP1 DUP3 GT ISZERO PUSH2 0x475 JUMPI PUSH2 0x474 PUSH2 0x2D2 JUMP JUMPDEST JUMPDEST SWAP3 SWAP2 POP POP JUMP INVALID LOG2 PUSH5 0x6970667358 0x22 SLT KECCAK256 CALLDATALOAD PUSH26 0x559A286798BDE69D69652EB1139FCACF7A7D17038C0D809C26CD JUMP 0xCE 0xD5 0xC9 PUSH5 0x736F6C6343 STOP ADDMOD 0x1E STOP CALLER "
				},
				"gasEstimates": {
					"creation": {
						"codeDepositCost": "240200",
						"executionCost": "279",
						"totalCost": "240479"
					},
					"external": {
						"difference(uint256,uint256)": "infinite",
						"num1()": "2424",
						"num2()": "2403",
						"product(uint256,uint256)": "infinite",
						"quotient(uint256,uint256)": "infinite",
						"sum(uint256,uint256)": "infinite"
					}
				},
				"methodIdentifiers": {
					"difference(uint256,uint256)": "a95cb7f7",
					"num1()": "3b9eac4b",
					"num2()": "15d4266c",
					"product(uint256,uint256)": "ba88c3b7",
					"quotient(uint256,uint256)": "c44fffd3",
					"sum(uint256,uint256)": "cad0899b"
				}
			},
			"storageLayout": {
				"storage": [
					{
						"astId": 40,
						"contract": "Contracts/Day 9/Act1_Caller.sol:Receiver",
						"label": "num1",
						"offset": 0,
						"slot": "0",
						"type": "t_uint256"
					},
					{
						"astId": 42,
						"contract": "Contracts/Day 9/Act1_Caller.sol:Receiver",
						"label": "num2",
						"offset": 0,
						"slot": "1",
						"type": "t_uint256"
					}
				],
				"types": {
					"t_uint256": {
						"encoding": "inplace",
						"label": "uint256",
						"numberOfBytes": "32"
					}
				}
			},
			"userdoc": {
				"kind": "user",
				"methods": {},
				"version": 1
			}
		}
	}
}