{
	"Contracts/Day 12/Day12_Act2.sol": {
		"Day12_Act1": {
			"abi": [
				{
					"inputs": [],
					"stateMutability": "nonpayable",
					"type": "constructor"
				},
				{
					"inputs": [],
					"name": "convertEthToPeso",
					"outputs": [
						{
							"internalType": "int256",
							"name": "price",
							"type": "int256"
						}
					],
					"stateMutability": "view",
					"type": "function"
				},
				{
					"inputs": [],
					"name": "getLatestPrice",
					"outputs": [
						{
							"internalType": "int256",
							"name": "price",
							"type": "int256"
						}
					],
					"stateMutability": "view",
					"type": "function"
				}
			],
			"devdoc": {
				"kind": "dev",
				"methods": {},
				"version": 1
			},
			"evm": {
				"assembly": "    /* \"Contracts/Day 12/Day12_Act2.sol\":172:946  contract Day12_Act1 {... */\n  mstore(0x40, 0x80)\n    /* \"Contracts/Day 12/Day12_Act2.sol\":349:435  constructor() {... */\n  callvalue\n  dup1\n  iszero\n  tag_1\n  jumpi\n  revert(0x00, 0x00)\ntag_1:\n  pop\n    /* \"Contracts/Day 12/Day12_Act2.sol\":298:340  0x694AA1769357215DE4FAC081bf1f309aDC325306 */\n  0x694aa1769357215de4fac081bf1f309adc325306\n    /* \"Contracts/Day 12/Day12_Act2.sol\":374:383  priceFeed */\n  0x00\n  0x00\n    /* \"Contracts/Day 12/Day12_Act2.sol\":374:427  priceFeed = AggregatorV3Interface(ETH_USD_PRICE_FEED) */\n  0x0100\n  exp\n  dup2\n  sload\n  dup2\n  0xffffffffffffffffffffffffffffffffffffffff\n  mul\n  not\n  and\n  swap1\n  dup4\n  0xffffffffffffffffffffffffffffffffffffffff\n  and\n  mul\n  or\n  swap1\n  sstore\n  pop\n    /* \"Contracts/Day 12/Day12_Act2.sol\":172:946  contract Day12_Act1 {... */\n  dataSize(sub_0)\n  dup1\n  dataOffset(sub_0)\n  0x00\n  codecopy\n  0x00\n  return\nstop\n\nsub_0: assembly {\n        /* \"Contracts/Day 12/Day12_Act2.sol\":172:946  contract Day12_Act1 {... */\n      mstore(0x40, 0x80)\n      callvalue\n      dup1\n      iszero\n      tag_1\n      jumpi\n      revert(0x00, 0x00)\n    tag_1:\n      pop\n      jumpi(tag_2, lt(calldatasize, 0x04))\n      shr(0xe0, calldataload(0x00))\n      dup1\n      0x31b67838\n      eq\n      tag_3\n      jumpi\n      dup1\n      0x8e15f473\n      eq\n      tag_4\n      jumpi\n    tag_2:\n      revert(0x00, 0x00)\n        /* \"Contracts/Day 12/Day12_Act2.sol\":696:941  function convertEthToPeso()public view returns (int256 price) {... */\n    tag_3:\n      tag_5\n      tag_6\n      jump\t// in\n    tag_5:\n      mload(0x40)\n      tag_7\n      swap2\n      swap1\n      tag_8\n      jump\t// in\n    tag_7:\n      mload(0x40)\n      dup1\n      swap2\n      sub\n      swap1\n      return\n        /* \"Contracts/Day 12/Day12_Act2.sol\":443:684  function getLatestPrice() public view returns (int256 price) {... */\n    tag_4:\n      tag_9\n      tag_10\n      jump\t// in\n    tag_9:\n      mload(0x40)\n      tag_11\n      swap2\n      swap1\n      tag_8\n      jump\t// in\n    tag_11:\n      mload(0x40)\n      dup1\n      swap2\n      sub\n      swap1\n      return\n        /* \"Contracts/Day 12/Day12_Act2.sol\":696:941  function convertEthToPeso()public view returns (int256 price) {... */\n    tag_6:\n        /* \"Contracts/Day 12/Day12_Act2.sol\":744:756  int256 price */\n      0x00\n        /* \"Contracts/Day 12/Day12_Act2.sol\":771:784  int256 answer */\n      0x00\n        /* \"Contracts/Day 12/Day12_Act2.sol\":791:800  priceFeed */\n      0x00\n      0x00\n      swap1\n      sload\n      swap1\n      0x0100\n      exp\n      swap1\n      div\n      0xffffffffffffffffffffffffffffffffffffffff\n      and\n        /* \"Contracts/Day 12/Day12_Act2.sol\":791:816  priceFeed.latestRoundData */\n      0xffffffffffffffffffffffffffffffffffffffff\n      and\n      0xfeaf968c\n        /* \"Contracts/Day 12/Day12_Act2.sol\":791:818  priceFeed.latestRoundData() */\n      mload(0x40)\n      dup2\n      0xffffffff\n      and\n      0xe0\n      shl\n      dup2\n      mstore\n      0x04\n      add\n      0xa0\n      mload(0x40)\n      dup1\n      dup4\n      sub\n      dup2\n      dup7\n      gas\n      staticcall\n      iszero\n      dup1\n      iszero\n      tag_14\n      jumpi\n      returndatacopy(0x00, 0x00, returndatasize)\n      revert(0x00, returndatasize)\n    tag_14:\n      pop\n      pop\n      pop\n      pop\n      mload(0x40)\n      returndatasize\n      not(0x1f)\n      0x1f\n      dup3\n      add\n      and\n      dup3\n      add\n      dup1\n      0x40\n      mstore\n      pop\n      dup2\n      add\n      swap1\n      tag_15\n      swap2\n      swap1\n      tag_16\n      jump\t// in\n    tag_15:\n        /* \"Contracts/Day 12/Day12_Act2.sol\":769:818  (,int256 answer,,,) = priceFeed.latestRoundData() */\n      pop\n      pop\n      pop\n      swap2\n      pop\n      pop\n        /* \"Contracts/Day 12/Day12_Act2.sol\":856:857  0 */\n      0x00\n        /* \"Contracts/Day 12/Day12_Act2.sol\":847:853  answer */\n      dup2\n        /* \"Contracts/Day 12/Day12_Act2.sol\":847:857  answer > 0 */\n      sgt\n        /* \"Contracts/Day 12/Day12_Act2.sol\":839:896  require(answer > 0, \"Price is not available or invalid.\") */\n      tag_17\n      jumpi\n      mload(0x40)\n      0x08c379a000000000000000000000000000000000000000000000000000000000\n      dup2\n      mstore\n      0x04\n      add\n      tag_18\n      swap1\n      tag_19\n      jump\t// in\n    tag_18:\n      mload(0x40)\n      dup1\n      swap2\n      sub\n      swap1\n      revert\n    tag_17:\n        /* \"Contracts/Day 12/Day12_Act2.sol\":931:933  59 */\n      0x3b\n        /* \"Contracts/Day 12/Day12_Act2.sol\":924:930  answer */\n      dup2\n        /* \"Contracts/Day 12/Day12_Act2.sol\":924:933  answer*59 */\n      tag_20\n      swap2\n      swap1\n      tag_21\n      jump\t// in\n    tag_20:\n        /* \"Contracts/Day 12/Day12_Act2.sol\":917:933  return answer*59 */\n      swap2\n      pop\n      pop\n        /* \"Contracts/Day 12/Day12_Act2.sol\":696:941  function convertEthToPeso()public view returns (int256 price) {... */\n      swap1\n      jump\t// out\n        /* \"Contracts/Day 12/Day12_Act2.sol\":443:684  function getLatestPrice() public view returns (int256 price) {... */\n    tag_10:\n        /* \"Contracts/Day 12/Day12_Act2.sol\":490:502  int256 price */\n      0x00\n        /* \"Contracts/Day 12/Day12_Act2.sol\":517:530  int256 answer */\n      0x00\n        /* \"Contracts/Day 12/Day12_Act2.sol\":537:546  priceFeed */\n      0x00\n      0x00\n      swap1\n      sload\n      swap1\n      0x0100\n      exp\n      swap1\n      div\n      0xffffffffffffffffffffffffffffffffffffffff\n      and\n        /* \"Contracts/Day 12/Day12_Act2.sol\":537:562  priceFeed.latestRoundData */\n      0xffffffffffffffffffffffffffffffffffffffff\n      and\n      0xfeaf968c\n        /* \"Contracts/Day 12/Day12_Act2.sol\":537:564  priceFeed.latestRoundData() */\n      mload(0x40)\n      dup2\n      0xffffffff\n      and\n      0xe0\n      shl\n      dup2\n      mstore\n      0x04\n      add\n      0xa0\n      mload(0x40)\n      dup1\n      dup4\n      sub\n      dup2\n      dup7\n      gas\n      staticcall\n      iszero\n      dup1\n      iszero\n      tag_24\n      jumpi\n      returndatacopy(0x00, 0x00, returndatasize)\n      revert(0x00, returndatasize)\n    tag_24:\n      pop\n      pop\n      pop\n      pop\n      mload(0x40)\n      returndatasize\n      not(0x1f)\n      0x1f\n      dup3\n      add\n      and\n      dup3\n      add\n      dup1\n      0x40\n      mstore\n      pop\n      dup2\n      add\n      swap1\n      tag_25\n      swap2\n      swap1\n      tag_16\n      jump\t// in\n    tag_25:\n        /* \"Contracts/Day 12/Day12_Act2.sol\":515:564  (,int256 answer,,,) = priceFeed.latestRoundData() */\n      pop\n      pop\n      pop\n      swap2\n      pop\n      pop\n        /* \"Contracts/Day 12/Day12_Act2.sol\":602:603  0 */\n      0x00\n        /* \"Contracts/Day 12/Day12_Act2.sol\":593:599  answer */\n      dup2\n        /* \"Contracts/Day 12/Day12_Act2.sol\":593:603  answer > 0 */\n      sgt\n        /* \"Contracts/Day 12/Day12_Act2.sol\":585:642  require(answer > 0, \"Price is not available or invalid.\") */\n      tag_26\n      jumpi\n      mload(0x40)\n      0x08c379a000000000000000000000000000000000000000000000000000000000\n      dup2\n      mstore\n      0x04\n      add\n      tag_27\n      swap1\n      tag_19\n      jump\t// in\n    tag_27:\n      mload(0x40)\n      dup1\n      swap2\n      sub\n      swap1\n      revert\n    tag_26:\n        /* \"Contracts/Day 12/Day12_Act2.sol\":670:676  answer */\n      dup1\n        /* \"Contracts/Day 12/Day12_Act2.sol\":663:676  return answer */\n      swap2\n      pop\n      pop\n        /* \"Contracts/Day 12/Day12_Act2.sol\":443:684  function getLatestPrice() public view returns (int256 price) {... */\n      swap1\n      jump\t// out\n        /* \"#utility.yul\":7:83   */\n    tag_28:\n        /* \"#utility.yul\":43:50   */\n      0x00\n        /* \"#utility.yul\":72:77   */\n      dup2\n        /* \"#utility.yul\":61:77   */\n      swap1\n      pop\n        /* \"#utility.yul\":7:83   */\n      swap2\n      swap1\n      pop\n      jump\t// out\n        /* \"#utility.yul\":89:204   */\n    tag_29:\n        /* \"#utility.yul\":174:197   */\n      tag_48\n        /* \"#utility.yul\":191:196   */\n      dup2\n        /* \"#utility.yul\":174:197   */\n      tag_28\n      jump\t// in\n    tag_48:\n        /* \"#utility.yul\":169:172   */\n      dup3\n        /* \"#utility.yul\":162:198   */\n      mstore\n        /* \"#utility.yul\":89:204   */\n      pop\n      pop\n      jump\t// out\n        /* \"#utility.yul\":210:428   */\n    tag_8:\n        /* \"#utility.yul\":301:305   */\n      0x00\n        /* \"#utility.yul\":339:341   */\n      0x20\n        /* \"#utility.yul\":328:337   */\n      dup3\n        /* \"#utility.yul\":324:342   */\n      add\n        /* \"#utility.yul\":316:342   */\n      swap1\n      pop\n        /* \"#utility.yul\":352:421   */\n      tag_50\n        /* \"#utility.yul\":418:419   */\n      0x00\n        /* \"#utility.yul\":407:416   */\n      dup4\n        /* \"#utility.yul\":403:420   */\n      add\n        /* \"#utility.yul\":394:400   */\n      dup5\n        /* \"#utility.yul\":352:421   */\n      tag_29\n      jump\t// in\n    tag_50:\n        /* \"#utility.yul\":210:428   */\n      swap3\n      swap2\n      pop\n      pop\n      jump\t// out\n        /* \"#utility.yul\":515:632   */\n    tag_31:\n        /* \"#utility.yul\":624:625   */\n      0x00\n        /* \"#utility.yul\":621:622   */\n      0x00\n        /* \"#utility.yul\":614:626   */\n      revert\n        /* \"#utility.yul\":761:866   */\n    tag_33:\n        /* \"#utility.yul\":797:804   */\n      0x00\n        /* \"#utility.yul\":837:859   */\n      0xffffffffffffffffffff\n        /* \"#utility.yul\":830:835   */\n      dup3\n        /* \"#utility.yul\":826:860   */\n      and\n        /* \"#utility.yul\":815:860   */\n      swap1\n      pop\n        /* \"#utility.yul\":761:866   */\n      swap2\n      swap1\n      pop\n      jump\t// out\n        /* \"#utility.yul\":872:992   */\n    tag_34:\n        /* \"#utility.yul\":944:967   */\n      tag_56\n        /* \"#utility.yul\":961:966   */\n      dup2\n        /* \"#utility.yul\":944:967   */\n      tag_33\n      jump\t// in\n    tag_56:\n        /* \"#utility.yul\":937:942   */\n      dup2\n        /* \"#utility.yul\":934:968   */\n      eq\n        /* \"#utility.yul\":924:986   */\n      tag_57\n      jumpi\n        /* \"#utility.yul\":982:983   */\n      0x00\n        /* \"#utility.yul\":979:980   */\n      0x00\n        /* \"#utility.yul\":972:984   */\n      revert\n        /* \"#utility.yul\":924:986   */\n    tag_57:\n        /* \"#utility.yul\":872:992   */\n      pop\n      jump\t// out\n        /* \"#utility.yul\":998:1139   */\n    tag_35:\n        /* \"#utility.yul\":1054:1059   */\n      0x00\n        /* \"#utility.yul\":1085:1091   */\n      dup2\n        /* \"#utility.yul\":1079:1092   */\n      mload\n        /* \"#utility.yul\":1070:1092   */\n      swap1\n      pop\n        /* \"#utility.yul\":1101:1133   */\n      tag_59\n        /* \"#utility.yul\":1127:1132   */\n      dup2\n        /* \"#utility.yul\":1101:1133   */\n      tag_34\n      jump\t// in\n    tag_59:\n        /* \"#utility.yul\":998:1139   */\n      swap3\n      swap2\n      pop\n      pop\n      jump\t// out\n        /* \"#utility.yul\":1145:1265   */\n    tag_36:\n        /* \"#utility.yul\":1217:1240   */\n      tag_61\n        /* \"#utility.yul\":1234:1239   */\n      dup2\n        /* \"#utility.yul\":1217:1240   */\n      tag_28\n      jump\t// in\n    tag_61:\n        /* \"#utility.yul\":1210:1215   */\n      dup2\n        /* \"#utility.yul\":1207:1241   */\n      eq\n        /* \"#utility.yul\":1197:1259   */\n      tag_62\n      jumpi\n        /* \"#utility.yul\":1255:1256   */\n      0x00\n        /* \"#utility.yul\":1252:1253   */\n      0x00\n        /* \"#utility.yul\":1245:1257   */\n      revert\n        /* \"#utility.yul\":1197:1259   */\n    tag_62:\n        /* \"#utility.yul\":1145:1265   */\n      pop\n      jump\t// out\n        /* \"#utility.yul\":1271:1412   */\n    tag_37:\n        /* \"#utility.yul\":1327:1332   */\n      0x00\n        /* \"#utility.yul\":1358:1364   */\n      dup2\n        /* \"#utility.yul\":1352:1365   */\n      mload\n        /* \"#utility.yul\":1343:1365   */\n      swap1\n      pop\n        /* \"#utility.yul\":1374:1406   */\n      tag_64\n        /* \"#utility.yul\":1400:1405   */\n      dup2\n        /* \"#utility.yul\":1374:1406   */\n      tag_36\n      jump\t// in\n    tag_64:\n        /* \"#utility.yul\":1271:1412   */\n      swap3\n      swap2\n      pop\n      pop\n      jump\t// out\n        /* \"#utility.yul\":1418:1495   */\n    tag_38:\n        /* \"#utility.yul\":1455:1462   */\n      0x00\n        /* \"#utility.yul\":1484:1489   */\n      dup2\n        /* \"#utility.yul\":1473:1489   */\n      swap1\n      pop\n        /* \"#utility.yul\":1418:1495   */\n      swap2\n      swap1\n      pop\n      jump\t// out\n        /* \"#utility.yul\":1501:1623   */\n    tag_39:\n        /* \"#utility.yul\":1574:1598   */\n      tag_67\n        /* \"#utility.yul\":1592:1597   */\n      dup2\n        /* \"#utility.yul\":1574:1598   */\n      tag_38\n      jump\t// in\n    tag_67:\n        /* \"#utility.yul\":1567:1572   */\n      dup2\n        /* \"#utility.yul\":1564:1599   */\n      eq\n        /* \"#utility.yul\":1554:1617   */\n      tag_68\n      jumpi\n        /* \"#utility.yul\":1613:1614   */\n      0x00\n        /* \"#utility.yul\":1610:1611   */\n      0x00\n        /* \"#utility.yul\":1603:1615   */\n      revert\n        /* \"#utility.yul\":1554:1617   */\n    tag_68:\n        /* \"#utility.yul\":1501:1623   */\n      pop\n      jump\t// out\n        /* \"#utility.yul\":1629:1772   */\n    tag_40:\n        /* \"#utility.yul\":1686:1691   */\n      0x00\n        /* \"#utility.yul\":1717:1723   */\n      dup2\n        /* \"#utility.yul\":1711:1724   */\n      mload\n        /* \"#utility.yul\":1702:1724   */\n      swap1\n      pop\n        /* \"#utility.yul\":1733:1766   */\n      tag_70\n        /* \"#utility.yul\":1760:1765   */\n      dup2\n        /* \"#utility.yul\":1733:1766   */\n      tag_39\n      jump\t// in\n    tag_70:\n        /* \"#utility.yul\":1629:1772   */\n      swap3\n      swap2\n      pop\n      pop\n      jump\t// out\n        /* \"#utility.yul\":1778:2749   */\n    tag_16:\n        /* \"#utility.yul\":1881:1887   */\n      0x00\n        /* \"#utility.yul\":1889:1895   */\n      0x00\n        /* \"#utility.yul\":1897:1903   */\n      0x00\n        /* \"#utility.yul\":1905:1911   */\n      0x00\n        /* \"#utility.yul\":1913:1919   */\n      0x00\n        /* \"#utility.yul\":1962:1965   */\n      0xa0\n        /* \"#utility.yul\":1950:1959   */\n      dup7\n        /* \"#utility.yul\":1941:1948   */\n      dup9\n        /* \"#utility.yul\":1937:1960   */\n      sub\n        /* \"#utility.yul\":1933:1966   */\n      slt\n        /* \"#utility.yul\":1930:2050   */\n      iszero\n      tag_72\n      jumpi\n        /* \"#utility.yul\":1969:2048   */\n      tag_73\n      tag_31\n      jump\t// in\n    tag_73:\n        /* \"#utility.yul\":1930:2050   */\n    tag_72:\n        /* \"#utility.yul\":2089:2090   */\n      0x00\n        /* \"#utility.yul\":2114:2177   */\n      tag_74\n        /* \"#utility.yul\":2169:2176   */\n      dup9\n        /* \"#utility.yul\":2160:2166   */\n      dup3\n        /* \"#utility.yul\":2149:2158   */\n      dup10\n        /* \"#utility.yul\":2145:2167   */\n      add\n        /* \"#utility.yul\":2114:2177   */\n      tag_35\n      jump\t// in\n    tag_74:\n        /* \"#utility.yul\":2104:2177   */\n      swap6\n      pop\n        /* \"#utility.yul\":2060:2187   */\n      pop\n        /* \"#utility.yul\":2226:2228   */\n      0x20\n        /* \"#utility.yul\":2252:2315   */\n      tag_75\n        /* \"#utility.yul\":2307:2314   */\n      dup9\n        /* \"#utility.yul\":2298:2304   */\n      dup3\n        /* \"#utility.yul\":2287:2296   */\n      dup10\n        /* \"#utility.yul\":2283:2305   */\n      add\n        /* \"#utility.yul\":2252:2315   */\n      tag_37\n      jump\t// in\n    tag_75:\n        /* \"#utility.yul\":2242:2315   */\n      swap5\n      pop\n        /* \"#utility.yul\":2197:2325   */\n      pop\n        /* \"#utility.yul\":2364:2366   */\n      0x40\n        /* \"#utility.yul\":2390:2454   */\n      tag_76\n        /* \"#utility.yul\":2446:2453   */\n      dup9\n        /* \"#utility.yul\":2437:2443   */\n      dup3\n        /* \"#utility.yul\":2426:2435   */\n      dup10\n        /* \"#utility.yul\":2422:2444   */\n      add\n        /* \"#utility.yul\":2390:2454   */\n      tag_40\n      jump\t// in\n    tag_76:\n        /* \"#utility.yul\":2380:2454   */\n      swap4\n      pop\n        /* \"#utility.yul\":2335:2464   */\n      pop\n        /* \"#utility.yul\":2503:2505   */\n      0x60\n        /* \"#utility.yul\":2529:2593   */\n      tag_77\n        /* \"#utility.yul\":2585:2592   */\n      dup9\n        /* \"#utility.yul\":2576:2582   */\n      dup3\n        /* \"#utility.yul\":2565:2574   */\n      dup10\n        /* \"#utility.yul\":2561:2583   */\n      add\n        /* \"#utility.yul\":2529:2593   */\n      tag_40\n      jump\t// in\n    tag_77:\n        /* \"#utility.yul\":2519:2593   */\n      swap3\n      pop\n        /* \"#utility.yul\":2474:2603   */\n      pop\n        /* \"#utility.yul\":2642:2645   */\n      0x80\n        /* \"#utility.yul\":2669:2732   */\n      tag_78\n        /* \"#utility.yul\":2724:2731   */\n      dup9\n        /* \"#utility.yul\":2715:2721   */\n      dup3\n        /* \"#utility.yul\":2704:2713   */\n      dup10\n        /* \"#utility.yul\":2700:2722   */\n      add\n        /* \"#utility.yul\":2669:2732   */\n      tag_35\n      jump\t// in\n    tag_78:\n        /* \"#utility.yul\":2659:2732   */\n      swap2\n      pop\n        /* \"#utility.yul\":2613:2742   */\n      pop\n        /* \"#utility.yul\":1778:2749   */\n      swap3\n      swap6\n      pop\n      swap3\n      swap6\n      swap1\n      swap4\n      pop\n      jump\t// out\n        /* \"#utility.yul\":2755:2924   */\n    tag_41:\n        /* \"#utility.yul\":2839:2850   */\n      0x00\n        /* \"#utility.yul\":2873:2879   */\n      dup3\n        /* \"#utility.yul\":2868:2871   */\n      dup3\n        /* \"#utility.yul\":2861:2880   */\n      mstore\n        /* \"#utility.yul\":2913:2917   */\n      0x20\n        /* \"#utility.yul\":2908:2911   */\n      dup3\n        /* \"#utility.yul\":2904:2918   */\n      add\n        /* \"#utility.yul\":2889:2918   */\n      swap1\n      pop\n        /* \"#utility.yul\":2755:2924   */\n      swap3\n      swap2\n      pop\n      pop\n      jump\t// out\n        /* \"#utility.yul\":2930:3151   */\n    tag_42:\n        /* \"#utility.yul\":3070:3104   */\n      0x5072696365206973206e6f7420617661696c61626c65206f7220696e76616c69\n        /* \"#utility.yul\":3066:3067   */\n      0x00\n        /* \"#utility.yul\":3058:3064   */\n      dup3\n        /* \"#utility.yul\":3054:3068   */\n      add\n        /* \"#utility.yul\":3047:3105   */\n      mstore\n        /* \"#utility.yul\":3139:3143   */\n      0x642e000000000000000000000000000000000000000000000000000000000000\n        /* \"#utility.yul\":3134:3136   */\n      0x20\n        /* \"#utility.yul\":3126:3132   */\n      dup3\n        /* \"#utility.yul\":3122:3137   */\n      add\n        /* \"#utility.yul\":3115:3144   */\n      mstore\n        /* \"#utility.yul\":2930:3151   */\n      pop\n      jump\t// out\n        /* \"#utility.yul\":3157:3523   */\n    tag_43:\n        /* \"#utility.yul\":3299:3302   */\n      0x00\n        /* \"#utility.yul\":3320:3387   */\n      tag_82\n        /* \"#utility.yul\":3384:3386   */\n      0x22\n        /* \"#utility.yul\":3379:3382   */\n      dup4\n        /* \"#utility.yul\":3320:3387   */\n      tag_41\n      jump\t// in\n    tag_82:\n        /* \"#utility.yul\":3313:3387   */\n      swap2\n      pop\n        /* \"#utility.yul\":3396:3489   */\n      tag_83\n        /* \"#utility.yul\":3485:3488   */\n      dup3\n        /* \"#utility.yul\":3396:3489   */\n      tag_42\n      jump\t// in\n    tag_83:\n        /* \"#utility.yul\":3514:3516   */\n      0x40\n        /* \"#utility.yul\":3509:3512   */\n      dup3\n        /* \"#utility.yul\":3505:3517   */\n      add\n        /* \"#utility.yul\":3498:3517   */\n      swap1\n      pop\n        /* \"#utility.yul\":3157:3523   */\n      swap2\n      swap1\n      pop\n      jump\t// out\n        /* \"#utility.yul\":3529:3948   */\n    tag_19:\n        /* \"#utility.yul\":3695:3699   */\n      0x00\n        /* \"#utility.yul\":3733:3735   */\n      0x20\n        /* \"#utility.yul\":3722:3731   */\n      dup3\n        /* \"#utility.yul\":3718:3736   */\n      add\n        /* \"#utility.yul\":3710:3736   */\n      swap1\n      pop\n        /* \"#utility.yul\":3782:3791   */\n      dup2\n        /* \"#utility.yul\":3776:3780   */\n      dup2\n        /* \"#utility.yul\":3772:3792   */\n      sub\n        /* \"#utility.yul\":3768:3769   */\n      0x00\n        /* \"#utility.yul\":3757:3766   */\n      dup4\n        /* \"#utility.yul\":3753:3770   */\n      add\n        /* \"#utility.yul\":3746:3793   */\n      mstore\n        /* \"#utility.yul\":3810:3941   */\n      tag_85\n        /* \"#utility.yul\":3936:3940   */\n      dup2\n        /* \"#utility.yul\":3810:3941   */\n      tag_43\n      jump\t// in\n    tag_85:\n        /* \"#utility.yul\":3802:3941   */\n      swap1\n      pop\n        /* \"#utility.yul\":3529:3948   */\n      swap2\n      swap1\n      pop\n      jump\t// out\n        /* \"#utility.yul\":3954:4134   */\n    tag_44:\n        /* \"#utility.yul\":4002:4079   */\n      0x4e487b7100000000000000000000000000000000000000000000000000000000\n        /* \"#utility.yul\":3999:4000   */\n      0x00\n        /* \"#utility.yul\":3992:4080   */\n      mstore\n        /* \"#utility.yul\":4099:4103   */\n      0x11\n        /* \"#utility.yul\":4096:4097   */\n      0x04\n        /* \"#utility.yul\":4089:4104   */\n      mstore\n        /* \"#utility.yul\":4123:4127   */\n      0x24\n        /* \"#utility.yul\":4120:4121   */\n      0x00\n        /* \"#utility.yul\":4113:4128   */\n      revert\n        /* \"#utility.yul\":4140:4696   */\n    tag_21:\n        /* \"#utility.yul\":4179:4186   */\n      0x00\n        /* \"#utility.yul\":4202:4221   */\n      tag_88\n        /* \"#utility.yul\":4219:4220   */\n      dup3\n        /* \"#utility.yul\":4202:4221   */\n      tag_28\n      jump\t// in\n    tag_88:\n        /* \"#utility.yul\":4197:4221   */\n      swap2\n      pop\n        /* \"#utility.yul\":4235:4254   */\n      tag_89\n        /* \"#utility.yul\":4252:4253   */\n      dup4\n        /* \"#utility.yul\":4235:4254   */\n      tag_28\n      jump\t// in\n    tag_89:\n        /* \"#utility.yul\":4230:4254   */\n      swap3\n      pop\n        /* \"#utility.yul\":4289:4290   */\n      dup3\n        /* \"#utility.yul\":4286:4287   */\n      dup3\n        /* \"#utility.yul\":4282:4291   */\n      mul\n        /* \"#utility.yul\":4311:4340   */\n      tag_90\n        /* \"#utility.yul\":4328:4339   */\n      dup2\n        /* \"#utility.yul\":4311:4340   */\n      tag_28\n      jump\t// in\n    tag_90:\n        /* \"#utility.yul\":4300:4340   */\n      swap2\n      pop\n        /* \"#utility.yul\":4398:4464   */\n      0x8000000000000000000000000000000000000000000000000000000000000000\n        /* \"#utility.yul\":4395:4396   */\n      dup5\n        /* \"#utility.yul\":4392:4465   */\n      eq\n        /* \"#utility.yul\":4388:4389   */\n      0x00\n        /* \"#utility.yul\":4385:4386   */\n      dup5\n        /* \"#utility.yul\":4381:4390   */\n      slt\n        /* \"#utility.yul\":4377:4466   */\n      and\n        /* \"#utility.yul\":4374:4489   */\n      iszero\n      tag_91\n      jumpi\n        /* \"#utility.yul\":4469:4487   */\n      tag_92\n      tag_44\n      jump\t// in\n    tag_92:\n        /* \"#utility.yul\":4374:4489   */\n    tag_91:\n        /* \"#utility.yul\":4639:4640   */\n      dup3\n        /* \"#utility.yul\":4630:4637   */\n      dup3\n        /* \"#utility.yul\":4625:4641   */\n      sdiv\n        /* \"#utility.yul\":4622:4623   */\n      dup5\n        /* \"#utility.yul\":4619:4642   */\n      eq\n        /* \"#utility.yul\":4599:4600   */\n      dup4\n        /* \"#utility.yul\":4592:4601   */\n      iszero\n        /* \"#utility.yul\":4572:4656   */\n      or\n        /* \"#utility.yul\":4549:4689   */\n      tag_93\n      jumpi\n        /* \"#utility.yul\":4669:4687   */\n      tag_94\n      tag_44\n      jump\t// in\n    tag_94:\n        /* \"#utility.yul\":4549:4689   */\n    tag_93:\n        /* \"#utility.yul\":4187:4696   */\n      pop\n        /* \"#utility.yul\":4140:4696   */\n      swap3\n      swap2\n      pop\n      pop\n      jump\t// out\n\n    auxdata: 0xa264697066735822122059af3100722b628a7c049216ba894096c4473bfa64f1cd28ddcef401d731701f64736f6c634300081e0033\n}\n",
				"bytecode": {
					"linkReferences": {},
					"object": "6080604052348015600e575f5ffd5b5073694aa1769357215de4fac081bf1f309adc3253065f5f6101000a81548173ffffffffffffffffffffffffffffffffffffffff021916908373ffffffffffffffffffffffffffffffffffffffff1602179055506104fb8061006f5f395ff3fe608060405234801561000f575f5ffd5b5060043610610034575f3560e01c806331b67838146100385780638e15f47314610056575b5f5ffd5b610040610074565b60405161004d9190610254565b60405180910390f35b61005e61015e565b60405161006b9190610254565b60405180910390f35b5f5f5f5f9054906101000a900473ffffffffffffffffffffffffffffffffffffffff1673ffffffffffffffffffffffffffffffffffffffff1663feaf968c6040518163ffffffff1660e01b815260040160a060405180830381865afa1580156100df573d5f5f3e3d5ffd5b505050506040513d601f19601f82011682018060405250810190610103919061030d565b5050509150505f811361014b576040517f08c379a000000000000000000000000000000000000000000000000000000000815260040161014290610404565b60405180910390fd5b603b81610158919061044f565b91505090565b5f5f5f5f9054906101000a900473ffffffffffffffffffffffffffffffffffffffff1673ffffffffffffffffffffffffffffffffffffffff1663feaf968c6040518163ffffffff1660e01b815260040160a060405180830381865afa1580156101c9573d5f5f3e3d5ffd5b505050506040513d601f19601f820116820180604052508101906101ed919061030d565b5050509150505f8113610235576040517f08c379a000000000000000000000000000000000000000000000000000000000815260040161022c90610404565b60405180910390fd5b8091505090565b5f819050919050565b61024e8161023c565b82525050565b5f6020820190506102675f830184610245565b92915050565b5f5ffd5b5f69ffffffffffffffffffff82169050919050565b61028f81610271565b8114610299575f5ffd5b50565b5f815190506102aa81610286565b92915050565b6102b98161023c565b81146102c3575f5ffd5b50565b5f815190506102d4816102b0565b92915050565b5f819050919050565b6102ec816102da565b81146102f6575f5ffd5b50565b5f81519050610307816102e3565b92915050565b5f5f5f5f5f60a086880312156103265761032561026d565b5b5f6103338882890161029c565b9550506020610344888289016102c6565b9450506040610355888289016102f9565b9350506060610366888289016102f9565b92505060806103778882890161029c565b9150509295509295909350565b5f82825260208201905092915050565b7f5072696365206973206e6f7420617661696c61626c65206f7220696e76616c695f8201527f642e000000000000000000000000000000000000000000000000000000000000602082015250565b5f6103ee602283610384565b91506103f982610394565b604082019050919050565b5f6020820190508181035f83015261041b816103e2565b9050919050565b7f4e487b71000000000000000000000000000000000000000000000000000000005f52601160045260245ffd5b5f6104598261023c565b91506104648361023c565b92508282026104728161023c565b91507f800000000000000000000000000000000000000000000000000000000000000084145f841216156104a9576104a8610422565b5b82820584148315176104be576104bd610422565b5b509291505056fea264697066735822122059af3100722b628a7c049216ba894096c4473bfa64f1cd28ddcef401d731701f64736f6c634300081e0033",
					"opcodes": "PUSH1 0x80 PUSH1 0x40 MSTORE CALLVALUE DUP1 ISZERO PUSH1 0xE JUMPI PUSH0 PUSH0 REVERT JUMPDEST POP PUSH20 0x694AA1769357215DE4FAC081BF1F309ADC325306 PUSH0 PUSH0 PUSH2 0x100 EXP DUP2 SLOAD DUP2 PUSH20 0xFFFFFFFFFFFFFFFFFFFFFFFFFFFFFFFFFFFFFFFF MUL NOT AND SWAP1 DUP4 PUSH20 0xFFFFFFFFFFFFFFFFFFFFFFFFFFFFFFFFFFFFFFFF AND MUL OR SWAP1 SSTORE POP PUSH2 0x4FB DUP1 PUSH2 0x6F PUSH0 CODECOPY PUSH0 RETURN INVALID PUSH1 0x80 PUSH1 0x40 MSTORE CALLVALUE DUP1 ISZERO PUSH2 0xF JUMPI PUSH0 PUSH0 REVERT JUMPDEST POP PUSH1 0x4 CALLDATASIZE LT PUSH2 0x34 JUMPI PUSH0 CALLDATALOAD PUSH1 0xE0 SHR DUP1 PUSH4 0x31B67838 EQ PUSH2 0x38 JUMPI DUP1 PUSH4 0x8E15F473 EQ PUSH2 0x56 JUMPI JUMPDEST PUSH0 PUSH0 REVERT JUMPDEST PUSH2 0x40 PUSH2 0x74 JUMP JUMPDEST PUSH1 0x40 MLOAD PUSH2 0x4D SWAP2 SWAP1 PUSH2 0x254 JUMP JUMPDEST PUSH1 0x40 MLOAD DUP1 SWAP2 SUB SWAP1 RETURN JUMPDEST PUSH2 0x5E PUSH2 0x15E JUMP JUMPDEST PUSH1 0x40 MLOAD PUSH2 0x6B SWAP2 SWAP1 PUSH2 0x254 JUMP JUMPDEST PUSH1 0x40 MLOAD DUP1 SWAP2 SUB SWAP1 RETURN JUMPDEST PUSH0 PUSH0 PUSH0 PUSH0 SWAP1 SLOAD SWAP1 PUSH2 0x100 EXP SWAP1 DIV PUSH20 0xFFFFFFFFFFFFFFFFFFFFFFFFFFFFFFFFFFFFFFFF AND PUSH20 0xFFFFFFFFFFFFFFFFFFFFFFFFFFFFFFFFFFFFFFFF AND PUSH4 0xFEAF968C PUSH1 0x40 MLOAD DUP2 PUSH4 0xFFFFFFFF AND PUSH1 0xE0 SHL DUP2 MSTORE PUSH1 0x4 ADD PUSH1 0xA0 PUSH1 0x40 MLOAD DUP1 DUP4 SUB DUP2 DUP7 GAS STATICCALL ISZERO DUP1 ISZERO PUSH2 0xDF JUMPI RETURNDATASIZE PUSH0 PUSH0 RETURNDATACOPY RETURNDATASIZE PUSH0 REVERT JUMPDEST POP POP POP POP PUSH1 0x40 MLOAD RETURNDATASIZE PUSH1 0x1F NOT PUSH1 0x1F DUP3 ADD AND DUP3 ADD DUP1 PUSH1 0x40 MSTORE POP DUP2 ADD SWAP1 PUSH2 0x103 SWAP2 SWAP1 PUSH2 0x30D JUMP JUMPDEST POP POP POP SWAP2 POP POP PUSH0 DUP2 SGT PUSH2 0x14B JUMPI PUSH1 0x40 MLOAD PUSH32 0x8C379A000000000000000000000000000000000000000000000000000000000 DUP2 MSTORE PUSH1 0x4 ADD PUSH2 0x142 SWAP1 PUSH2 0x404 JUMP JUMPDEST PUSH1 0x40 MLOAD DUP1 SWAP2 SUB SWAP1 REVERT JUMPDEST PUSH1 0x3B DUP2 PUSH2 0x158 SWAP2 SWAP1 PUSH2 0x44F JUMP JUMPDEST SWAP2 POP POP SWAP1 JUMP JUMPDEST PUSH0 PUSH0 PUSH0 PUSH0 SWAP1 SLOAD SWAP1 PUSH2 0x100 EXP SWAP1 DIV PUSH20 0xFFFFFFFFFFFFFFFFFFFFFFFFFFFFFFFFFFFFFFFF AND PUSH20 0xFFFFFFFFFFFFFFFFFFFFFFFFFFFFFFFFFFFFFFFF AND PUSH4 0xFEAF968C PUSH1 0x40 MLOAD DUP2 PUSH4 0xFFFFFFFF AND PUSH1 0xE0 SHL DUP2 MSTORE PUSH1 0x4 ADD PUSH1 0xA0 PUSH1 0x40 MLOAD DUP1 DUP4 SUB DUP2 DUP7 GAS STATICCALL ISZERO DUP1 ISZERO PUSH2 0x1C9 JUMPI RETURNDATASIZE PUSH0 PUSH0 RETURNDATACOPY RETURNDATASIZE PUSH0 REVERT JUMPDEST POP POP POP POP PUSH1 0x40 MLOAD RETURNDATASIZE PUSH1 0x1F NOT PUSH1 0x1F DUP3 ADD AND DUP3 ADD DUP1 PUSH1 0x40 MSTORE POP DUP2 ADD SWAP1 PUSH2 0x1ED SWAP2 SWAP1 PUSH2 0x30D JUMP JUMPDEST POP POP POP SWAP2 POP POP PUSH0 DUP2 SGT PUSH2 0x235 JUMPI PUSH1 0x40 MLOAD PUSH32 0x8C379A000000000000000000000000000000000000000000000000000000000 DUP2 MSTORE PUSH1 0x4 ADD PUSH2 0x22C SWAP1 PUSH2 0x404 JUMP JUMPDEST PUSH1 0x40 MLOAD DUP1 SWAP2 SUB SWAP1 REVERT JUMPDEST DUP1 SWAP2 POP POP SWAP1 JUMP JUMPDEST PUSH0 DUP2 SWAP1 POP SWAP2 SWAP1 POP JUMP JUMPDEST PUSH2 0x24E DUP2 PUSH2 0x23C JUMP JUMPDEST DUP3 MSTORE POP POP JUMP JUMPDEST PUSH0 PUSH1 0x20 DUP3 ADD SWAP1 POP PUSH2 0x267 PUSH0 DUP4 ADD DUP5 PUSH2 0x245 JUMP JUMPDEST SWAP3 SWAP2 POP POP JUMP JUMPDEST PUSH0 PUSH0 REVERT JUMPDEST PUSH0 PUSH10 0xFFFFFFFFFFFFFFFFFFFF DUP3 AND SWAP1 POP SWAP2 SWAP1 POP JUMP JUMPDEST PUSH2 0x28F DUP2 PUSH2 0x271 JUMP JUMPDEST DUP2 EQ PUSH2 0x299 JUMPI PUSH0 PUSH0 REVERT JUMPDEST POP JUMP JUMPDEST PUSH0 DUP2 MLOAD SWAP1 POP PUSH2 0x2AA DUP2 PUSH2 0x286 JUMP JUMPDEST SWAP3 SWAP2 POP POP JUMP JUMPDEST PUSH2 0x2B9 DUP2 PUSH2 0x23C JUMP JUMPDEST DUP2 EQ PUSH2 0x2C3 JUMPI PUSH0 PUSH0 REVERT JUMPDEST POP JUMP JUMPDEST PUSH0 DUP2 MLOAD SWAP1 POP PUSH2 0x2D4 DUP2 PUSH2 0x2B0 JUMP JUMPDEST SWAP3 SWAP2 POP POP JUMP JUMPDEST PUSH0 DUP2 SWAP1 POP SWAP2 SWAP1 POP JUMP JUMPDEST PUSH2 0x2EC DUP2 PUSH2 0x2DA JUMP JUMPDEST DUP2 EQ PUSH2 0x2F6 JUMPI PUSH0 PUSH0 REVERT JUMPDEST POP JUMP JUMPDEST PUSH0 DUP2 MLOAD SWAP1 POP PUSH2 0x307 DUP2 PUSH2 0x2E3 JUMP JUMPDEST SWAP3 SWAP2 POP POP JUMP JUMPDEST PUSH0 PUSH0 PUSH0 PUSH0 PUSH0 PUSH1 0xA0 DUP7 DUP9 SUB SLT ISZERO PUSH2 0x326 JUMPI PUSH2 0x325 PUSH2 0x26D JUMP JUMPDEST JUMPDEST PUSH0 PUSH2 0x333 DUP9 DUP3 DUP10 ADD PUSH2 0x29C JUMP JUMPDEST SWAP6 POP POP PUSH1 0x20 PUSH2 0x344 DUP9 DUP3 DUP10 ADD PUSH2 0x2C6 JUMP JUMPDEST SWAP5 POP POP PUSH1 0x40 PUSH2 0x355 DUP9 DUP3 DUP10 ADD PUSH2 0x2F9 JUMP JUMPDEST SWAP4 POP POP PUSH1 0x60 PUSH2 0x366 DUP9 DUP3 DUP10 ADD PUSH2 0x2F9 JUMP JUMPDEST SWAP3 POP POP PUSH1 0x80 PUSH2 0x377 DUP9 DUP3 DUP10 ADD PUSH2 0x29C JUMP JUMPDEST SWAP2 POP POP SWAP3 SWAP6 POP SWAP3 SWAP6 SWAP1 SWAP4 POP JUMP JUMPDEST PUSH0 DUP3 DUP3 MSTORE PUSH1 0x20 DUP3 ADD SWAP1 POP SWAP3 SWAP2 POP POP JUMP JUMPDEST PUSH32 0x5072696365206973206E6F7420617661696C61626C65206F7220696E76616C69 PUSH0 DUP3 ADD MSTORE PUSH32 0x642E000000000000000000000000000000000000000000000000000000000000 PUSH1 0x20 DUP3 ADD MSTORE POP JUMP JUMPDEST PUSH0 PUSH2 0x3EE PUSH1 0x22 DUP4 PUSH2 0x384 JUMP JUMPDEST SWAP2 POP PUSH2 0x3F9 DUP3 PUSH2 0x394 JUMP JUMPDEST PUSH1 0x40 DUP3 ADD SWAP1 POP SWAP2 SWAP1 POP JUMP JUMPDEST PUSH0 PUSH1 0x20 DUP3 ADD SWAP1 POP DUP2 DUP2 SUB PUSH0 DUP4 ADD MSTORE PUSH2 0x41B DUP2 PUSH2 0x3E2 JUMP JUMPDEST SWAP1 POP SWAP2 SWAP1 POP JUMP JUMPDEST PUSH32 0x4E487B7100000000000000000000000000000000000000000000000000000000 PUSH0 MSTORE PUSH1 0x11 PUSH1 0x4 MSTORE PUSH1 0x24 PUSH0 REVERT JUMPDEST PUSH0 PUSH2 0x459 DUP3 PUSH2 0x23C JUMP JUMPDEST SWAP2 POP PUSH2 0x464 DUP4 PUSH2 0x23C JUMP JUMPDEST SWAP3 POP DUP3 DUP3 MUL PUSH2 0x472 DUP2 PUSH2 0x23C JUMP JUMPDEST SWAP2 POP PUSH32 0x8000000000000000000000000000000000000000000000000000000000000000 DUP5 EQ PUSH0 DUP5 SLT AND ISZERO PUSH2 0x4A9 JUMPI PUSH2 0x4A8 PUSH2 0x422 JUMP JUMPDEST JUMPDEST DUP3 DUP3 SDIV DUP5 EQ DUP4 ISZERO OR PUSH2 0x4BE JUMPI PUSH2 0x4BD PUSH2 0x422 JUMP JUMPDEST JUMPDEST POP SWAP3 SWAP2 POP POP JUMP INVALID LOG2 PUSH5 0x6970667358 0x22 SLT KECCAK256 MSIZE 0xAF BALANCE STOP PUSH19 0x2B628A7C049216BA894096C4473BFA64F1CD28 0xDD 0xCE DELEGATECALL ADD 0xD7 BALANCE PUSH17 0x1F64736F6C634300081E00330000000000 "
				},
				"gasEstimates": {
					"creation": {
						"codeDepositCost": "255000",
						"executionCost": "24557",
						"totalCost": "279557"
					},
					"external": {
						"convertEthToPeso()": "infinite",
						"getLatestPrice()": "infinite"
					}
				},
				"methodIdentifiers": {
					"convertEthToPeso()": "31b67838",
					"getLatestPrice()": "8e15f473"
				}
			},
			"storageLayout": {
				"storage": [
					{
						"astId": 52,
						"contract": "Contracts/Day 12/Day12_Act2.sol:Day12_Act1",
						"label": "priceFeed",
						"offset": 0,
						"slot": "0",
						"type": "t_contract(AggregatorV3Interface)45"
					}
				],
				"types": {
					"t_contract(AggregatorV3Interface)45": {
						"encoding": "inplace",
						"label": "contract AggregatorV3Interface",
						"numberOfBytes": "20"
					}
				}
			},
			"userdoc": {
				"kind": "user",
				"methods": {},
				"version": 1
			}
		}
	}
}