{
	"Contracts/Day 9/Hihi.sol": {
		"CalculatorReceiver": {
			"abi": [
				{
					"inputs": [
						{
							"internalType": "uint256",
							"name": "_num1",
							"type": "uint256"
						},
						{
							"internalType": "uint256",
							"name": "_num2",
							"type": "uint256"
						}
					],
					"name": "getDifference",
					"outputs": [
						{
							"internalType": "uint256",
							"name": "",
							"type": "uint256"
						}
					],
					"stateMutability": "pure",
					"type": "function"
				},
				{
					"inputs": [
						{
							"internalType": "uint256",
							"name": "_num1",
							"type": "uint256"
						},
						{
							"internalType": "uint256",
							"name": "_num2",
							"type": "uint256"
						}
					],
					"name": "getProduct",
					"outputs": [
						{
							"internalType": "uint256",
							"name": "",
							"type": "uint256"
						}
					],
					"stateMutability": "pure",
					"type": "function"
				},
				{
					"inputs": [
						{
							"internalType": "uint256",
							"name": "_num1",
							"type": "uint256"
						},
						{
							"internalType": "uint256",
							"name": "_num2",
							"type": "uint256"
						}
					],
					"name": "getQuotient",
					"outputs": [
						{
							"internalType": "uint256",
							"name": "",
							"type": "uint256"
						}
					],
					"stateMutability": "pure",
					"type": "function"
				},
				{
					"inputs": [
						{
							"internalType": "uint256",
							"name": "_num1",
							"type": "uint256"
						},
						{
							"internalType": "uint256",
							"name": "_num2",
							"type": "uint256"
						}
					],
					"name": "getSum",
					"outputs": [
						{
							"internalType": "uint256",
							"name": "",
							"type": "uint256"
						}
					],
					"stateMutability": "pure",
					"type": "function"
				}
			],
			"devdoc": {
				"kind": "dev",
				"methods": {},
				"version": 1
			},
			"evm": {
				"assembly": "    /* \"Contracts/Day 9/Hihi.sol\":1411:2081  contract CalculatorReceiver {... */\n  mstore(0x40, 0x80)\n  callvalue\n  dup1\n  iszero\n  tag_1\n  jumpi\n  revert(0x00, 0x00)\ntag_1:\n  pop\n  dataSize(sub_0)\n  dup1\n  dataOffset(sub_0)\n  0x00\n  codecopy\n  0x00\n  return\nstop\n\nsub_0: assembly {\n        /* \"Contracts/Day 9/Hihi.sol\":1411:2081  contract CalculatorReceiver {... */\n      mstore(0x40, 0x80)\n      callvalue\n      dup1\n      iszero\n      tag_1\n      jumpi\n      revert(0x00, 0x00)\n    tag_1:\n      pop\n      jumpi(tag_2, lt(calldatasize, 0x04))\n      shr(0xe0, calldataload(0x00))\n      dup1\n      0x24f346ab\n      eq\n      tag_3\n      jumpi\n      dup1\n      0x4c7c77fc\n      eq\n      tag_4\n      jumpi\n      dup1\n      0x88dffe9b\n      eq\n      tag_5\n      jumpi\n      dup1\n      0x8e86b125\n      eq\n      tag_6\n      jumpi\n    tag_2:\n      revert(0x00, 0x00)\n        /* \"Contracts/Day 9/Hihi.sol\":1767:1888  function getProduct(uint256 _num1, uint256 _num2) external pure returns (uint256) {... */\n    tag_3:\n      tag_7\n      0x04\n      dup1\n      calldatasize\n      sub\n      dup2\n      add\n      swap1\n      tag_8\n      swap2\n      swap1\n      tag_9\n      jump\t// in\n    tag_8:\n      tag_10\n      jump\t// in\n    tag_7:\n      mload(0x40)\n      tag_11\n      swap2\n      swap1\n      tag_12\n      jump\t// in\n    tag_11:\n      mload(0x40)\n      dup1\n      swap2\n      sub\n      swap1\n      return\n        /* \"Contracts/Day 9/Hihi.sol\":1571:1759  function getDifference(uint256 _num1, uint256 _num2) external pure returns (uint256) {... */\n    tag_4:\n      tag_13\n      0x04\n      dup1\n      calldatasize\n      sub\n      dup2\n      add\n      swap1\n      tag_14\n      swap2\n      swap1\n      tag_9\n      jump\t// in\n    tag_14:\n      tag_15\n      jump\t// in\n    tag_13:\n      mload(0x40)\n      tag_16\n      swap2\n      swap1\n      tag_12\n      jump\t// in\n    tag_16:\n      mload(0x40)\n      dup1\n      swap2\n      sub\n      swap1\n      return\n        /* \"Contracts/Day 9/Hihi.sol\":1896:2078  function getQuotient(uint256 _num1, uint256 _num2) external pure returns (uint256) {... */\n    tag_5:\n      tag_17\n      0x04\n      dup1\n      calldatasize\n      sub\n      dup2\n      add\n      swap1\n      tag_18\n      swap2\n      swap1\n      tag_9\n      jump\t// in\n    tag_18:\n      tag_19\n      jump\t// in\n    tag_17:\n      mload(0x40)\n      tag_20\n      swap2\n      swap1\n      tag_12\n      jump\t// in\n    tag_20:\n      mload(0x40)\n      dup1\n      swap2\n      sub\n      swap1\n      return\n        /* \"Contracts/Day 9/Hihi.sol\":1446:1563  function getSum(uint256 _num1, uint256 _num2) external pure returns (uint256) {... */\n    tag_6:\n      tag_21\n      0x04\n      dup1\n      calldatasize\n      sub\n      dup2\n      add\n      swap1\n      tag_22\n      swap2\n      swap1\n      tag_9\n      jump\t// in\n    tag_22:\n      tag_23\n      jump\t// in\n    tag_21:\n      mload(0x40)\n      tag_24\n      swap2\n      swap1\n      tag_12\n      jump\t// in\n    tag_24:\n      mload(0x40)\n      dup1\n      swap2\n      sub\n      swap1\n      return\n        /* \"Contracts/Day 9/Hihi.sol\":1767:1888  function getProduct(uint256 _num1, uint256 _num2) external pure returns (uint256) {... */\n    tag_10:\n        /* \"Contracts/Day 9/Hihi.sol\":1840:1847  uint256 */\n      0x00\n        /* \"Contracts/Day 9/Hihi.sol\":1875:1880  _num2 */\n      dup2\n        /* \"Contracts/Day 9/Hihi.sol\":1867:1872  _num1 */\n      dup4\n        /* \"Contracts/Day 9/Hihi.sol\":1867:1880  _num1 * _num2 */\n      tag_26\n      swap2\n      swap1\n      tag_27\n      jump\t// in\n    tag_26:\n        /* \"Contracts/Day 9/Hihi.sol\":1860:1880  return _num1 * _num2 */\n      swap1\n      pop\n        /* \"Contracts/Day 9/Hihi.sol\":1767:1888  function getProduct(uint256 _num1, uint256 _num2) external pure returns (uint256) {... */\n      swap3\n      swap2\n      pop\n      pop\n      jump\t// out\n        /* \"Contracts/Day 9/Hihi.sol\":1571:1759  function getDifference(uint256 _num1, uint256 _num2) external pure returns (uint256) {... */\n    tag_15:\n        /* \"Contracts/Day 9/Hihi.sol\":1647:1654  uint256 */\n      0x00\n        /* \"Contracts/Day 9/Hihi.sol\":1679:1684  _num1 */\n      dup3\n        /* \"Contracts/Day 9/Hihi.sol\":1671:1676  _num2 */\n      dup3\n        /* \"Contracts/Day 9/Hihi.sol\":1671:1684  _num2 > _num1 */\n      gt\n        /* \"Contracts/Day 9/Hihi.sol\":1667:1721  if (_num2 > _num1) {... */\n      iszero\n      tag_29\n      jumpi\n        /* \"Contracts/Day 9/Hihi.sol\":1708:1709  0 */\n      0x00\n        /* \"Contracts/Day 9/Hihi.sol\":1701:1709  return 0 */\n      swap1\n      pop\n      jump(tag_28)\n        /* \"Contracts/Day 9/Hihi.sol\":1667:1721  if (_num2 > _num1) {... */\n    tag_29:\n        /* \"Contracts/Day 9/Hihi.sol\":1746:1751  _num2 */\n      dup2\n        /* \"Contracts/Day 9/Hihi.sol\":1738:1743  _num1 */\n      dup4\n        /* \"Contracts/Day 9/Hihi.sol\":1738:1751  _num1 - _num2 */\n      tag_30\n      swap2\n      swap1\n      tag_31\n      jump\t// in\n    tag_30:\n        /* \"Contracts/Day 9/Hihi.sol\":1731:1751  return _num1 - _num2 */\n      swap1\n      pop\n        /* \"Contracts/Day 9/Hihi.sol\":1571:1759  function getDifference(uint256 _num1, uint256 _num2) external pure returns (uint256) {... */\n    tag_28:\n      swap3\n      swap2\n      pop\n      pop\n      jump\t// out\n        /* \"Contracts/Day 9/Hihi.sol\":1896:2078  function getQuotient(uint256 _num1, uint256 _num2) external pure returns (uint256) {... */\n    tag_19:\n        /* \"Contracts/Day 9/Hihi.sol\":1970:1977  uint256 */\n      0x00\n        /* \"Contracts/Day 9/Hihi.sol\":2003:2004  0 */\n      0x00\n        /* \"Contracts/Day 9/Hihi.sol\":1994:1999  _num2 */\n      dup3\n        /* \"Contracts/Day 9/Hihi.sol\":1994:2004  _num2 == 0 */\n      sub\n        /* \"Contracts/Day 9/Hihi.sol\":1990:2041  if (_num2 == 0) {... */\n      tag_33\n      jumpi\n        /* \"Contracts/Day 9/Hihi.sol\":2028:2029  0 */\n      0x00\n        /* \"Contracts/Day 9/Hihi.sol\":2021:2029  return 0 */\n      swap1\n      pop\n      jump(tag_32)\n        /* \"Contracts/Day 9/Hihi.sol\":1990:2041  if (_num2 == 0) {... */\n    tag_33:\n        /* \"Contracts/Day 9/Hihi.sol\":2065:2070  _num2 */\n      dup2\n        /* \"Contracts/Day 9/Hihi.sol\":2058:2063  _num1 */\n      dup4\n        /* \"Contracts/Day 9/Hihi.sol\":2058:2070  _num1 /_num2 */\n      tag_34\n      swap2\n      swap1\n      tag_35\n      jump\t// in\n    tag_34:\n        /* \"Contracts/Day 9/Hihi.sol\":2051:2070  return _num1 /_num2 */\n      swap1\n      pop\n        /* \"Contracts/Day 9/Hihi.sol\":1896:2078  function getQuotient(uint256 _num1, uint256 _num2) external pure returns (uint256) {... */\n    tag_32:\n      swap3\n      swap2\n      pop\n      pop\n      jump\t// out\n        /* \"Contracts/Day 9/Hihi.sol\":1446:1563  function getSum(uint256 _num1, uint256 _num2) external pure returns (uint256) {... */\n    tag_23:\n        /* \"Contracts/Day 9/Hihi.sol\":1515:1522  uint256 */\n      0x00\n        /* \"Contracts/Day 9/Hihi.sol\":1550:1555  _num2 */\n      dup2\n        /* \"Contracts/Day 9/Hihi.sol\":1542:1547  _num1 */\n      dup4\n        /* \"Contracts/Day 9/Hihi.sol\":1542:1555  _num1 + _num2 */\n      tag_37\n      swap2\n      swap1\n      tag_38\n      jump\t// in\n    tag_37:\n        /* \"Contracts/Day 9/Hihi.sol\":1535:1555  return _num1 + _num2 */\n      swap1\n      pop\n        /* \"Contracts/Day 9/Hihi.sol\":1446:1563  function getSum(uint256 _num1, uint256 _num2) external pure returns (uint256) {... */\n      swap3\n      swap2\n      pop\n      pop\n      jump\t// out\n        /* \"#utility.yul\":88:205   */\n    tag_40:\n        /* \"#utility.yul\":197:198   */\n      0x00\n        /* \"#utility.yul\":194:195   */\n      0x00\n        /* \"#utility.yul\":187:199   */\n      revert\n        /* \"#utility.yul\":334:411   */\n    tag_42:\n        /* \"#utility.yul\":371:378   */\n      0x00\n        /* \"#utility.yul\":400:405   */\n      dup2\n        /* \"#utility.yul\":389:405   */\n      swap1\n      pop\n        /* \"#utility.yul\":334:411   */\n      swap2\n      swap1\n      pop\n      jump\t// out\n        /* \"#utility.yul\":417:539   */\n    tag_43:\n        /* \"#utility.yul\":490:514   */\n      tag_54\n        /* \"#utility.yul\":508:513   */\n      dup2\n        /* \"#utility.yul\":490:514   */\n      tag_42\n      jump\t// in\n    tag_54:\n        /* \"#utility.yul\":483:488   */\n      dup2\n        /* \"#utility.yul\":480:515   */\n      eq\n        /* \"#utility.yul\":470:533   */\n      tag_55\n      jumpi\n        /* \"#utility.yul\":529:530   */\n      0x00\n        /* \"#utility.yul\":526:527   */\n      0x00\n        /* \"#utility.yul\":519:531   */\n      revert\n        /* \"#utility.yul\":470:533   */\n    tag_55:\n        /* \"#utility.yul\":417:539   */\n      pop\n      jump\t// out\n        /* \"#utility.yul\":545:684   */\n    tag_44:\n        /* \"#utility.yul\":591:596   */\n      0x00\n        /* \"#utility.yul\":629:635   */\n      dup2\n        /* \"#utility.yul\":616:636   */\n      calldataload\n        /* \"#utility.yul\":607:636   */\n      swap1\n      pop\n        /* \"#utility.yul\":645:678   */\n      tag_57\n        /* \"#utility.yul\":672:677   */\n      dup2\n        /* \"#utility.yul\":645:678   */\n      tag_43\n      jump\t// in\n    tag_57:\n        /* \"#utility.yul\":545:684   */\n      swap3\n      swap2\n      pop\n      pop\n      jump\t// out\n        /* \"#utility.yul\":690:1164   */\n    tag_9:\n        /* \"#utility.yul\":758:764   */\n      0x00\n        /* \"#utility.yul\":766:772   */\n      0x00\n        /* \"#utility.yul\":815:817   */\n      0x40\n        /* \"#utility.yul\":803:812   */\n      dup4\n        /* \"#utility.yul\":794:801   */\n      dup6\n        /* \"#utility.yul\":790:813   */\n      sub\n        /* \"#utility.yul\":786:818   */\n      slt\n        /* \"#utility.yul\":783:902   */\n      iszero\n      tag_59\n      jumpi\n        /* \"#utility.yul\":821:900   */\n      tag_60\n      tag_40\n      jump\t// in\n    tag_60:\n        /* \"#utility.yul\":783:902   */\n    tag_59:\n        /* \"#utility.yul\":941:942   */\n      0x00\n        /* \"#utility.yul\":966:1019   */\n      tag_61\n        /* \"#utility.yul\":1011:1018   */\n      dup6\n        /* \"#utility.yul\":1002:1008   */\n      dup3\n        /* \"#utility.yul\":991:1000   */\n      dup7\n        /* \"#utility.yul\":987:1009   */\n      add\n        /* \"#utility.yul\":966:1019   */\n      tag_44\n      jump\t// in\n    tag_61:\n        /* \"#utility.yul\":956:1019   */\n      swap3\n      pop\n        /* \"#utility.yul\":912:1029   */\n      pop\n        /* \"#utility.yul\":1068:1070   */\n      0x20\n        /* \"#utility.yul\":1094:1147   */\n      tag_62\n        /* \"#utility.yul\":1139:1146   */\n      dup6\n        /* \"#utility.yul\":1130:1136   */\n      dup3\n        /* \"#utility.yul\":1119:1128   */\n      dup7\n        /* \"#utility.yul\":1115:1137   */\n      add\n        /* \"#utility.yul\":1094:1147   */\n      tag_44\n      jump\t// in\n    tag_62:\n        /* \"#utility.yul\":1084:1147   */\n      swap2\n      pop\n        /* \"#utility.yul\":1039:1157   */\n      pop\n        /* \"#utility.yul\":690:1164   */\n      swap3\n      pop\n      swap3\n      swap1\n      pop\n      jump\t// out\n        /* \"#utility.yul\":1170:1288   */\n    tag_45:\n        /* \"#utility.yul\":1257:1281   */\n      tag_64\n        /* \"#utility.yul\":1275:1280   */\n      dup2\n        /* \"#utility.yul\":1257:1281   */\n      tag_42\n      jump\t// in\n    tag_64:\n        /* \"#utility.yul\":1252:1255   */\n      dup3\n        /* \"#utility.yul\":1245:1282   */\n      mstore\n        /* \"#utility.yul\":1170:1288   */\n      pop\n      pop\n      jump\t// out\n        /* \"#utility.yul\":1294:1516   */\n    tag_12:\n        /* \"#utility.yul\":1387:1391   */\n      0x00\n        /* \"#utility.yul\":1425:1427   */\n      0x20\n        /* \"#utility.yul\":1414:1423   */\n      dup3\n        /* \"#utility.yul\":1410:1428   */\n      add\n        /* \"#utility.yul\":1402:1428   */\n      swap1\n      pop\n        /* \"#utility.yul\":1438:1509   */\n      tag_66\n        /* \"#utility.yul\":1506:1507   */\n      0x00\n        /* \"#utility.yul\":1495:1504   */\n      dup4\n        /* \"#utility.yul\":1491:1508   */\n      add\n        /* \"#utility.yul\":1482:1488   */\n      dup5\n        /* \"#utility.yul\":1438:1509   */\n      tag_45\n      jump\t// in\n    tag_66:\n        /* \"#utility.yul\":1294:1516   */\n      swap3\n      swap2\n      pop\n      pop\n      jump\t// out\n        /* \"#utility.yul\":1522:1702   */\n    tag_46:\n        /* \"#utility.yul\":1570:1647   */\n      0x4e487b7100000000000000000000000000000000000000000000000000000000\n        /* \"#utility.yul\":1567:1568   */\n      0x00\n        /* \"#utility.yul\":1560:1648   */\n      mstore\n        /* \"#utility.yul\":1667:1671   */\n      0x11\n        /* \"#utility.yul\":1664:1665   */\n      0x04\n        /* \"#utility.yul\":1657:1672   */\n      mstore\n        /* \"#utility.yul\":1691:1695   */\n      0x24\n        /* \"#utility.yul\":1688:1689   */\n      0x00\n        /* \"#utility.yul\":1681:1696   */\n      revert\n        /* \"#utility.yul\":1708:2118   */\n    tag_27:\n        /* \"#utility.yul\":1748:1755   */\n      0x00\n        /* \"#utility.yul\":1771:1791   */\n      tag_69\n        /* \"#utility.yul\":1789:1790   */\n      dup3\n        /* \"#utility.yul\":1771:1791   */\n      tag_42\n      jump\t// in\n    tag_69:\n        /* \"#utility.yul\":1766:1791   */\n      swap2\n      pop\n        /* \"#utility.yul\":1805:1825   */\n      tag_70\n        /* \"#utility.yul\":1823:1824   */\n      dup4\n        /* \"#utility.yul\":1805:1825   */\n      tag_42\n      jump\t// in\n    tag_70:\n        /* \"#utility.yul\":1800:1825   */\n      swap3\n      pop\n        /* \"#utility.yul\":1860:1861   */\n      dup3\n        /* \"#utility.yul\":1857:1858   */\n      dup3\n        /* \"#utility.yul\":1853:1862   */\n      mul\n        /* \"#utility.yul\":1882:1912   */\n      tag_71\n        /* \"#utility.yul\":1900:1911   */\n      dup2\n        /* \"#utility.yul\":1882:1912   */\n      tag_42\n      jump\t// in\n    tag_71:\n        /* \"#utility.yul\":1871:1912   */\n      swap2\n      pop\n        /* \"#utility.yul\":2061:2062   */\n      dup3\n        /* \"#utility.yul\":2052:2059   */\n      dup3\n        /* \"#utility.yul\":2048:2063   */\n      div\n        /* \"#utility.yul\":2045:2046   */\n      dup5\n        /* \"#utility.yul\":2042:2064   */\n      eq\n        /* \"#utility.yul\":2022:2023   */\n      dup4\n        /* \"#utility.yul\":2015:2024   */\n      iszero\n        /* \"#utility.yul\":1995:2078   */\n      or\n        /* \"#utility.yul\":1972:2111   */\n      tag_72\n      jumpi\n        /* \"#utility.yul\":2091:2109   */\n      tag_73\n      tag_46\n      jump\t// in\n    tag_73:\n        /* \"#utility.yul\":1972:2111   */\n    tag_72:\n        /* \"#utility.yul\":1756:2118   */\n      pop\n        /* \"#utility.yul\":1708:2118   */\n      swap3\n      swap2\n      pop\n      pop\n      jump\t// out\n        /* \"#utility.yul\":2124:2318   */\n    tag_31:\n        /* \"#utility.yul\":2164:2168   */\n      0x00\n        /* \"#utility.yul\":2184:2204   */\n      tag_75\n        /* \"#utility.yul\":2202:2203   */\n      dup3\n        /* \"#utility.yul\":2184:2204   */\n      tag_42\n      jump\t// in\n    tag_75:\n        /* \"#utility.yul\":2179:2204   */\n      swap2\n      pop\n        /* \"#utility.yul\":2218:2238   */\n      tag_76\n        /* \"#utility.yul\":2236:2237   */\n      dup4\n        /* \"#utility.yul\":2218:2238   */\n      tag_42\n      jump\t// in\n    tag_76:\n        /* \"#utility.yul\":2213:2238   */\n      swap3\n      pop\n        /* \"#utility.yul\":2262:2263   */\n      dup3\n        /* \"#utility.yul\":2259:2260   */\n      dup3\n        /* \"#utility.yul\":2255:2264   */\n      sub\n        /* \"#utility.yul\":2247:2264   */\n      swap1\n      pop\n        /* \"#utility.yul\":2286:2287   */\n      dup2\n        /* \"#utility.yul\":2280:2284   */\n      dup2\n        /* \"#utility.yul\":2277:2288   */\n      gt\n        /* \"#utility.yul\":2274:2311   */\n      iszero\n      tag_77\n      jumpi\n        /* \"#utility.yul\":2291:2309   */\n      tag_78\n      tag_46\n      jump\t// in\n    tag_78:\n        /* \"#utility.yul\":2274:2311   */\n    tag_77:\n        /* \"#utility.yul\":2124:2318   */\n      swap3\n      swap2\n      pop\n      pop\n      jump\t// out\n        /* \"#utility.yul\":2324:2504   */\n    tag_47:\n        /* \"#utility.yul\":2372:2449   */\n      0x4e487b7100000000000000000000000000000000000000000000000000000000\n        /* \"#utility.yul\":2369:2370   */\n      0x00\n        /* \"#utility.yul\":2362:2450   */\n      mstore\n        /* \"#utility.yul\":2469:2473   */\n      0x12\n        /* \"#utility.yul\":2466:2467   */\n      0x04\n        /* \"#utility.yul\":2459:2474   */\n      mstore\n        /* \"#utility.yul\":2493:2497   */\n      0x24\n        /* \"#utility.yul\":2490:2491   */\n      0x00\n        /* \"#utility.yul\":2483:2498   */\n      revert\n        /* \"#utility.yul\":2510:2695   */\n    tag_35:\n        /* \"#utility.yul\":2550:2551   */\n      0x00\n        /* \"#utility.yul\":2567:2587   */\n      tag_81\n        /* \"#utility.yul\":2585:2586   */\n      dup3\n        /* \"#utility.yul\":2567:2587   */\n      tag_42\n      jump\t// in\n    tag_81:\n        /* \"#utility.yul\":2562:2587   */\n      swap2\n      pop\n        /* \"#utility.yul\":2601:2621   */\n      tag_82\n        /* \"#utility.yul\":2619:2620   */\n      dup4\n        /* \"#utility.yul\":2601:2621   */\n      tag_42\n      jump\t// in\n    tag_82:\n        /* \"#utility.yul\":2596:2621   */\n      swap3\n      pop\n        /* \"#utility.yul\":2640:2641   */\n      dup3\n        /* \"#utility.yul\":2630:2665   */\n      tag_83\n      jumpi\n        /* \"#utility.yul\":2645:2663   */\n      tag_84\n      tag_47\n      jump\t// in\n    tag_84:\n        /* \"#utility.yul\":2630:2665   */\n    tag_83:\n        /* \"#utility.yul\":2687:2688   */\n      dup3\n        /* \"#utility.yul\":2684:2685   */\n      dup3\n        /* \"#utility.yul\":2680:2689   */\n      div\n        /* \"#utility.yul\":2675:2689   */\n      swap1\n      pop\n        /* \"#utility.yul\":2510:2695   */\n      swap3\n      swap2\n      pop\n      pop\n      jump\t// out\n        /* \"#utility.yul\":2701:2892   */\n    tag_38:\n        /* \"#utility.yul\":2741:2744   */\n      0x00\n        /* \"#utility.yul\":2760:2780   */\n      tag_86\n        /* \"#utility.yul\":2778:2779   */\n      dup3\n        /* \"#utility.yul\":2760:2780   */\n      tag_42\n      jump\t// in\n    tag_86:\n        /* \"#utility.yul\":2755:2780   */\n      swap2\n      pop\n        /* \"#utility.yul\":2794:2814   */\n      tag_87\n        /* \"#utility.yul\":2812:2813   */\n      dup4\n        /* \"#utility.yul\":2794:2814   */\n      tag_42\n      jump\t// in\n    tag_87:\n        /* \"#utility.yul\":2789:2814   */\n      swap3\n      pop\n        /* \"#utility.yul\":2837:2838   */\n      dup3\n        /* \"#utility.yul\":2834:2835   */\n      dup3\n        /* \"#utility.yul\":2830:2839   */\n      add\n        /* \"#utility.yul\":2823:2839   */\n      swap1\n      pop\n        /* \"#utility.yul\":2858:2861   */\n      dup1\n        /* \"#utility.yul\":2855:2856   */\n      dup3\n        /* \"#utility.yul\":2852:2862   */\n      gt\n        /* \"#utility.yul\":2849:2885   */\n      iszero\n      tag_88\n      jumpi\n        /* \"#utility.yul\":2865:2883   */\n      tag_89\n      tag_46\n      jump\t// in\n    tag_89:\n        /* \"#utility.yul\":2849:2885   */\n    tag_88:\n        /* \"#utility.yul\":2701:2892   */\n      swap3\n      swap2\n      pop\n      pop\n      jump\t// out\n\n    auxdata: 0xa26469706673582212202178bc8eb4822c8f7c6c697d2b642cd8c5b1b7c5623336b87f91c544db22394f64736f6c634300081e0033\n}\n",
				"bytecode": {
					"linkReferences": {},
					"object": "6080604052348015600e575f5ffd5b506103878061001c5f395ff3fe608060405234801561000f575f5ffd5b506004361061004a575f3560e01c806324f346ab1461004e5780634c7c77fc1461007e57806388dffe9b146100ae5780638e86b125146100de575b5f5ffd5b610068600480360381019061006391906101ba565b61010e565b6040516100759190610207565b60405180910390f35b610098600480360381019061009391906101ba565b610123565b6040516100a59190610207565b60405180910390f35b6100c860048036038101906100c391906101ba565b610149565b6040516100d59190610207565b60405180910390f35b6100f860048036038101906100f391906101ba565b61016e565b6040516101059190610207565b60405180910390f35b5f818361011b919061024d565b905092915050565b5f82821115610134575f9050610143565b8183610140919061028e565b90505b92915050565b5f5f8203610159575f9050610168565b818361016591906102ee565b90505b92915050565b5f818361017b919061031e565b905092915050565b5f5ffd5b5f819050919050565b61019981610187565b81146101a3575f5ffd5b50565b5f813590506101b481610190565b92915050565b5f5f604083850312156101d0576101cf610183565b5b5f6101dd858286016101a6565b92505060206101ee858286016101a6565b9150509250929050565b61020181610187565b82525050565b5f60208201905061021a5f8301846101f8565b92915050565b7f4e487b71000000000000000000000000000000000000000000000000000000005f52601160045260245ffd5b5f61025782610187565b915061026283610187565b925082820261027081610187565b9150828204841483151761028757610286610220565b5b5092915050565b5f61029882610187565b91506102a383610187565b92508282039050818111156102bb576102ba610220565b5b92915050565b7f4e487b71000000000000000000000000000000000000000000000000000000005f52601260045260245ffd5b5f6102f882610187565b915061030383610187565b925082610313576103126102c1565b5b828204905092915050565b5f61032882610187565b915061033383610187565b925082820190508082111561034b5761034a610220565b5b9291505056fea26469706673582212202178bc8eb4822c8f7c6c697d2b642cd8c5b1b7c5623336b87f91c544db22394f64736f6c634300081e0033",
					"opcodes": "PUSH1 0x80 PUSH1 0x40 MSTORE CALLVALUE DUP1 ISZERO PUSH1 0xE JUMPI PUSH0 PUSH0 REVERT JUMPDEST POP PUSH2 0x387 DUP1 PUSH2 0x1C PUSH0 CODECOPY PUSH0 RETURN INVALID PUSH1 0x80 PUSH1 0x40 MSTORE CALLVALUE DUP1 ISZERO PUSH2 0xF JUMPI PUSH0 PUSH0 REVERT JUMPDEST POP PUSH1 0x4 CALLDATASIZE LT PUSH2 0x4A JUMPI PUSH0 CALLDATALOAD PUSH1 0xE0 SHR DUP1 PUSH4 0x24F346AB EQ PUSH2 0x4E JUMPI DUP1 PUSH4 0x4C7C77FC EQ PUSH2 0x7E JUMPI DUP1 PUSH4 0x88DFFE9B EQ PUSH2 0xAE JUMPI DUP1 PUSH4 0x8E86B125 EQ PUSH2 0xDE JUMPI JUMPDEST PUSH0 PUSH0 REVERT JUMPDEST PUSH2 0x68 PUSH1 0x4 DUP1 CALLDATASIZE SUB DUP2 ADD SWAP1 PUSH2 0x63 SWAP2 SWAP1 PUSH2 0x1BA JUMP JUMPDEST PUSH2 0x10E JUMP JUMPDEST PUSH1 0x40 MLOAD PUSH2 0x75 SWAP2 SWAP1 PUSH2 0x207 JUMP JUMPDEST PUSH1 0x40 MLOAD DUP1 SWAP2 SUB SWAP1 RETURN JUMPDEST PUSH2 0x98 PUSH1 0x4 DUP1 CALLDATASIZE SUB DUP2 ADD SWAP1 PUSH2 0x93 SWAP2 SWAP1 PUSH2 0x1BA JUMP JUMPDEST PUSH2 0x123 JUMP JUMPDEST PUSH1 0x40 MLOAD PUSH2 0xA5 SWAP2 SWAP1 PUSH2 0x207 JUMP JUMPDEST PUSH1 0x40 MLOAD DUP1 SWAP2 SUB SWAP1 RETURN JUMPDEST PUSH2 0xC8 PUSH1 0x4 DUP1 CALLDATASIZE SUB DUP2 ADD SWAP1 PUSH2 0xC3 SWAP2 SWAP1 PUSH2 0x1BA JUMP JUMPDEST PUSH2 0x149 JUMP JUMPDEST PUSH1 0x40 MLOAD PUSH2 0xD5 SWAP2 SWAP1 PUSH2 0x207 JUMP JUMPDEST PUSH1 0x40 MLOAD DUP1 SWAP2 SUB SWAP1 RETURN JUMPDEST PUSH2 0xF8 PUSH1 0x4 DUP1 CALLDATASIZE SUB DUP2 ADD SWAP1 PUSH2 0xF3 SWAP2 SWAP1 PUSH2 0x1BA JUMP JUMPDEST PUSH2 0x16E JUMP JUMPDEST PUSH1 0x40 MLOAD PUSH2 0x105 SWAP2 SWAP1 PUSH2 0x207 JUMP JUMPDEST PUSH1 0x40 MLOAD DUP1 SWAP2 SUB SWAP1 RETURN JUMPDEST PUSH0 DUP2 DUP4 PUSH2 0x11B SWAP2 SWAP1 PUSH2 0x24D JUMP JUMPDEST SWAP1 POP SWAP3 SWAP2 POP POP JUMP JUMPDEST PUSH0 DUP3 DUP3 GT ISZERO PUSH2 0x134 JUMPI PUSH0 SWAP1 POP PUSH2 0x143 JUMP JUMPDEST DUP2 DUP4 PUSH2 0x140 SWAP2 SWAP1 PUSH2 0x28E JUMP JUMPDEST SWAP1 POP JUMPDEST SWAP3 SWAP2 POP POP JUMP JUMPDEST PUSH0 PUSH0 DUP3 SUB PUSH2 0x159 JUMPI PUSH0 SWAP1 POP PUSH2 0x168 JUMP JUMPDEST DUP2 DUP4 PUSH2 0x165 SWAP2 SWAP1 PUSH2 0x2EE JUMP JUMPDEST SWAP1 POP JUMPDEST SWAP3 SWAP2 POP POP JUMP JUMPDEST PUSH0 DUP2 DUP4 PUSH2 0x17B SWAP2 SWAP1 PUSH2 0x31E JUMP JUMPDEST SWAP1 POP SWAP3 SWAP2 POP POP JUMP JUMPDEST PUSH0 PUSH0 REVERT JUMPDEST PUSH0 DUP2 SWAP1 POP SWAP2 SWAP1 POP JUMP JUMPDEST PUSH2 0x199 DUP2 PUSH2 0x187 JUMP JUMPDEST DUP2 EQ PUSH2 0x1A3 JUMPI PUSH0 PUSH0 REVERT JUMPDEST POP JUMP JUMPDEST PUSH0 DUP2 CALLDATALOAD SWAP1 POP PUSH2 0x1B4 DUP2 PUSH2 0x190 JUMP JUMPDEST SWAP3 SWAP2 POP POP JUMP JUMPDEST PUSH0 PUSH0 PUSH1 0x40 DUP4 DUP6 SUB SLT ISZERO PUSH2 0x1D0 JUMPI PUSH2 0x1CF PUSH2 0x183 JUMP JUMPDEST JUMPDEST PUSH0 PUSH2 0x1DD DUP6 DUP3 DUP7 ADD PUSH2 0x1A6 JUMP JUMPDEST SWAP3 POP POP PUSH1 0x20 PUSH2 0x1EE DUP6 DUP3 DUP7 ADD PUSH2 0x1A6 JUMP JUMPDEST SWAP2 POP POP SWAP3 POP SWAP3 SWAP1 POP JUMP JUMPDEST PUSH2 0x201 DUP2 PUSH2 0x187 JUMP JUMPDEST DUP3 MSTORE POP POP JUMP JUMPDEST PUSH0 PUSH1 0x20 DUP3 ADD SWAP1 POP PUSH2 0x21A PUSH0 DUP4 ADD DUP5 PUSH2 0x1F8 JUMP JUMPDEST SWAP3 SWAP2 POP POP JUMP JUMPDEST PUSH32 0x4E487B7100000000000000000000000000000000000000000000000000000000 PUSH0 MSTORE PUSH1 0x11 PUSH1 0x4 MSTORE PUSH1 0x24 PUSH0 REVERT JUMPDEST PUSH0 PUSH2 0x257 DUP3 PUSH2 0x187 JUMP JUMPDEST SWAP2 POP PUSH2 0x262 DUP4 PUSH2 0x187 JUMP JUMPDEST SWAP3 POP DUP3 DUP3 MUL PUSH2 0x270 DUP2 PUSH2 0x187 JUMP JUMPDEST SWAP2 POP DUP3 DUP3 DIV DUP5 EQ DUP4 ISZERO OR PUSH2 0x287 JUMPI PUSH2 0x286 PUSH2 0x220 JUMP JUMPDEST JUMPDEST POP SWAP3 SWAP2 POP POP JUMP JUMPDEST PUSH0 PUSH2 0x298 DUP3 PUSH2 0x187 JUMP JUMPDEST SWAP2 POP PUSH2 0x2A3 DUP4 PUSH2 0x187 JUMP JUMPDEST SWAP3 POP DUP3 DUP3 SUB SWAP1 POP DUP2 DUP2 GT ISZERO PUSH2 0x2BB JUMPI PUSH2 0x2BA PUSH2 0x220 JUMP JUMPDEST JUMPDEST SWAP3 SWAP2 POP POP JUMP JUMPDEST PUSH32 0x4E487B7100000000000000000000000000000000000000000000000000000000 PUSH0 MSTORE PUSH1 0x12 PUSH1 0x4 MSTORE PUSH1 0x24 PUSH0 REVERT JUMPDEST PUSH0 PUSH2 0x2F8 DUP3 PUSH2 0x187 JUMP JUMPDEST SWAP2 POP PUSH2 0x303 DUP4 PUSH2 0x187 JUMP JUMPDEST SWAP3 POP DUP3 PUSH2 0x313 JUMPI PUSH2 0x312 PUSH2 0x2C1 JUMP JUMPDEST JUMPDEST DUP3 DUP3 DIV SWAP1 POP SWAP3 SWAP2 POP POP JUMP JUMPDEST PUSH0 PUSH2 0x328 DUP3 PUSH2 0x187 JUMP JUMPDEST SWAP2 POP PUSH2 0x333 DUP4 PUSH2 0x187 JUMP JUMPDEST SWAP3 POP DUP3 DUP3 ADD SWAP1 POP DUP1 DUP3 GT ISZERO PUSH2 0x34B JUMPI PUSH2 0x34A PUSH2 0x220 JUMP JUMPDEST JUMPDEST SWAP3 SWAP2 POP POP JUMP INVALID LOG2 PUSH5 0x6970667358 0x22 SLT KECCAK256 0x21 PUSH25 0xBC8EB4822C8F7C6C697D2B642CD8C5B1B7C5623336B87F91C5 PREVRANDAO 0xDB 0x22 CODECOPY 0x4F PUSH5 0x736F6C6343 STOP ADDMOD 0x1E STOP CALLER "
				},
				"gasEstimates": {
					"creation": {
						"codeDepositCost": "180600",
						"executionCost": "224",
						"totalCost": "180824"
					},
					"external": {
						"getDifference(uint256,uint256)": "infinite",
						"getProduct(uint256,uint256)": "infinite",
						"getQuotient(uint256,uint256)": "infinite",
						"getSum(uint256,uint256)": "infinite"
					}
				},
				"methodIdentifiers": {
					"getDifference(uint256,uint256)": "4c7c77fc",
					"getProduct(uint256,uint256)": "24f346ab",
					"getQuotient(uint256,uint256)": "88dffe9b",
					"getSum(uint256,uint256)": "8e86b125"
				}
			},
			"storageLayout": {
				"storage": [],
				"types": null
			},
			"userdoc": {
				"kind": "user",
				"methods": {},
				"version": 1
			}
		}
	}
}