{
	"data": {
		"bytecode": {
			"linkReferences": {},
			"object": "6080604052348015600e575f5ffd5b506101c28061001c5f395ff3fe608060405234801561000f575f5ffd5b5060043610610029575f3560e01c8063c9d27afe1461002d575b5f5ffd5b61004760048036038101906100429190610109565b610049565b005b3373ffffffffffffffffffffffffffffffffffffffff167fe407334acb3e7927b72550847e6c9c4ead41f6f2b16820ad3953717b010f68188383604051610091929190610165565b60405180910390a25050565b5f5ffd5b5f819050919050565b6100b3816100a1565b81146100bd575f5ffd5b50565b5f813590506100ce816100aa565b92915050565b5f8115159050919050565b6100e8816100d4565b81146100f2575f5ffd5b50565b5f81359050610103816100df565b92915050565b5f5f6040838503121561011f5761011e61009d565b5b5f61012c858286016100c0565b925050602061013d858286016100f5565b9150509250929050565b610150816100a1565b82525050565b61015f816100d4565b82525050565b5f6040820190506101785f830185610147565b6101856020830184610156565b939250505056fea2646970667358221220c40ac7a1f6bfa0f01666359a7bb48717bd0ae6c77ee76a4f417490df5cbd735764736f6c634300081e0033",
			"opcodes": "PUSH1 0x80 PUSH1 0x40 MSTORE CALLVALUE DUP1 ISZERO PUSH1 0xE JUMPI PUSH0 PUSH0 REVERT JUMPDEST POP PUSH2 0x1C2 DUP1 PUSH2 0x1C PUSH0 CODECOPY PUSH0 RETURN INVALID PUSH1 0x80 PUSH1 0x40 MSTORE CALLVALUE DUP1 ISZERO PUSH2 0xF JUMPI PUSH0 PUSH0 REVERT JUMPDEST POP PUSH1 0x4 CALLDATASIZE LT PUSH2 0x29 JUMPI PUSH0 CALLDATALOAD PUSH1 0xE0 SHR DUP1 PUSH4 0xC9D27AFE EQ PUSH2 0x2D JUMPI JUMPDEST PUSH0 PUSH0 REVERT JUMPDEST PUSH2 0x47 PUSH1 0x4 DUP1 CALLDATASIZE SUB DUP2 ADD SWAP1 PUSH2 0x42 SWAP2 SWAP1 PUSH2 0x109 JUMP JUMPDEST PUSH2 0x49 JUMP JUMPDEST STOP JUMPDEST CALLER PUSH20 0xFFFFFFFFFFFFFFFFFFFFFFFFFFFFFFFFFFFFFFFF AND PUSH32 0xE407334ACB3E7927B72550847E6C9C4EAD41F6F2B16820AD3953717B010F6818 DUP4 DUP4 PUSH1 0x40 MLOAD PUSH2 0x91 SWAP3 SWAP2 SWAP1 PUSH2 0x165 JUMP JUMPDEST PUSH1 0x40 MLOAD DUP1 SWAP2 SUB SWAP1 LOG2 POP POP JUMP JUMPDEST PUSH0 PUSH0 REVERT JUMPDEST PUSH0 DUP2 SWAP1 POP SWAP2 SWAP1 POP JUMP JUMPDEST PUSH2 0xB3 DUP2 PUSH2 0xA1 JUMP JUMPDEST DUP2 EQ PUSH2 0xBD JUMPI PUSH0 PUSH0 REVERT JUMPDEST POP JUMP JUMPDEST PUSH0 DUP2 CALLDATALOAD SWAP1 POP PUSH2 0xCE DUP2 PUSH2 0xAA JUMP JUMPDEST SWAP3 SWAP2 POP POP JUMP JUMPDEST PUSH0 DUP2 ISZERO ISZERO SWAP1 POP SWAP2 SWAP1 POP JUMP JUMPDEST PUSH2 0xE8 DUP2 PUSH2 0xD4 JUMP JUMPDEST DUP2 EQ PUSH2 0xF2 JUMPI PUSH0 PUSH0 REVERT JUMPDEST POP JUMP JUMPDEST PUSH0 DUP2 CALLDATALOAD SWAP1 POP PUSH2 0x103 DUP2 PUSH2 0xDF JUMP JUMPDEST SWAP3 SWAP2 POP POP JUMP JUMPDEST PUSH0 PUSH0 PUSH1 0x40 DUP4 DUP6 SUB SLT ISZERO PUSH2 0x11F JUMPI PUSH2 0x11E PUSH2 0x9D JUMP JUMPDEST JUMPDEST PUSH0 PUSH2 0x12C DUP6 DUP3 DUP7 ADD PUSH2 0xC0 JUMP JUMPDEST SWAP3 POP POP PUSH1 0x20 PUSH2 0x13D DUP6 DUP3 DUP7 ADD PUSH2 0xF5 JUMP JUMPDEST SWAP2 POP POP SWAP3 POP SWAP3 SWAP1 POP JUMP JUMPDEST PUSH2 0x150 DUP2 PUSH2 0xA1 JUMP JUMPDEST DUP3 MSTORE POP POP JUMP JUMPDEST PUSH2 0x15F DUP2 PUSH2 0xD4 JUMP JUMPDEST DUP3 MSTORE POP POP JUMP JUMPDEST PUSH0 PUSH1 0x40 DUP3 ADD SWAP1 POP PUSH2 0x178 PUSH0 DUP4 ADD DUP6 PUSH2 0x147 JUMP JUMPDEST PUSH2 0x185 PUSH1 0x20 DUP4 ADD DUP5 PUSH2 0x156 JUMP JUMPDEST SWAP4 SWAP3 POP POP POP JUMP INVALID LOG2 PUSH5 0x6970667358 0x22 SLT KECCAK256 0xC4 EXP 0xC7 LOG1 0xF6 0xBF LOG0 CREATE AND PUSH7 0x359A7BB48717BD EXP DUPN 0xC7 PUSH31 0xE76A4F417490DF5CBD735764736F6C634300081E0033000000000000000000 "
		},
		"gasEstimates": {
			"creation": {
				"codeDepositCost": "90000",
				"executionCost": "139",
				"totalCost": "90139"
			},
			"external": {
				"vote(uint256,bool)": "infinite"
			}
		},
		"methodIdentifiers": {
			"vote(uint256,bool)": "c9d27afe"
		}
	},
	"abi": [
		{
			"anonymous": false,
			"inputs": [
				{
					"indexed": true,
					"internalType": "address",
					"name": "voter",
					"type": "address"
				},
				{
					"indexed": false,
					"internalType": "uint256",
					"name": "proposalId",
					"type": "uint256"
				},
				{
					"indexed": false,
					"internalType": "bool",
					"name": "choice",
					"type": "bool"
				}
			],
			"name": "VoteCasted",
			"type": "event"
		},
		{
			"inputs": [
				{
					"internalType": "uint256",
					"name": "proposalId",
					"type": "uint256"
				},
				{
					"internalType": "bool",
					"name": "choice",
					"type": "bool"
				}
			],
			"name": "vote",
			"outputs": [],
			"stateMutability": "nonpayable",
			"type": "function"
		}
	]
}