{
	"data": {
		"bytecode": {
			"linkReferences": {},
			"object": "6080604052348015600e575f5ffd5b5073694aa1769357215de4fac081bf1f309adc3253065f5f6101000a81548173ffffffffffffffffffffffffffffffffffffffff021916908373ffffffffffffffffffffffffffffffffffffffff1602179055506105278061006f5f395ff3fe608060405234801561000f575f5ffd5b506004361061004a575f3560e01c8063bb27e0ce1461004e578063bcecf6671461006c578063d8050c731461009c578063f2d85a70146100ba575b5f5ffd5b6100566100d8565b604051610063919061023f565b60405180910390f35b61008660048036038101906100819190610286565b6101b6565b604051610093919061023f565b60405180910390f35b6100a46101ec565b6040516100b1919061023f565b60405180910390f35b6100c26101f5565b6040516100cf919061023f565b60405180910390f35b5f5f5f5f9054906101000a900473ffffffffffffffffffffffffffffffffffffffff1673ffffffffffffffffffffffffffffffffffffffff1663feaf968c6040518163ffffffff1660e01b815260040160a060405180830381865afa158015610143573d5f5f3e3d5ffd5b505050506040513d601f19601f820116820180604052508101906101679190610337565b5050509150505f81136101af576040517f08c379a00000000000000000000000000000000000000000000000000000000081526004016101a690610408565b60405180910390fd5b8091505090565b5f5f6101c06100d8565b9050806a52b7d2dcc80cd2e4000000846101da9190610453565b6101e491906104c1565b915050919050565b64015d7c624081565b5f5f6101ff6100d8565b90506305f5e10064015d7c6240826102179190610453565b61022191906104c1565b91505090565b5f819050919050565b61023981610227565b82525050565b5f6020820190506102525f830184610230565b92915050565b5f5ffd5b61026581610227565b811461026f575f5ffd5b50565b5f813590506102808161025c565b92915050565b5f6020828403121561029b5761029a610258565b5b5f6102a884828501610272565b91505092915050565b5f69ffffffffffffffffffff82169050919050565b6102cf816102b1565b81146102d9575f5ffd5b50565b5f815190506102ea816102c6565b92915050565b5f819050919050565b610302816102f0565b811461030c575f5ffd5b50565b5f8151905061031d816102f9565b92915050565b5f815190506103318161025c565b92915050565b5f5f5f5f5f60a086880312156103505761034f610258565b5b5f61035d888289016102dc565b955050602061036e8882890161030f565b945050604061037f88828901610323565b935050606061039088828901610323565b92505060806103a1888289016102dc565b9150509295509295909350565b5f82825260208201905092915050565b7f496e76616c6964207072696365000000000000000000000000000000000000005f82015250565b5f6103f2600d836103ae565b91506103fd826103be565b602082019050919050565b5f6020820190508181035f83015261041f816103e6565b9050919050565b7f4e487b71000000000000000000000000000000000000000000000000000000005f52601160045260245ffd5b5f61045d82610227565b915061046883610227565b925082820261047681610227565b9150828204841483151761048d5761048c610426565b5b5092915050565b7f4e487b71000000000000000000000000000000000000000000000000000000005f52601260045260245ffd5b5f6104cb82610227565b91506104d683610227565b9250826104e6576104e5610494565b5b82820490509291505056fea264697066735822122075b6f06a976b80d107a8536e950416b778829240497d5eda3ec46f83689bf8dd64736f6c634300081e0033",
			"opcodes": "PUSH1 0x80 PUSH1 0x40 MSTORE CALLVALUE DUP1 ISZERO PUSH1 0xE JUMPI PUSH0 PUSH0 REVERT JUMPDEST POP PUSH20 0x694AA1769357215DE4FAC081BF1F309ADC325306 PUSH0 PUSH0 PUSH2 0x100 EXP DUP2 SLOAD DUP2 PUSH20 0xFFFFFFFFFFFFFFFFFFFFFFFFFFFFFFFFFFFFFFFF MUL NOT AND SWAP1 DUP4 PUSH20 0xFFFFFFFFFFFFFFFFFFFFFFFFFFFFFFFFFFFFFFFF AND MUL OR SWAP1 SSTORE POP PUSH2 0x527 DUP1 PUSH2 0x6F PUSH0 CODECOPY PUSH0 RETURN INVALID PUSH1 0x80 PUSH1 0x40 MSTORE CALLVALUE DUP1 ISZERO PUSH2 0xF JUMPI PUSH0 PUSH0 REVERT JUMPDEST POP PUSH1 0x4 CALLDATASIZE LT PUSH2 0x4A JUMPI PUSH0 CALLDATALOAD PUSH1 0xE0 SHR DUP1 PUSH4 0xBB27E0CE EQ PUSH2 0x4E JUMPI DUP1 PUSH4 0xBCECF667 EQ PUSH2 0x6C JUMPI DUP1 PUSH4 0xD8050C73 EQ PUSH2 0x9C JUMPI DUP1 PUSH4 0xF2D85A70 EQ PUSH2 0xBA JUMPI JUMPDEST PUSH0 PUSH0 REVERT JUMPDEST PUSH2 0x56 PUSH2 0xD8 JUMP JUMPDEST PUSH1 0x40 MLOAD PUSH2 0x63 SWAP2 SWAP1 PUSH2 0x23F JUMP JUMPDEST PUSH1 0x40 MLOAD DUP1 SWAP2 SUB SWAP1 RETURN JUMPDEST PUSH2 0x86 PUSH1 0x4 DUP1 CALLDATASIZE SUB DUP2 ADD SWAP1 PUSH2 0x81 SWAP2 SWAP1 PUSH2 0x286 JUMP JUMPDEST PUSH2 0x1B6 JUMP JUMPDEST PUSH1 0x40 MLOAD PUSH2 0x93 SWAP2 SWAP1 PUSH2 0x23F JUMP JUMPDEST PUSH1 0x40 MLOAD DUP1 SWAP2 SUB SWAP1 RETURN JUMPDEST PUSH2 0xA4 PUSH2 0x1EC JUMP JUMPDEST PUSH1 0x40 MLOAD PUSH2 0xB1 SWAP2 SWAP1 PUSH2 0x23F JUMP JUMPDEST PUSH1 0x40 MLOAD DUP1 SWAP2 SUB SWAP1 RETURN JUMPDEST PUSH2 0xC2 PUSH2 0x1F5 JUMP JUMPDEST PUSH1 0x40 MLOAD PUSH2 0xCF SWAP2 SWAP1 PUSH2 0x23F JUMP JUMPDEST PUSH1 0x40 MLOAD DUP1 SWAP2 SUB SWAP1 RETURN JUMPDEST PUSH0 PUSH0 PUSH0 PUSH0 SWAP1 SLOAD SWAP1 PUSH2 0x100 EXP SWAP1 DIV PUSH20 0xFFFFFFFFFFFFFFFFFFFFFFFFFFFFFFFFFFFFFFFF AND PUSH20 0xFFFFFFFFFFFFFFFFFFFFFFFFFFFFFFFFFFFFFFFF AND PUSH4 0xFEAF968C PUSH1 0x40 MLOAD DUP2 PUSH4 0xFFFFFFFF AND PUSH1 0xE0 SHL DUP2 MSTORE PUSH1 0x4 ADD PUSH1 0xA0 PUSH1 0x40 MLOAD DUP1 DUP4 SUB DUP2 DUP7 GAS STATICCALL ISZERO DUP1 ISZERO PUSH2 0x143 JUMPI RETURNDATASIZE PUSH0 PUSH0 RETURNDATACOPY RETURNDATASIZE PUSH0 REVERT JUMPDEST POP POP POP POP PUSH1 0x40 MLOAD RETURNDATASIZE PUSH1 0x1F NOT PUSH1 0x1F DUP3 ADD AND DUP3 ADD DUP1 PUSH1 0x40 MSTORE POP DUP2 ADD SWAP1 PUSH2 0x167 SWAP2 SWAP1 PUSH2 0x337 JUMP JUMPDEST POP POP POP SWAP2 POP POP PUSH0 DUP2 SGT PUSH2 0x1AF JUMPI PUSH1 0x40 MLOAD PUSH32 0x8C379A000000000000000000000000000000000000000000000000000000000 DUP2 MSTORE PUSH1 0x4 ADD PUSH2 0x1A6 SWAP1 PUSH2 0x408 JUMP JUMPDEST PUSH1 0x40 MLOAD DUP1 SWAP2 SUB SWAP1 REVERT JUMPDEST DUP1 SWAP2 POP POP SWAP1 JUMP JUMPDEST PUSH0 PUSH0 PUSH2 0x1C0 PUSH2 0xD8 JUMP JUMPDEST SWAP1 POP DUP1 PUSH11 0x52B7D2DCC80CD2E4000000 DUP5 PUSH2 0x1DA SWAP2 SWAP1 PUSH2 0x453 JUMP JUMPDEST PUSH2 0x1E4 SWAP2 SWAP1 PUSH2 0x4C1 JUMP JUMPDEST SWAP2 POP POP SWAP2 SWAP1 POP JUMP JUMPDEST PUSH5 0x15D7C6240 DUP2 JUMP JUMPDEST PUSH0 PUSH0 PUSH2 0x1FF PUSH2 0xD8 JUMP JUMPDEST SWAP1 POP PUSH4 0x5F5E100 PUSH5 0x15D7C6240 DUP3 PUSH2 0x217 SWAP2 SWAP1 PUSH2 0x453 JUMP JUMPDEST PUSH2 0x221 SWAP2 SWAP1 PUSH2 0x4C1 JUMP JUMPDEST SWAP2 POP POP SWAP1 JUMP JUMPDEST PUSH0 DUP2 SWAP1 POP SWAP2 SWAP1 POP JUMP JUMPDEST PUSH2 0x239 DUP2 PUSH2 0x227 JUMP JUMPDEST DUP3 MSTORE POP POP JUMP JUMPDEST PUSH0 PUSH1 0x20 DUP3 ADD SWAP1 POP PUSH2 0x252 PUSH0 DUP4 ADD DUP5 PUSH2 0x230 JUMP JUMPDEST SWAP3 SWAP2 POP POP JUMP JUMPDEST PUSH0 PUSH0 REVERT JUMPDEST PUSH2 0x265 DUP2 PUSH2 0x227 JUMP JUMPDEST DUP2 EQ PUSH2 0x26F JUMPI PUSH0 PUSH0 REVERT JUMPDEST POP JUMP JUMPDEST PUSH0 DUP2 CALLDATALOAD SWAP1 POP PUSH2 0x280 DUP2 PUSH2 0x25C JUMP JUMPDEST SWAP3 SWAP2 POP POP JUMP JUMPDEST PUSH0 PUSH1 0x20 DUP3 DUP5 SUB SLT ISZERO PUSH2 0x29B JUMPI PUSH2 0x29A PUSH2 0x258 JUMP JUMPDEST JUMPDEST PUSH0 PUSH2 0x2A8 DUP5 DUP3 DUP6 ADD PUSH2 0x272 JUMP JUMPDEST SWAP2 POP POP SWAP3 SWAP2 POP POP JUMP JUMPDEST PUSH0 PUSH10 0xFFFFFFFFFFFFFFFFFFFF DUP3 AND SWAP1 POP SWAP2 SWAP1 POP JUMP JUMPDEST PUSH2 0x2CF DUP2 PUSH2 0x2B1 JUMP JUMPDEST DUP2 EQ PUSH2 0x2D9 JUMPI PUSH0 PUSH0 REVERT JUMPDEST POP JUMP JUMPDEST PUSH0 DUP2 MLOAD SWAP1 POP PUSH2 0x2EA DUP2 PUSH2 0x2C6 JUMP JUMPDEST SWAP3 SWAP2 POP POP JUMP JUMPDEST PUSH0 DUP2 SWAP1 POP SWAP2 SWAP1 POP JUMP JUMPDEST PUSH2 0x302 DUP2 PUSH2 0x2F0 JUMP JUMPDEST DUP2 EQ PUSH2 0x30C JUMPI PUSH0 PUSH0 REVERT JUMPDEST POP JUMP JUMPDEST PUSH0 DUP2 MLOAD SWAP1 POP PUSH2 0x31D DUP2 PUSH2 0x2F9 JUMP JUMPDEST SWAP3 SWAP2 POP POP JUMP JUMPDEST PUSH0 DUP2 MLOAD SWAP1 POP PUSH2 0x331 DUP2 PUSH2 0x25C JUMP JUMPDEST SWAP3 SWAP2 POP POP JUMP JUMPDEST PUSH0 PUSH0 PUSH0 PUSH0 PUSH0 PUSH1 0xA0 DUP7 DUP9 SUB SLT ISZERO PUSH2 0x350 JUMPI PUSH2 0x34F PUSH2 0x258 JUMP JUMPDEST JUMPDEST PUSH0 PUSH2 0x35D DUP9 DUP3 DUP10 ADD PUSH2 0x2DC JUMP JUMPDEST SWAP6 POP POP PUSH1 0x20 PUSH2 0x36E DUP9 DUP3 DUP10 ADD PUSH2 0x30F JUMP JUMPDEST SWAP5 POP POP PUSH1 0x40 PUSH2 0x37F DUP9 DUP3 DUP10 ADD PUSH2 0x323 JUMP JUMPDEST SWAP4 POP POP PUSH1 0x60 PUSH2 0x390 DUP9 DUP3 DUP10 ADD PUSH2 0x323 JUMP JUMPDEST SWAP3 POP POP PUSH1 0x80 PUSH2 0x3A1 DUP9 DUP3 DUP10 ADD PUSH2 0x2DC JUMP JUMPDEST SWAP2 POP POP SWAP3 SWAP6 POP SWAP3 SWAP6 SWAP1 SWAP4 POP JUMP JUMPDEST PUSH0 DUP3 DUP3 MSTORE PUSH1 0x20 DUP3 ADD SWAP1 POP SWAP3 SWAP2 POP POP JUMP JUMPDEST PUSH32 0x496E76616C696420707269636500000000000000000000000000000000000000 PUSH0 DUP3 ADD MSTORE POP JUMP JUMPDEST PUSH0 PUSH2 0x3F2 PUSH1 0xD DUP4 PUSH2 0x3AE JUMP JUMPDEST SWAP2 POP PUSH2 0x3FD DUP3 PUSH2 0x3BE JUMP JUMPDEST PUSH1 0x20 DUP3 ADD SWAP1 POP SWAP2 SWAP1 POP JUMP JUMPDEST PUSH0 PUSH1 0x20 DUP3 ADD SWAP1 POP DUP2 DUP2 SUB PUSH0 DUP4 ADD MSTORE PUSH2 0x41F DUP2 PUSH2 0x3E6 JUMP JUMPDEST SWAP1 POP SWAP2 SWAP1 POP JUMP JUMPDEST PUSH32 0x4E487B7100000000000000000000000000000000000000000000000000000000 PUSH0 MSTORE PUSH1 0x11 PUSH1 0x4 MSTORE PUSH1 0x24 PUSH0 REVERT JUMPDEST PUSH0 PUSH2 0x45D DUP3 PUSH2 0x227 JUMP JUMPDEST SWAP2 POP PUSH2 0x468 DUP4 PUSH2 0x227 JUMP JUMPDEST SWAP3 POP DUP3 DUP3 MUL PUSH2 0x476 DUP2 PUSH2 0x227 JUMP JUMPDEST SWAP2 POP DUP3 DUP3 DIV DUP5 EQ DUP4 ISZERO OR PUSH2 0x48D JUMPI PUSH2 0x48C PUSH2 0x426 JUMP JUMPDEST JUMPDEST POP SWAP3 SWAP2 POP POP JUMP JUMPDEST PUSH32 0x4E487B7100000000000000000000000000000000000000000000000000000000 PUSH0 MSTORE PUSH1 0x12 PUSH1 0x4 MSTORE PUSH1 0x24 PUSH0 REVERT JUMPDEST PUSH0 PUSH2 0x4CB DUP3 PUSH2 0x227 JUMP JUMPDEST SWAP2 POP PUSH2 0x4D6 DUP4 PUSH2 0x227 JUMP JUMPDEST SWAP3 POP DUP3 PUSH2 0x4E6 JUMPI PUSH2 0x4E5 PUSH2 0x494 JUMP JUMPDEST JUMPDEST DUP3 DUP3 DIV SWAP1 POP SWAP3 SWAP2 POP POP JUMP INVALID LOG2 PUSH5 0x6970667358 0x22 SLT KECCAK256 PUSH22 0xB6F06A976B80D107A8536E950416B778829240497D5E 0xDA RETURNDATACOPY 0xC4 PUSH16 0x83689BF8DD64736F6C634300081E0033 "
		},
		"gasEstimates": {
			"creation": {
				"codeDepositCost": "263800",
				"executionCost": "24569",
				"totalCost": "288369"
			},
			"external": {
				"PHP_RATE()": "347",
				"ethToPhp()": "infinite",
				"getEthUsd()": "infinite",
				"usdToEth(uint256)": "infinite"
			}
		},
		"methodIdentifiers": {
			"PHP_RATE()": "d8050c73",
			"ethToPhp()": "f2d85a70",
			"getEthUsd()": "bb27e0ce",
			"usdToEth(uint256)": "bcecf667"
		}
	},
	"abi": [
		{
			"inputs": [],
			"stateMutability": "nonpayable",
			"type": "constructor"
		},
		{
			"inputs": [],
			"name": "PHP_RATE",
			"outputs": [
				{
					"internalType": "uint256",
					"name": "",
					"type": "uint256"
				}
			],
			"stateMutability": "view",
			"type": "function"
		},
		{
			"inputs": [],
			"name": "ethToPhp",
			"outputs": [
				{
					"internalType": "uint256",
					"name": "phpAmount",
					"type": "uint256"
				}
			],
			"stateMutability": "view",
			"type": "function"
		},
		{
			"inputs": [],
			"name": "getEthUsd",
			"outputs": [
				{
					"internalType": "uint256",
					"name": "",
					"type": "uint256"
				}
			],
			"stateMutability": "view",
			"type": "function"
		},
		{
			"inputs": [
				{
					"internalType": "uint256",
					"name": "usd",
					"type": "uint256"
				}
			],
			"name": "usdToEth",
			"outputs": [
				{
					"internalType": "uint256",
					"name": "weiAmount",
					"type": "uint256"
				}
			],
			"stateMutability": "view",
			"type": "function"
		}
	]
}