{
	"data": {
		"bytecode": {
			"linkReferences": {},
			"object": "6080604052348015600e575f5ffd5b5073694aa1769357215de4fac081bf1f309adc3253065f5f6101000a81548173ffffffffffffffffffffffffffffffffffffffff021916908373ffffffffffffffffffffffffffffffffffffffff1602179055506108ec8061006f5f395ff3fe608060405234801561000f575f5ffd5b506004361061003f575f3560e01c806331b67838146100435780638e15f47314610061578063a3053e2a1461007f575b5f5ffd5b61004b6100af565b6040516100589190610366565b60405180910390f35b610069610199565b6040516100769190610366565b60405180910390f35b610099600480360381019061009491906103b6565b610277565b6040516100a691906103f0565b60405180910390f35b5f5f5f5f9054906101000a900473ffffffffffffffffffffffffffffffffffffffff1673ffffffffffffffffffffffffffffffffffffffff1663feaf968c6040518163ffffffff1660e01b815260040160a060405180830381865afa15801561011a573d5f5f3e3d5ffd5b505050506040513d601f19601f8201168201806040525081019061013e9190610486565b5050509150505f8113610186576040517f08c379a000000000000000000000000000000000000000000000000000000000815260040161017d9061057d565b60405180910390fd5b603b8161019391906105c8565b91505090565b5f5f5f5f9054906101000a900473ffffffffffffffffffffffffffffffffffffffff1673ffffffffffffffffffffffffffffffffffffffff1663feaf968c6040518163ffffffff1660e01b815260040160a060405180830381865afa158015610204573d5f5f3e3d5ffd5b505050506040513d601f19601f820116820180604052508101906102289190610486565b5050509150505f8113610270576040517f08c379a00000000000000000000000000000000000000000000000000000000081526004016102679061057d565b60405180910390fd5b8091505090565b5f5f610281610199565b90505f5f5f9054906101000a900473ffffffffffffffffffffffffffffffffffffffff1673ffffffffffffffffffffffffffffffffffffffff1663313ce5676040518163ffffffff1660e01b8152600401602060405180830381865afa1580156102ed573d5f5f3e3d5ffd5b505050506040513d601f19601f820116820180604052508101906103119190610674565b90505f81600a61032191906107ce565b90505f8390505f8183886103359190610818565b61033f9190610886565b90508095505050505050919050565b5f819050919050565b6103608161034e565b82525050565b5f6020820190506103795f830184610357565b92915050565b5f5ffd5b5f819050919050565b61039581610383565b811461039f575f5ffd5b50565b5f813590506103b08161038c565b92915050565b5f602082840312156103cb576103ca61037f565b5b5f6103d8848285016103a2565b91505092915050565b6103ea81610383565b82525050565b5f6020820190506104035f8301846103e1565b92915050565b5f69ffffffffffffffffffff82169050919050565b61042781610409565b8114610431575f5ffd5b50565b5f815190506104428161041e565b92915050565b6104518161034e565b811461045b575f5ffd5b50565b5f8151905061046c81610448565b92915050565b5f815190506104808161038c565b92915050565b5f5f5f5f5f60a0868803121561049f5761049e61037f565b5b5f6104ac88828901610434565b95505060206104bd8882890161045e565b94505060406104ce88828901610472565b93505060606104df88828901610472565b92505060806104f088828901610434565b9150509295509295909350565b5f82825260208201905092915050565b7f5072696365206973206e6f7420617661696c61626c65206f7220696e76616c695f8201527f642e000000000000000000000000000000000000000000000000000000000000602082015250565b5f6105676022836104fd565b91506105728261050d565b604082019050919050565b5f6020820190508181035f8301526105948161055b565b9050919050565b7f4e487b71000000000000000000000000000000000000000000000000000000005f52601160045260245ffd5b5f6105d28261034e565b91506105dd8361034e565b92508282026105eb8161034e565b91507f800000000000000000000000000000000000000000000000000000000000000084145f841216156106225761062161059b565b5b82820584148315176106375761063661059b565b5b5092915050565b5f60ff82169050919050565b6106538161063e565b811461065d575f5ffd5b50565b5f8151905061066e8161064a565b92915050565b5f602082840312156106895761068861037f565b5b5f61069684828501610660565b91505092915050565b5f8160011c9050919050565b5f5f8291508390505b60018511156106f4578086048111156106d0576106cf61059b565b5b60018516156106df5780820291505b80810290506106ed8561069f565b94506106b4565b94509492505050565b5f8261070c57600190506107c7565b81610719575f90506107c7565b816001811461072f576002811461073957610768565b60019150506107c7565b60ff84111561074b5761074a61059b565b5b8360020a9150848211156107625761076161059b565b5b506107c7565b5060208310610133831016604e8410600b841016171561079d5782820a9050838111156107985761079761059b565b5b6107c7565b6107aa84848460016106ab565b925090508184048111156107c1576107c061059b565b5b81810290505b9392505050565b5f6107d882610383565b91506107e38361063e565b92506108107fffffffffffffffffffffffffffffffffffffffffffffffffffffffffffffffff84846106fd565b905092915050565b5f61082282610383565b915061082d83610383565b925082820261083b81610383565b915082820484148315176108525761085161059b565b5b5092915050565b7f4e487b71000000000000000000000000000000000000000000000000000000005f52601260045260245ffd5b5f61089082610383565b915061089b83610383565b9250826108ab576108aa610859565b5b82820490509291505056fea264697066735822122069810b8a1ba78aab00180eb01c7d74c2d644f1f1d716cc2e37f12b379d6bcee364736f6c634300081e0033",
			"opcodes": "PUSH1 0x80 PUSH1 0x40 MSTORE CALLVALUE DUP1 ISZERO PUSH1 0xE JUMPI PUSH0 PUSH0 REVERT JUMPDEST POP PUSH20 0x694AA1769357215DE4FAC081BF1F309ADC325306 PUSH0 PUSH0 PUSH2 0x100 EXP DUP2 SLOAD DUP2 PUSH20 0xFFFFFFFFFFFFFFFFFFFFFFFFFFFFFFFFFFFFFFFF MUL NOT AND SWAP1 DUP4 PUSH20 0xFFFFFFFFFFFFFFFFFFFFFFFFFFFFFFFFFFFFFFFF AND MUL OR SWAP1 SSTORE POP PUSH2 0x8EC DUP1 PUSH2 0x6F PUSH0 CODECOPY PUSH0 RETURN INVALID PUSH1 0x80 PUSH1 0x40 MSTORE CALLVALUE DUP1 ISZERO PUSH2 0xF JUMPI PUSH0 PUSH0 REVERT JUMPDEST POP PUSH1 0x4 CALLDATASIZE LT PUSH2 0x3F JUMPI PUSH0 CALLDATALOAD PUSH1 0xE0 SHR DUP1 PUSH4 0x31B67838 EQ PUSH2 0x43 JUMPI DUP1 PUSH4 0x8E15F473 EQ PUSH2 0x61 JUMPI DUP1 PUSH4 0xA3053E2A EQ PUSH2 0x7F JUMPI JUMPDEST PUSH0 PUSH0 REVERT JUMPDEST PUSH2 0x4B PUSH2 0xAF JUMP JUMPDEST PUSH1 0x40 MLOAD PUSH2 0x58 SWAP2 SWAP1 PUSH2 0x366 JUMP JUMPDEST PUSH1 0x40 MLOAD DUP1 SWAP2 SUB SWAP1 RETURN JUMPDEST PUSH2 0x69 PUSH2 0x199 JUMP JUMPDEST PUSH1 0x40 MLOAD PUSH2 0x76 SWAP2 SWAP1 PUSH2 0x366 JUMP JUMPDEST PUSH1 0x40 MLOAD DUP1 SWAP2 SUB SWAP1 RETURN JUMPDEST PUSH2 0x99 PUSH1 0x4 DUP1 CALLDATASIZE SUB DUP2 ADD SWAP1 PUSH2 0x94 SWAP2 SWAP1 PUSH2 0x3B6 JUMP JUMPDEST PUSH2 0x277 JUMP JUMPDEST PUSH1 0x40 MLOAD PUSH2 0xA6 SWAP2 SWAP1 PUSH2 0x3F0 JUMP JUMPDEST PUSH1 0x40 MLOAD DUP1 SWAP2 SUB SWAP1 RETURN JUMPDEST PUSH0 PUSH0 PUSH0 PUSH0 SWAP1 SLOAD SWAP1 PUSH2 0x100 EXP SWAP1 DIV PUSH20 0xFFFFFFFFFFFFFFFFFFFFFFFFFFFFFFFFFFFFFFFF AND PUSH20 0xFFFFFFFFFFFFFFFFFFFFFFFFFFFFFFFFFFFFFFFF AND PUSH4 0xFEAF968C PUSH1 0x40 MLOAD DUP2 PUSH4 0xFFFFFFFF AND PUSH1 0xE0 SHL DUP2 MSTORE PUSH1 0x4 ADD PUSH1 0xA0 PUSH1 0x40 MLOAD DUP1 DUP4 SUB DUP2 DUP7 GAS STATICCALL ISZERO DUP1 ISZERO PUSH2 0x11A JUMPI RETURNDATASIZE PUSH0 PUSH0 RETURNDATACOPY RETURNDATASIZE PUSH0 REVERT JUMPDEST POP POP POP POP PUSH1 0x40 MLOAD RETURNDATASIZE PUSH1 0x1F NOT PUSH1 0x1F DUP3 ADD AND DUP3 ADD DUP1 PUSH1 0x40 MSTORE POP DUP2 ADD SWAP1 PUSH2 0x13E SWAP2 SWAP1 PUSH2 0x486 JUMP JUMPDEST POP POP POP SWAP2 POP POP PUSH0 DUP2 SGT PUSH2 0x186 JUMPI PUSH1 0x40 MLOAD PUSH32 0x8C379A000000000000000000000000000000000000000000000000000000000 DUP2 MSTORE PUSH1 0x4 ADD PUSH2 0x17D SWAP1 PUSH2 0x57D JUMP JUMPDEST PUSH1 0x40 MLOAD DUP1 SWAP2 SUB SWAP1 REVERT JUMPDEST PUSH1 0x3B DUP2 PUSH2 0x193 SWAP2 SWAP1 PUSH2 0x5C8 JUMP JUMPDEST SWAP2 POP POP SWAP1 JUMP JUMPDEST PUSH0 PUSH0 PUSH0 PUSH0 SWAP1 SLOAD SWAP1 PUSH2 0x100 EXP SWAP1 DIV PUSH20 0xFFFFFFFFFFFFFFFFFFFFFFFFFFFFFFFFFFFFFFFF AND PUSH20 0xFFFFFFFFFFFFFFFFFFFFFFFFFFFFFFFFFFFFFFFF AND PUSH4 0xFEAF968C PUSH1 0x40 MLOAD DUP2 PUSH4 0xFFFFFFFF AND PUSH1 0xE0 SHL DUP2 MSTORE PUSH1 0x4 ADD PUSH1 0xA0 PUSH1 0x40 MLOAD DUP1 DUP4 SUB DUP2 DUP7 GAS STATICCALL ISZERO DUP1 ISZERO PUSH2 0x204 JUMPI RETURNDATASIZE PUSH0 PUSH0 RETURNDATACOPY RETURNDATASIZE PUSH0 REVERT JUMPDEST POP POP POP POP PUSH1 0x40 MLOAD RETURNDATASIZE PUSH1 0x1F NOT PUSH1 0x1F DUP3 ADD AND DUP3 ADD DUP1 PUSH1 0x40 MSTORE POP DUP2 ADD SWAP1 PUSH2 0x228 SWAP2 SWAP1 PUSH2 0x486 JUMP JUMPDEST POP POP POP SWAP2 POP POP PUSH0 DUP2 SGT PUSH2 0x270 JUMPI PUSH1 0x40 MLOAD PUSH32 0x8C379A000000000000000000000000000000000000000000000000000000000 DUP2 MSTORE PUSH1 0x4 ADD PUSH2 0x267 SWAP1 PUSH2 0x57D JUMP JUMPDEST PUSH1 0x40 MLOAD DUP1 SWAP2 SUB SWAP1 REVERT JUMPDEST DUP1 SWAP2 POP POP SWAP1 JUMP JUMPDEST PUSH0 PUSH0 PUSH2 0x281 PUSH2 0x199 JUMP JUMPDEST SWAP1 POP PUSH0 PUSH0 PUSH0 SWAP1 SLOAD SWAP1 PUSH2 0x100 EXP SWAP1 DIV PUSH20 0xFFFFFFFFFFFFFFFFFFFFFFFFFFFFFFFFFFFFFFFF AND PUSH20 0xFFFFFFFFFFFFFFFFFFFFFFFFFFFFFFFFFFFFFFFF AND PUSH4 0x313CE567 PUSH1 0x40 MLOAD DUP2 PUSH4 0xFFFFFFFF AND PUSH1 0xE0 SHL DUP2 MSTORE PUSH1 0x4 ADD PUSH1 0x20 PUSH1 0x40 MLOAD DUP1 DUP4 SUB DUP2 DUP7 GAS STATICCALL ISZERO DUP1 ISZERO PUSH2 0x2ED JUMPI RETURNDATASIZE PUSH0 PUSH0 RETURNDATACOPY RETURNDATASIZE PUSH0 REVERT JUMPDEST POP POP POP POP PUSH1 0x40 MLOAD RETURNDATASIZE PUSH1 0x1F NOT PUSH1 0x1F DUP3 ADD AND DUP3 ADD DUP1 PUSH1 0x40 MSTORE POP DUP2 ADD SWAP1 PUSH2 0x311 SWAP2 SWAP1 PUSH2 0x674 JUMP JUMPDEST SWAP1 POP PUSH0 DUP2 PUSH1 0xA PUSH2 0x321 SWAP2 SWAP1 PUSH2 0x7CE JUMP JUMPDEST SWAP1 POP PUSH0 DUP4 SWAP1 POP PUSH0 DUP2 DUP4 DUP9 PUSH2 0x335 SWAP2 SWAP1 PUSH2 0x818 JUMP JUMPDEST PUSH2 0x33F SWAP2 SWAP1 PUSH2 0x886 JUMP JUMPDEST SWAP1 POP DUP1 SWAP6 POP POP POP POP POP POP SWAP2 SWAP1 POP JUMP JUMPDEST PUSH0 DUP2 SWAP1 POP SWAP2 SWAP1 POP JUMP JUMPDEST PUSH2 0x360 DUP2 PUSH2 0x34E JUMP JUMPDEST DUP3 MSTORE POP POP JUMP JUMPDEST PUSH0 PUSH1 0x20 DUP3 ADD SWAP1 POP PUSH2 0x379 PUSH0 DUP4 ADD DUP5 PUSH2 0x357 JUMP JUMPDEST SWAP3 SWAP2 POP POP JUMP JUMPDEST PUSH0 PUSH0 REVERT JUMPDEST PUSH0 DUP2 SWAP1 POP SWAP2 SWAP1 POP JUMP JUMPDEST PUSH2 0x395 DUP2 PUSH2 0x383 JUMP JUMPDEST DUP2 EQ PUSH2 0x39F JUMPI PUSH0 PUSH0 REVERT JUMPDEST POP JUMP JUMPDEST PUSH0 DUP2 CALLDATALOAD SWAP1 POP PUSH2 0x3B0 DUP2 PUSH2 0x38C JUMP JUMPDEST SWAP3 SWAP2 POP POP JUMP JUMPDEST PUSH0 PUSH1 0x20 DUP3 DUP5 SUB SLT ISZERO PUSH2 0x3CB JUMPI PUSH2 0x3CA PUSH2 0x37F JUMP JUMPDEST JUMPDEST PUSH0 PUSH2 0x3D8 DUP5 DUP3 DUP6 ADD PUSH2 0x3A2 JUMP JUMPDEST SWAP2 POP POP SWAP3 SWAP2 POP POP JUMP JUMPDEST PUSH2 0x3EA DUP2 PUSH2 0x383 JUMP JUMPDEST DUP3 MSTORE POP POP JUMP JUMPDEST PUSH0 PUSH1 0x20 DUP3 ADD SWAP1 POP PUSH2 0x403 PUSH0 DUP4 ADD DUP5 PUSH2 0x3E1 JUMP JUMPDEST SWAP3 SWAP2 POP POP JUMP JUMPDEST PUSH0 PUSH10 0xFFFFFFFFFFFFFFFFFFFF DUP3 AND SWAP1 POP SWAP2 SWAP1 POP JUMP JUMPDEST PUSH2 0x427 DUP2 PUSH2 0x409 JUMP JUMPDEST DUP2 EQ PUSH2 0x431 JUMPI PUSH0 PUSH0 REVERT JUMPDEST POP JUMP JUMPDEST PUSH0 DUP2 MLOAD SWAP1 POP PUSH2 0x442 DUP2 PUSH2 0x41E JUMP JUMPDEST SWAP3 SWAP2 POP POP JUMP JUMPDEST PUSH2 0x451 DUP2 PUSH2 0x34E JUMP JUMPDEST DUP2 EQ PUSH2 0x45B JUMPI PUSH0 PUSH0 REVERT JUMPDEST POP JUMP JUMPDEST PUSH0 DUP2 MLOAD SWAP1 POP PUSH2 0x46C DUP2 PUSH2 0x448 JUMP JUMPDEST SWAP3 SWAP2 POP POP JUMP JUMPDEST PUSH0 DUP2 MLOAD SWAP1 POP PUSH2 0x480 DUP2 PUSH2 0x38C JUMP JUMPDEST SWAP3 SWAP2 POP POP JUMP JUMPDEST PUSH0 PUSH0 PUSH0 PUSH0 PUSH0 PUSH1 0xA0 DUP7 DUP9 SUB SLT ISZERO PUSH2 0x49F JUMPI PUSH2 0x49E PUSH2 0x37F JUMP JUMPDEST JUMPDEST PUSH0 PUSH2 0x4AC DUP9 DUP3 DUP10 ADD PUSH2 0x434 JUMP JUMPDEST SWAP6 POP POP PUSH1 0x20 PUSH2 0x4BD DUP9 DUP3 DUP10 ADD PUSH2 0x45E JUMP JUMPDEST SWAP5 POP POP PUSH1 0x40 PUSH2 0x4CE DUP9 DUP3 DUP10 ADD PUSH2 0x472 JUMP JUMPDEST SWAP4 POP POP PUSH1 0x60 PUSH2 0x4DF DUP9 DUP3 DUP10 ADD PUSH2 0x472 JUMP JUMPDEST SWAP3 POP POP PUSH1 0x80 PUSH2 0x4F0 DUP9 DUP3 DUP10 ADD PUSH2 0x434 JUMP JUMPDEST SWAP2 POP POP SWAP3 SWAP6 POP SWAP3 SWAP6 SWAP1 SWAP4 POP JUMP JUMPDEST PUSH0 DUP3 DUP3 MSTORE PUSH1 0x20 DUP3 ADD SWAP1 POP SWAP3 SWAP2 POP POP JUMP JUMPDEST PUSH32 0x5072696365206973206E6F7420617661696C61626C65206F7220696E76616C69 PUSH0 DUP3 ADD MSTORE PUSH32 0x642E000000000000000000000000000000000000000000000000000000000000 PUSH1 0x20 DUP3 ADD MSTORE POP JUMP JUMPDEST PUSH0 PUSH2 0x567 PUSH1 0x22 DUP4 PUSH2 0x4FD JUMP JUMPDEST SWAP2 POP PUSH2 0x572 DUP3 PUSH2 0x50D JUMP JUMPDEST PUSH1 0x40 DUP3 ADD SWAP1 POP SWAP2 SWAP1 POP JUMP JUMPDEST PUSH0 PUSH1 0x20 DUP3 ADD SWAP1 POP DUP2 DUP2 SUB PUSH0 DUP4 ADD MSTORE PUSH2 0x594 DUP2 PUSH2 0x55B JUMP JUMPDEST SWAP1 POP SWAP2 SWAP1 POP JUMP JUMPDEST PUSH32 0x4E487B7100000000000000000000000000000000000000000000000000000000 PUSH0 MSTORE PUSH1 0x11 PUSH1 0x4 MSTORE PUSH1 0x24 PUSH0 REVERT JUMPDEST PUSH0 PUSH2 0x5D2 DUP3 PUSH2 0x34E JUMP JUMPDEST SWAP2 POP PUSH2 0x5DD DUP4 PUSH2 0x34E JUMP JUMPDEST SWAP3 POP DUP3 DUP3 MUL PUSH2 0x5EB DUP2 PUSH2 0x34E JUMP JUMPDEST SWAP2 POP PUSH32 0x8000000000000000000000000000000000000000000000000000000000000000 DUP5 EQ PUSH0 DUP5 SLT AND ISZERO PUSH2 0x622 JUMPI PUSH2 0x621 PUSH2 0x59B JUMP JUMPDEST JUMPDEST DUP3 DUP3 SDIV DUP5 EQ DUP4 ISZERO OR PUSH2 0x637 JUMPI PUSH2 0x636 PUSH2 0x59B JUMP JUMPDEST JUMPDEST POP SWAP3 SWAP2 POP POP JUMP JUMPDEST PUSH0 PUSH1 0xFF DUP3 AND SWAP1 POP SWAP2 SWAP1 POP JUMP JUMPDEST PUSH2 0x653 DUP2 PUSH2 0x63E JUMP JUMPDEST DUP2 EQ PUSH2 0x65D JUMPI PUSH0 PUSH0 REVERT JUMPDEST POP JUMP JUMPDEST PUSH0 DUP2 MLOAD SWAP1 POP PUSH2 0x66E DUP2 PUSH2 0x64A JUMP JUMPDEST SWAP3 SWAP2 POP POP JUMP JUMPDEST PUSH0 PUSH1 0x20 DUP3 DUP5 SUB SLT ISZERO PUSH2 0x689 JUMPI PUSH2 0x688 PUSH2 0x37F JUMP JUMPDEST JUMPDEST PUSH0 PUSH2 0x696 DUP5 DUP3 DUP6 ADD PUSH2 0x660 JUMP JUMPDEST SWAP2 POP POP SWAP3 SWAP2 POP POP JUMP JUMPDEST PUSH0 DUP2 PUSH1 0x1 SHR SWAP1 POP SWAP2 SWAP1 POP JUMP JUMPDEST PUSH0 PUSH0 DUP3 SWAP2 POP DUP4 SWAP1 POP JUMPDEST PUSH1 0x1 DUP6 GT ISZERO PUSH2 0x6F4 JUMPI DUP1 DUP7 DIV DUP2 GT ISZERO PUSH2 0x6D0 JUMPI PUSH2 0x6CF PUSH2 0x59B JUMP JUMPDEST JUMPDEST PUSH1 0x1 DUP6 AND ISZERO PUSH2 0x6DF JUMPI DUP1 DUP3 MUL SWAP2 POP JUMPDEST DUP1 DUP2 MUL SWAP1 POP PUSH2 0x6ED DUP6 PUSH2 0x69F JUMP JUMPDEST SWAP5 POP PUSH2 0x6B4 JUMP JUMPDEST SWAP5 POP SWAP5 SWAP3 POP POP POP JUMP JUMPDEST PUSH0 DUP3 PUSH2 0x70C JUMPI PUSH1 0x1 SWAP1 POP PUSH2 0x7C7 JUMP JUMPDEST DUP2 PUSH2 0x719 JUMPI PUSH0 SWAP1 POP PUSH2 0x7C7 JUMP JUMPDEST DUP2 PUSH1 0x1 DUP2 EQ PUSH2 0x72F JUMPI PUSH1 0x2 DUP2 EQ PUSH2 0x739 JUMPI PUSH2 0x768 JUMP JUMPDEST PUSH1 0x1 SWAP2 POP POP PUSH2 0x7C7 JUMP JUMPDEST PUSH1 0xFF DUP5 GT ISZERO PUSH2 0x74B JUMPI PUSH2 0x74A PUSH2 0x59B JUMP JUMPDEST JUMPDEST DUP4 PUSH1 0x2 EXP SWAP2 POP DUP5 DUP3 GT ISZERO PUSH2 0x762 JUMPI PUSH2 0x761 PUSH2 0x59B JUMP JUMPDEST JUMPDEST POP PUSH2 0x7C7 JUMP JUMPDEST POP PUSH1 0x20 DUP4 LT PUSH2 0x133 DUP4 LT AND PUSH1 0x4E DUP5 LT PUSH1 0xB DUP5 LT AND OR ISZERO PUSH2 0x79D JUMPI DUP3 DUP3 EXP SWAP1 POP DUP4 DUP2 GT ISZERO PUSH2 0x798 JUMPI PUSH2 0x797 PUSH2 0x59B JUMP JUMPDEST JUMPDEST PUSH2 0x7C7 JUMP JUMPDEST PUSH2 0x7AA DUP5 DUP5 DUP5 PUSH1 0x1 PUSH2 0x6AB JUMP JUMPDEST SWAP3 POP SWAP1 POP DUP2 DUP5 DIV DUP2 GT ISZERO PUSH2 0x7C1 JUMPI PUSH2 0x7C0 PUSH2 0x59B JUMP JUMPDEST JUMPDEST DUP2 DUP2 MUL SWAP1 POP JUMPDEST SWAP4 SWAP3 POP POP POP JUMP JUMPDEST PUSH0 PUSH2 0x7D8 DUP3 PUSH2 0x383 JUMP JUMPDEST SWAP2 POP PUSH2 0x7E3 DUP4 PUSH2 0x63E JUMP JUMPDEST SWAP3 POP PUSH2 0x810 PUSH32 0xFFFFFFFFFFFFFFFFFFFFFFFFFFFFFFFFFFFFFFFFFFFFFFFFFFFFFFFFFFFFFFFF DUP5 DUP5 PUSH2 0x6FD JUMP JUMPDEST SWAP1 POP SWAP3 SWAP2 POP POP JUMP JUMPDEST PUSH0 PUSH2 0x822 DUP3 PUSH2 0x383 JUMP JUMPDEST SWAP2 POP PUSH2 0x82D DUP4 PUSH2 0x383 JUMP JUMPDEST SWAP3 POP DUP3 DUP3 MUL PUSH2 0x83B DUP2 PUSH2 0x383 JUMP JUMPDEST SWAP2 POP DUP3 DUP3 DIV DUP5 EQ DUP4 ISZERO OR PUSH2 0x852 JUMPI PUSH2 0x851 PUSH2 0x59B JUMP JUMPDEST JUMPDEST POP SWAP3 SWAP2 POP POP JUMP JUMPDEST PUSH32 0x4E487B7100000000000000000000000000000000000000000000000000000000 PUSH0 MSTORE PUSH1 0x12 PUSH1 0x4 MSTORE PUSH1 0x24 PUSH0 REVERT JUMPDEST PUSH0 PUSH2 0x890 DUP3 PUSH2 0x383 JUMP JUMPDEST SWAP2 POP PUSH2 0x89B DUP4 PUSH2 0x383 JUMP JUMPDEST SWAP3 POP DUP3 PUSH2 0x8AB JUMPI PUSH2 0x8AA PUSH2 0x859 JUMP JUMPDEST JUMPDEST DUP3 DUP3 DIV SWAP1 POP SWAP3 SWAP2 POP POP JUMP INVALID LOG2 PUSH5 0x6970667358 0x22 SLT KECCAK256 PUSH10 0x810B8A1BA78AAB00180E 0xB0 SHR PUSH30 0x74C2D644F1F1D716CC2E37F12B379D6BCEE364736F6C634300081E003300 "
		},
		"gasEstimates": {
			"creation": {
				"codeDepositCost": "456800",
				"executionCost": "24756",
				"totalCost": "481556"
			},
			"external": {
				"convertEthToPeso()": "infinite",
				"convertUsdToEth(uint256)": "infinite",
				"getLatestPrice()": "infinite"
			}
		},
		"methodIdentifiers": {
			"convertEthToPeso()": "31b67838",
			"convertUsdToEth(uint256)": "a3053e2a",
			"getLatestPrice()": "8e15f473"
		}
	},
	"abi": [
		{
			"inputs": [],
			"stateMutability": "nonpayable",
			"type": "constructor"
		},
		{
			"inputs": [],
			"name": "convertEthToPeso",
			"outputs": [
				{
					"internalType": "int256",
					"name": "price",
					"type": "int256"
				}
			],
			"stateMutability": "view",
			"type": "function"
		},
		{
			"inputs": [
				{
					"internalType": "uint256",
					"name": "usdAmountIn18Decimals",
					"type": "uint256"
				}
			],
			"name": "convertUsdToEth",
			"outputs": [
				{
					"internalType": "uint256",
					"name": "ethAmount",
					"type": "uint256"
				}
			],
			"stateMutability": "view",
			"type": "function"
		},
		{
			"inputs": [],
			"name": "getLatestPrice",
			"outputs": [
				{
					"internalType": "int256",
					"name": "price",
					"type": "int256"
				}
			],
			"stateMutability": "view",
			"type": "function"
		}
	]
}